{
  "contractName": "Connection",
  "abi": [
    {
      "anonymous": false,
      "inputs": [
        {
          "indexed": false,
          "internalType": "uint8",
          "name": "version",
          "type": "uint8"
        }
      ],
      "name": "Initialized",
      "type": "event"
    },
    {
      "anonymous": false,
      "inputs": [
        {
          "indexed": false,
          "internalType": "address",
          "name": "celebrity",
          "type": "address"
        },
        {
          "indexed": false,
          "internalType": "address",
          "name": "creator",
          "type": "address"
        },
        {
          "indexed": false,
          "internalType": "string",
          "name": "tokenURI",
          "type": "string"
        },
        {
          "indexed": false,
          "internalType": "address",
          "name": "contractAddress",
          "type": "address"
        },
        {
          "indexed": false,
          "internalType": "uint256",
          "name": "tokenId",
          "type": "uint256"
        },
        {
          "indexed": false,
          "internalType": "uint256",
          "name": "time",
          "type": "uint256"
        }
      ],
      "name": "Mint",
      "type": "event"
    },
    {
      "anonymous": false,
      "inputs": [
        {
          "indexed": true,
          "internalType": "address",
          "name": "previousOwner",
          "type": "address"
        },
        {
          "indexed": true,
          "internalType": "address",
          "name": "newOwner",
          "type": "address"
        }
      ],
      "name": "OwnershipTransferred",
      "type": "event"
    },
    {
      "inputs": [],
      "name": "owner",
      "outputs": [
        {
          "internalType": "address",
          "name": "",
          "type": "address"
        }
      ],
      "stateMutability": "view",
      "type": "function",
      "constant": true
    },
    {
      "inputs": [],
      "name": "renounceOwnership",
      "outputs": [],
      "stateMutability": "nonpayable",
      "type": "function"
    },
    {
      "inputs": [
        {
          "internalType": "address",
          "name": "newOwner",
          "type": "address"
        }
      ],
      "name": "transferOwnership",
      "outputs": [],
      "stateMutability": "nonpayable",
      "type": "function"
    },
    {
      "inputs": [
        {
          "internalType": "string",
          "name": "initialTokenURI",
          "type": "string"
        },
        {
          "internalType": "uint256",
          "name": "mintingFee",
          "type": "uint256"
        }
      ],
      "name": "initialize",
      "outputs": [],
      "stateMutability": "nonpayable",
      "type": "function"
    },
    {
      "inputs": [
        {
          "internalType": "string",
          "name": "initialTokenURI",
          "type": "string"
        }
      ],
      "name": "setInitialTokenURI",
      "outputs": [],
      "stateMutability": "nonpayable",
      "type": "function"
    },
    {
      "inputs": [
        {
          "internalType": "address",
          "name": "celebrity",
          "type": "address"
        },
        {
          "internalType": "address",
          "name": "contractAddress",
          "type": "address"
        }
      ],
      "name": "register",
      "outputs": [],
      "stateMutability": "nonpayable",
      "type": "function"
    },
    {
      "inputs": [
        {
          "internalType": "address",
          "name": "celebrity",
          "type": "address"
        }
      ],
      "name": "isCelebrity",
      "outputs": [
        {
          "internalType": "bool",
          "name": "",
          "type": "bool"
        }
      ],
      "stateMutability": "view",
      "type": "function",
      "constant": true
    },
    {
      "inputs": [
        {
          "internalType": "string",
          "name": "tokenURI",
          "type": "string"
        },
        {
          "internalType": "address",
          "name": "celebrity",
          "type": "address"
        }
      ],
      "name": "requestNFT",
      "outputs": [],
      "stateMutability": "payable",
      "type": "function",
      "payable": true
    },
    {
      "inputs": [
        {
          "internalType": "string",
          "name": "tokenURI",
          "type": "string"
        }
      ],
      "name": "approveNFT",
      "outputs": [],
      "stateMutability": "payable",
      "type": "function",
      "payable": true
    },
    {
      "inputs": [
        {
          "internalType": "string",
          "name": "tokenURI",
          "type": "string"
        }
      ],
      "name": "rejectNFT",
      "outputs": [],
      "stateMutability": "nonpayable",
      "type": "function"
    },
    {
      "inputs": [
        {
          "internalType": "string",
          "name": "tokenURI",
          "type": "string"
        }
      ],
      "name": "cancelNFT",
      "outputs": [],
      "stateMutability": "nonpayable",
      "type": "function"
    },
    {
      "inputs": [],
      "name": "withdraw",
      "outputs": [],
      "stateMutability": "nonpayable",
      "type": "function"
    },
    {
      "inputs": [],
      "name": "poolHistory",
      "outputs": [
        {
          "components": [
            {
              "internalType": "address",
              "name": "celebrity",
              "type": "address"
            },
            {
              "internalType": "address",
              "name": "creator",
              "type": "address"
            },
            {
              "internalType": "string",
              "name": "tokenURI",
              "type": "string"
            },
            {
              "internalType": "address",
              "name": "_hash",
              "type": "address"
            },
            {
              "internalType": "uint256",
              "name": "open",
              "type": "uint256"
            },
            {
              "internalType": "uint256",
              "name": "close",
              "type": "uint256"
            },
            {
              "internalType": "uint256",
              "name": "cancel",
              "type": "uint256"
            },
            {
              "internalType": "uint256",
              "name": "reject",
              "type": "uint256"
            },
            {
              "internalType": "uint256",
              "name": "depositedValue",
              "type": "uint256"
            }
          ],
          "internalType": "struct Connection.Pool[]",
          "name": "",
          "type": "tuple[]"
        }
      ],
      "stateMutability": "view",
      "type": "function",
      "constant": true
    },
    {
      "inputs": [],
      "name": "getAllNFTs",
      "outputs": [
        {
          "components": [
            {
              "internalType": "uint256",
              "name": "tokenId",
              "type": "uint256"
            },
            {
              "internalType": "address",
              "name": "owner",
              "type": "address"
            },
            {
              "internalType": "address",
              "name": "creator",
              "type": "address"
            },
            {
              "internalType": "address",
              "name": "tokenContractAddress",
              "type": "address"
            },
            {
              "internalType": "address",
              "name": "contractOwner",
              "type": "address"
            },
            {
              "internalType": "string",
              "name": "tokenURI",
              "type": "string"
            },
            {
              "internalType": "uint256",
              "name": "time",
              "type": "uint256"
            }
          ],
          "internalType": "struct Connection.TokenInfo[][]",
          "name": "",
          "type": "tuple[][]"
        }
      ],
      "stateMutability": "view",
      "type": "function",
      "constant": true
    },
    {
      "inputs": [],
      "name": "getOwnedNFTs",
      "outputs": [
        {
          "components": [
            {
              "internalType": "uint256",
              "name": "tokenId",
              "type": "uint256"
            },
            {
              "internalType": "address",
              "name": "owner",
              "type": "address"
            },
            {
              "internalType": "address",
              "name": "creator",
              "type": "address"
            },
            {
              "internalType": "address",
              "name": "tokenContractAddress",
              "type": "address"
            },
            {
              "internalType": "address",
              "name": "contractOwner",
              "type": "address"
            },
            {
              "internalType": "string",
              "name": "tokenURI",
              "type": "string"
            },
            {
              "internalType": "uint256",
              "name": "time",
              "type": "uint256"
            }
          ],
          "internalType": "struct Connection.TokenInfo[][]",
          "name": "",
          "type": "tuple[][]"
        }
      ],
      "stateMutability": "view",
      "type": "function",
      "constant": true
    },
    {
      "inputs": [
        {
          "internalType": "address",
          "name": "contractAddress",
          "type": "address"
        }
      ],
      "name": "getNFTByContractAddress",
      "outputs": [
        {
          "components": [
            {
              "internalType": "uint256",
              "name": "tokenId",
              "type": "uint256"
            },
            {
              "internalType": "address",
              "name": "owner",
              "type": "address"
            },
            {
              "internalType": "address",
              "name": "creator",
              "type": "address"
            },
            {
              "internalType": "address",
              "name": "tokenContractAddress",
              "type": "address"
            },
            {
              "internalType": "address",
              "name": "contractOwner",
              "type": "address"
            },
            {
              "internalType": "string",
              "name": "tokenURI",
              "type": "string"
            },
            {
              "internalType": "uint256",
              "name": "time",
              "type": "uint256"
            }
          ],
          "internalType": "struct Connection.TokenInfo[]",
          "name": "",
          "type": "tuple[]"
        }
      ],
      "stateMutability": "view",
      "type": "function",
      "constant": true
    },
    {
      "inputs": [],
      "name": "getCelebrities",
      "outputs": [
        {
          "internalType": "address[]",
          "name": "",
          "type": "address[]"
        }
      ],
      "stateMutability": "view",
      "type": "function",
      "constant": true
    }
  ],
  "bytecode": "0x608060405234801561001057600080fd5b5061587380620000216000396000f3fe6080604052600436106100fe5760003560e01c8063715018a611610095578063ad7e62b611610064578063ad7e62b6146102ec578063c8f58d4a14610317578063dda946ba14610340578063e0391b091461035c578063f2fde38b14610387576100fe565b8063715018a6146102585780638beaf7d71461026f5780638da5cb5b14610298578063aa677354146102c3576100fe565b806348633541116100d157806348633541146101a957806349d8e15f146101d45780634c0eb7d9146101f05780635396d3f31461021b576100fe565b8063010bd940146101035780632a821a941461012c57806337a96426146101555780633ccfd60b14610192575b600080fd5b34801561010f57600080fd5b5061012a60048036038101906101259190614437565b6103b0565b005b34801561013857600080fd5b50610153600480360381019061014e9190614437565b61075a565b005b34801561016157600080fd5b5061017c600480360381019061017791906144de565b6107f0565b6040516101899190614526565b60405180910390f35b34801561019e57600080fd5b506101a761088a565b005b3480156101b557600080fd5b506101be610929565b6040516101cb9190614778565b60405180910390f35b6101ee60048036038101906101e99190614437565b610f09565b005b3480156101fc57600080fd5b506102056112fe565b60405161021291906149ba565b60405180910390f35b34801561022757600080fd5b50610242600480360381019061023d91906144de565b611b6b565b60405161024f9190614a62565b60405180910390f35b34801561026457600080fd5b5061026d611ff1565b005b34801561027b57600080fd5b5061029660048036038101906102919190614ab0565b612079565b005b3480156102a457600080fd5b506102ad612135565b6040516102ba9190614b1b565b60405180910390f35b3480156102cf57600080fd5b506102ea60048036038101906102e59190614b36565b61215f565b005b3480156102f857600080fd5b5061030161233e565b60405161030e9190614c25565b60405180910390f35b34801561032357600080fd5b5061033e60048036038101906103399190614437565b612355565b005b61035a60048036038101906103559190614c47565b6126e2565b005b34801561036857600080fd5b50610371612878565b60405161037e91906149ba565b60405180910390f35b34801561039357600080fd5b506103ae60048036038101906103a991906144de565b612f06565b005b6103c4336065612ffd90919063ffffffff16565b6103cd57600080fd5b3373ffffffffffffffffffffffffffffffffffffffff163273ffffffffffffffffffffffffffffffffffffffff161461043b576040517f08c379a000000000000000000000000000000000000000000000000000000000815260040161043290614d00565b60405180910390fd5b60008160405160200161044e9190614d59565b6040516020818303038152906040528051906020012060001c90503373ffffffffffffffffffffffffffffffffffffffff16606c60008373ffffffffffffffffffffffffffffffffffffffff1673ffffffffffffffffffffffffffffffffffffffff16815260200190815260200160002060000160009054906101000a900473ffffffffffffffffffffffffffffffffffffffff1673ffffffffffffffffffffffffffffffffffffffff1614610539576040517f08c379a000000000000000000000000000000000000000000000000000000000815260040161053090614dc7565b60405180910390fd5b6000606c60008373ffffffffffffffffffffffffffffffffffffffff1673ffffffffffffffffffffffffffffffffffffffff16815260200190815260200160002060040154036105be576040517f08c379a00000000000000000000000000000000000000000000000000000000081526004016105b590614e33565b60405180910390fd5b6000606c60008373ffffffffffffffffffffffffffffffffffffffff1673ffffffffffffffffffffffffffffffffffffffff1681526020019081526020016000206005015414610643576040517f08c379a000000000000000000000000000000000000000000000000000000000815260040161063a90614e9f565b60405180910390fd5b6000606c60008373ffffffffffffffffffffffffffffffffffffffff1673ffffffffffffffffffffffffffffffffffffffff16815260200190815260200160002060060154146106c8576040517f08c379a00000000000000000000000000000000000000000000000000000000081526004016106bf90614f0b565b60405180910390fd5b6000606c60008373ffffffffffffffffffffffffffffffffffffffff1673ffffffffffffffffffffffffffffffffffffffff168152602001908152602001600020600701541461074d576040517f08c379a000000000000000000000000000000000000000000000000000000000815260040161074490614f77565b60405180910390fd5b6107568161302d565b5050565b610762613173565b73ffffffffffffffffffffffffffffffffffffffff16610780612135565b73ffffffffffffffffffffffffffffffffffffffff16146107d6576040517f08c379a00000000000000000000000000000000000000000000000000000000081526004016107cd90614fe3565b60405180910390fd5b80606e90805190602001906107ec929190614117565b5050565b60008173ffffffffffffffffffffffffffffffffffffffff16606b60008473ffffffffffffffffffffffffffffffffffffffff1673ffffffffffffffffffffffffffffffffffffffff16815260200190815260200160002060000160009054906101000a900473ffffffffffffffffffffffffffffffffffffffff1673ffffffffffffffffffffffffffffffffffffffff16149050919050565b610892613173565b73ffffffffffffffffffffffffffffffffffffffff166108b0612135565b73ffffffffffffffffffffffffffffffffffffffff1614610906576040517f08c379a00000000000000000000000000000000000000000000000000000000081526004016108fd90614fe3565b60405180910390fd5b6000610910612135565b905061091e81606d5461317b565b6000606d8190555050565b60606000610937606961326f565b905060008060005b8351811015610acc573373ffffffffffffffffffffffffffffffffffffffff16606c600086848151811061097657610975615003565b5b602002602001015173ffffffffffffffffffffffffffffffffffffffff1673ffffffffffffffffffffffffffffffffffffffff16815260200190815260200160002060010160009054906101000a900473ffffffffffffffffffffffffffffffffffffffff1673ffffffffffffffffffffffffffffffffffffffff161480610aa557503373ffffffffffffffffffffffffffffffffffffffff16606c6000868481518110610a2757610a26615003565b5b602002602001015173ffffffffffffffffffffffffffffffffffffffff1673ffffffffffffffffffffffffffffffffffffffff16815260200190815260200160002060000160009054906101000a900473ffffffffffffffffffffffffffffffffffffffff1673ffffffffffffffffffffffffffffffffffffffff16145b15610ab9578180610ab590615061565b9250505b8080610ac490615061565b91505061093f565b5060008167ffffffffffffffff811115610ae957610ae861430c565b5b604051908082528060200260200182016040528015610b2257816020015b610b0f61419d565b815260200190600190039081610b075790505b50905060005b8451811015610efe573373ffffffffffffffffffffffffffffffffffffffff16606c6000878481518110610b5f57610b5e615003565b5b602002602001015173ffffffffffffffffffffffffffffffffffffffff1673ffffffffffffffffffffffffffffffffffffffff16815260200190815260200160002060010160009054906101000a900473ffffffffffffffffffffffffffffffffffffffff1673ffffffffffffffffffffffffffffffffffffffff161480610c8e57503373ffffffffffffffffffffffffffffffffffffffff16606c6000878481518110610c1057610c0f615003565b5b602002602001015173ffffffffffffffffffffffffffffffffffffffff1673ffffffffffffffffffffffffffffffffffffffff16815260200190815260200160002060000160009054906101000a900473ffffffffffffffffffffffffffffffffffffffff1673ffffffffffffffffffffffffffffffffffffffff16145b15610eeb57606c6000868381518110610caa57610ca9615003565b5b602002602001015173ffffffffffffffffffffffffffffffffffffffff1673ffffffffffffffffffffffffffffffffffffffff168152602001908152602001600020604051806101200160405290816000820160009054906101000a900473ffffffffffffffffffffffffffffffffffffffff1673ffffffffffffffffffffffffffffffffffffffff1673ffffffffffffffffffffffffffffffffffffffff1681526020016001820160009054906101000a900473ffffffffffffffffffffffffffffffffffffffff1673ffffffffffffffffffffffffffffffffffffffff1673ffffffffffffffffffffffffffffffffffffffff168152602001600282018054610db4906150d8565b80601f0160208091040260200160405190810160405280929190818152602001828054610de0906150d8565b8015610e2d5780601f10610e0257610100808354040283529160200191610e2d565b820191906000526020600020905b815481529060010190602001808311610e1057829003601f168201915b505050505081526020016003820160009054906101000a900473ffffffffffffffffffffffffffffffffffffffff1673ffffffffffffffffffffffffffffffffffffffff1673ffffffffffffffffffffffffffffffffffffffff16815260200160048201548152602001600582015481526020016006820154815260200160078201548152602001600882015481525050828581518110610ed157610ed0615003565b5b60200260200101819052508380610ee790615061565b9450505b8080610ef690615061565b915050610b28565b508094505050505090565b610f1d336065612ffd90919063ffffffff16565b610f2657600080fd5b670de0b6b3a76400003414610f70576040517f08c379a0000000000000000000000000000000000000000000000000000000008152600401610f6790615155565b60405180910390fd5b3373ffffffffffffffffffffffffffffffffffffffff163273ffffffffffffffffffffffffffffffffffffffff1614610fde576040517f08c379a0000000000000000000000000000000000000000000000000000000008152600401610fd590614d00565b60405180910390fd5b600081604051602001610ff19190614d59565b6040516020818303038152906040528051906020012060001c90503373ffffffffffffffffffffffffffffffffffffffff16606c60008373ffffffffffffffffffffffffffffffffffffffff1673ffffffffffffffffffffffffffffffffffffffff16815260200190815260200160002060000160009054906101000a900473ffffffffffffffffffffffffffffffffffffffff1673ffffffffffffffffffffffffffffffffffffffff16146110dc576040517f08c379a00000000000000000000000000000000000000000000000000000000081526004016110d390614dc7565b60405180910390fd5b6000606c60008373ffffffffffffffffffffffffffffffffffffffff1673ffffffffffffffffffffffffffffffffffffffff1681526020019081526020016000206004015403611161576040517f08c379a000000000000000000000000000000000000000000000000000000000815260040161115890614e33565b60405180910390fd5b6000606c60008373ffffffffffffffffffffffffffffffffffffffff1673ffffffffffffffffffffffffffffffffffffffff16815260200190815260200160002060050154146111e6576040517f08c379a00000000000000000000000000000000000000000000000000000000081526004016111dd90614e9f565b60405180910390fd5b6000606c60008373ffffffffffffffffffffffffffffffffffffffff1673ffffffffffffffffffffffffffffffffffffffff168152602001908152602001600020600601541461126b576040517f08c379a000000000000000000000000000000000000000000000000000000000815260040161126290614f0b565b60405180910390fd5b6000606c60008373ffffffffffffffffffffffffffffffffffffffff1673ffffffffffffffffffffffffffffffffffffffff16815260200190815260200160002060070154146112f0576040517f08c379a00000000000000000000000000000000000000000000000000000000081526004016112e790614f77565b60405180910390fd5b6112fa8183613290565b5050565b6060600061130c606561326f565b90506000815167ffffffffffffffff81111561132b5761132a61430c565b5b60405190808252806020026020018201604052801561135e57816020015b60608152602001906001900390816113495790505b50905060005b8251811015611b62576000606b600085848151811061138657611385615003565b5b602002602001015173ffffffffffffffffffffffffffffffffffffffff1673ffffffffffffffffffffffffffffffffffffffff16815260200190815260200160002060010160009054906101000a900473ffffffffffffffffffffffffffffffffffffffff1690506000805b606b600087868151811061140957611408615003565b5b602002602001015173ffffffffffffffffffffffffffffffffffffffff1673ffffffffffffffffffffffffffffffffffffffff16815260200190815260200160002060040154811015611530573373ffffffffffffffffffffffffffffffffffffffff168373ffffffffffffffffffffffffffffffffffffffff16636352211e6001846114969190615175565b6040518263ffffffff1660e01b81526004016114b291906151da565b602060405180830381865afa1580156114cf573d6000803e3d6000fd5b505050506040513d601f19601f820116820180604052508101906114f3919061520a565b73ffffffffffffffffffffffffffffffffffffffff160361151d57818061151990615061565b9250505b808061152890615061565b9150506113f2565b5060008103611540575050611b4f565b6000808267ffffffffffffffff81111561155d5761155c61430c565b5b60405190808252806020026020018201604052801561159657816020015b61158361422b565b81526020019060019003908161157b5790505b50905060005b606b60008988815181106115b3576115b2615003565b5b602002602001015173ffffffffffffffffffffffffffffffffffffffff1673ffffffffffffffffffffffffffffffffffffffff16815260200190815260200160002060040154811015611b2a573373ffffffffffffffffffffffffffffffffffffffff168573ffffffffffffffffffffffffffffffffffffffff16636352211e6001846116409190615175565b6040518263ffffffff1660e01b815260040161165c91906151da565b602060405180830381865afa158015611679573d6000803e3d6000fd5b505050506040513d601f19601f8201168201806040525081019061169d919061520a565b73ffffffffffffffffffffffffffffffffffffffff1603611b17576001836116c59190615175565b8284815181106116d8576116d7615003565b5b602002602001015160000181815250508473ffffffffffffffffffffffffffffffffffffffff16636352211e6001856117119190615175565b6040518263ffffffff1660e01b815260040161172d91906151da565b602060405180830381865afa15801561174a573d6000803e3d6000fd5b505050506040513d601f19601f8201168201806040525081019061176e919061520a565b82848151811061178157611780615003565b5b60200260200101516020019073ffffffffffffffffffffffffffffffffffffffff16908173ffffffffffffffffffffffffffffffffffffffff16815250508473ffffffffffffffffffffffffffffffffffffffff1663589a17436001856117e89190615175565b6040518263ffffffff1660e01b815260040161180491906151da565b602060405180830381865afa158015611821573d6000803e3d6000fd5b505050506040513d601f19601f82011682018060405250810190611845919061520a565b82848151811061185857611857615003565b5b60200260200101516040019073ffffffffffffffffffffffffffffffffffffffff16908173ffffffffffffffffffffffffffffffffffffffff1681525050848284815181106118aa576118a9615003565b5b60200260200101516060019073ffffffffffffffffffffffffffffffffffffffff16908173ffffffffffffffffffffffffffffffffffffffff16815250508473ffffffffffffffffffffffffffffffffffffffff16638da5cb5b6040518163ffffffff1660e01b8152600401602060405180830381865afa158015611933573d6000803e3d6000fd5b505050506040513d601f19601f82011682018060405250810190611957919061520a565b82848151811061196a57611969615003565b5b60200260200101516080019073ffffffffffffffffffffffffffffffffffffffff16908173ffffffffffffffffffffffffffffffffffffffff16815250508473ffffffffffffffffffffffffffffffffffffffff1663c87b56dd6001856119d19190615175565b6040518263ffffffff1660e01b81526004016119ed91906151da565b600060405180830381865afa158015611a0a573d6000803e3d6000fd5b505050506040513d6000823e3d601f19601f82011682018060405250810190611a3391906152a7565b828481518110611a4657611a45615003565b5b602002602001015160a001819052508280611a6090615061565b9350506000828281518110611a7857611a77615003565b5b602002602001015160a00151604051602001611a949190614d59565b6040516020818303038152906040528051906020012060001c9050606c60008273ffffffffffffffffffffffffffffffffffffffff1673ffffffffffffffffffffffffffffffffffffffff16815260200190815260200160002060050154838381518110611b0557611b04615003565b5b602002602001015160c0018181525050505b8080611b2290615061565b91505061159c565b5080868681518110611b3f57611b3e615003565b5b6020026020010181905250505050505b8080611b5a90615061565b915050611364565b50809250505090565b60606000611b79606561326f565b905060008060005b8351811015611ccd578573ffffffffffffffffffffffffffffffffffffffff16606b6000868481518110611bb857611bb7615003565b5b602002602001015173ffffffffffffffffffffffffffffffffffffffff1673ffffffffffffffffffffffffffffffffffffffff16815260200190815260200160002060010160009054906101000a900473ffffffffffffffffffffffffffffffffffffffff1673ffffffffffffffffffffffffffffffffffffffff1603611cba57838181518110611c4c57611c4b615003565b5b60200260200101519250606b6000858381518110611c6d57611c6c615003565b5b602002602001015173ffffffffffffffffffffffffffffffffffffffff1673ffffffffffffffffffffffffffffffffffffffff168152602001908152602001600020600401549150611ccd565b8080611cc590615061565b915050611b81565b5060008167ffffffffffffffff811115611cea57611ce961430c565b5b604051908082528060200260200182016040528015611d2357816020015b611d1061422b565b815260200190600190039081611d085790505b5090506000600190505b828111611fe4576000879050611d4161422b565b85816080019073ffffffffffffffffffffffffffffffffffffffff16908173ffffffffffffffffffffffffffffffffffffffff16815250508173ffffffffffffffffffffffffffffffffffffffff1663589a1743846040518263ffffffff1660e01b8152600401611db291906151da565b602060405180830381865afa158015611dcf573d6000803e3d6000fd5b505050506040513d601f19601f82011682018060405250810190611df3919061520a565b816040019073ffffffffffffffffffffffffffffffffffffffff16908173ffffffffffffffffffffffffffffffffffffffff168152505088816060019073ffffffffffffffffffffffffffffffffffffffff16908173ffffffffffffffffffffffffffffffffffffffff1681525050828160000181815250508173ffffffffffffffffffffffffffffffffffffffff1663c87b56dd846040518263ffffffff1660e01b8152600401611ea591906151da565b600060405180830381865afa158015611ec2573d6000803e3d6000fd5b505050506040513d6000823e3d601f19601f82011682018060405250810190611eeb91906152a7565b8160a001819052508173ffffffffffffffffffffffffffffffffffffffff16636352211e846040518263ffffffff1660e01b8152600401611f2c91906151da565b602060405180830381865afa158015611f49573d6000803e3d6000fd5b505050506040513d601f19601f82011682018060405250810190611f6d919061520a565b816020019073ffffffffffffffffffffffffffffffffffffffff16908173ffffffffffffffffffffffffffffffffffffffff16815250508084600185611fb391906152f0565b81518110611fc457611fc3615003565b5b602002602001018190525050508080611fdc90615061565b915050611d2d565b5080945050505050919050565b611ff9613173565b73ffffffffffffffffffffffffffffffffffffffff16612017612135565b73ffffffffffffffffffffffffffffffffffffffff161461206d576040517f08c379a000000000000000000000000000000000000000000000000000000000815260040161206490614fe3565b60405180910390fd5b61207760006138cf565b565b60006120856001613995565b905080156120a9576001600060016101000a81548160ff0219169083151502179055505b6000606d8190555082606e90805190602001906120c7929190614117565b5081606f819055506120d7613a85565b80156121305760008060016101000a81548160ff0219169083151502179055507f7f26b83ff96e1f2b6a682f133852f6798a09c465da95921460cefb384740249860016040516121279190615376565b60405180910390a15b505050565b6000603360009054906101000a900473ffffffffffffffffffffffffffffffffffffffff16905090565b612167613173565b73ffffffffffffffffffffffffffffffffffffffff16612185612135565b73ffffffffffffffffffffffffffffffffffffffff16146121db576040517f08c379a00000000000000000000000000000000000000000000000000000000081526004016121d290614fe3565b60405180910390fd5b81606b60008473ffffffffffffffffffffffffffffffffffffffff1673ffffffffffffffffffffffffffffffffffffffff16815260200190815260200160002060000160006101000a81548173ffffffffffffffffffffffffffffffffffffffff021916908373ffffffffffffffffffffffffffffffffffffffff16021790555080606b60008473ffffffffffffffffffffffffffffffffffffffff1673ffffffffffffffffffffffffffffffffffffffff16815260200190815260200160002060010160006101000a81548173ffffffffffffffffffffffffffffffffffffffff021916908373ffffffffffffffffffffffffffffffffffffffff1602179055506000606b60008473ffffffffffffffffffffffffffffffffffffffff1673ffffffffffffffffffffffffffffffffffffffff16815260200190815260200160002060040181905550612339826065613ade90919063ffffffff16565b505050565b6060600061234c606561326f565b90508091505090565b3373ffffffffffffffffffffffffffffffffffffffff163273ffffffffffffffffffffffffffffffffffffffff16146123c3576040517f08c379a00000000000000000000000000000000000000000000000000000000081526004016123ba90614d00565b60405180910390fd5b6000816040516020016123d69190614d59565b6040516020818303038152906040528051906020012060001c90503373ffffffffffffffffffffffffffffffffffffffff16606c60008373ffffffffffffffffffffffffffffffffffffffff1673ffffffffffffffffffffffffffffffffffffffff16815260200190815260200160002060010160009054906101000a900473ffffffffffffffffffffffffffffffffffffffff1673ffffffffffffffffffffffffffffffffffffffff16146124c1576040517f08c379a00000000000000000000000000000000000000000000000000000000081526004016124b890614dc7565b60405180910390fd5b6000606c60008373ffffffffffffffffffffffffffffffffffffffff1673ffffffffffffffffffffffffffffffffffffffff1681526020019081526020016000206004015403612546576040517f08c379a000000000000000000000000000000000000000000000000000000000815260040161253d90614e33565b60405180910390fd5b6000606c60008373ffffffffffffffffffffffffffffffffffffffff1673ffffffffffffffffffffffffffffffffffffffff16815260200190815260200160002060050154146125cb576040517f08c379a00000000000000000000000000000000000000000000000000000000081526004016125c290614e9f565b60405180910390fd5b6000606c60008373ffffffffffffffffffffffffffffffffffffffff1673ffffffffffffffffffffffffffffffffffffffff1681526020019081526020016000206006015414612650576040517f08c379a000000000000000000000000000000000000000000000000000000000815260040161264790614f0b565b60405180910390fd5b6000606c60008373ffffffffffffffffffffffffffffffffffffffff1673ffffffffffffffffffffffffffffffffffffffff16815260200190815260200160002060070154146126d5576040517f08c379a00000000000000000000000000000000000000000000000000000000081526004016126cc90614f77565b60405180910390fd5b6126de81613b0e565b5050565b8073ffffffffffffffffffffffffffffffffffffffff16606b60008373ffffffffffffffffffffffffffffffffffffffff1673ffffffffffffffffffffffffffffffffffffffff16815260200190815260200160002060000160009054906101000a900473ffffffffffffffffffffffffffffffffffffffff1673ffffffffffffffffffffffffffffffffffffffff16146127b2576040517f08c379a00000000000000000000000000000000000000000000000000000000081526004016127a9906153dd565b60405180910390fd5b670de0b6b3a764000034146127fc576040517f08c379a00000000000000000000000000000000000000000000000000000000081526004016127f390615155565b60405180910390fd5b3373ffffffffffffffffffffffffffffffffffffffff163273ffffffffffffffffffffffffffffffffffffffff161461286a576040517f08c379a000000000000000000000000000000000000000000000000000000000815260040161286190614d00565b60405180910390fd5b6128748183613c54565b5050565b60606000612886606561326f565b90506000815167ffffffffffffffff8111156128a5576128a461430c565b5b6040519080825280602002602001820160405280156128d857816020015b60608152602001906001900390816128c35790505b50905060005b8251811015612efd576000606b6000858481518110612900576128ff615003565b5b602002602001015173ffffffffffffffffffffffffffffffffffffffff1673ffffffffffffffffffffffffffffffffffffffff16815260200190815260200160002060010160009054906101000a900473ffffffffffffffffffffffffffffffffffffffff1690506000606b600086858151811061298157612980615003565b5b602002602001015173ffffffffffffffffffffffffffffffffffffffff1673ffffffffffffffffffffffffffffffffffffffff1681526020019081526020016000206004015467ffffffffffffffff8111156129e0576129df61430c565b5b604051908082528060200260200182016040528015612a1957816020015b612a0661422b565b8152602001906001900390816129fe5790505b50905060005b606b6000878681518110612a3657612a35615003565b5b602002602001015173ffffffffffffffffffffffffffffffffffffffff1673ffffffffffffffffffffffffffffffffffffffff16815260200190815260200160002060040154811015612ec8576000600182612a929190615175565b905080838381518110612aa857612aa7615003565b5b602002602001015160000181815250508373ffffffffffffffffffffffffffffffffffffffff16636352211e826040518263ffffffff1660e01b8152600401612af191906151da565b602060405180830381865afa158015612b0e573d6000803e3d6000fd5b505050506040513d601f19601f82011682018060405250810190612b32919061520a565b838381518110612b4557612b44615003565b5b60200260200101516020019073ffffffffffffffffffffffffffffffffffffffff16908173ffffffffffffffffffffffffffffffffffffffff16815250508373ffffffffffffffffffffffffffffffffffffffff1663589a1743826040518263ffffffff1660e01b8152600401612bbc91906151da565b602060405180830381865afa158015612bd9573d6000803e3d6000fd5b505050506040513d601f19601f82011682018060405250810190612bfd919061520a565b838381518110612c1057612c0f615003565b5b60200260200101516040019073ffffffffffffffffffffffffffffffffffffffff16908173ffffffffffffffffffffffffffffffffffffffff168152505083838381518110612c6257612c61615003565b5b60200260200101516060019073ffffffffffffffffffffffffffffffffffffffff16908173ffffffffffffffffffffffffffffffffffffffff16815250508373ffffffffffffffffffffffffffffffffffffffff16638da5cb5b6040518163ffffffff1660e01b8152600401602060405180830381865afa158015612ceb573d6000803e3d6000fd5b505050506040513d601f19601f82011682018060405250810190612d0f919061520a565b838381518110612d2257612d21615003565b5b60200260200101516080019073ffffffffffffffffffffffffffffffffffffffff16908173ffffffffffffffffffffffffffffffffffffffff16815250508373ffffffffffffffffffffffffffffffffffffffff1663c87b56dd826040518263ffffffff1660e01b8152600401612d9991906151da565b600060405180830381865afa158015612db6573d6000803e3d6000fd5b505050506040513d6000823e3d601f19601f82011682018060405250810190612ddf91906152a7565b838381518110612df257612df1615003565b5b602002602001015160a001819052506000838381518110612e1657612e15615003565b5b602002602001015160a00151604051602001612e329190614d59565b6040516020818303038152906040528051906020012060001c9050606c60008273ffffffffffffffffffffffffffffffffffffffff1673ffffffffffffffffffffffffffffffffffffffff16815260200190815260200160002060050154848481518110612ea357612ea2615003565b5b602002602001015160c001818152505050508080612ec090615061565b915050612a1f565b5080848481518110612edd57612edc615003565b5b602002602001018190525050508080612ef590615061565b9150506128de565b50809250505090565b612f0e613173565b73ffffffffffffffffffffffffffffffffffffffff16612f2c612135565b73ffffffffffffffffffffffffffffffffffffffff1614612f82576040517f08c379a0000000000000000000000000000000000000000000000000000000008152600401612f7990614fe3565b60405180910390fd5b600073ffffffffffffffffffffffffffffffffffffffff168173ffffffffffffffffffffffffffffffffffffffff1603612ff1576040517f08c379a0000000000000000000000000000000000000000000000000000000008152600401612fe89061546f565b60405180910390fd5b612ffa816138cf565b50565b6000613025836000018373ffffffffffffffffffffffffffffffffffffffff1660001b613fa4565b905092915050565b6000606c60008373ffffffffffffffffffffffffffffffffffffffff1673ffffffffffffffffffffffffffffffffffffffff16815260200190815260200160002060010160009054906101000a900473ffffffffffffffffffffffffffffffffffffffff16905042606c60008473ffffffffffffffffffffffffffffffffffffffff1673ffffffffffffffffffffffffffffffffffffffff1681526020019081526020016000206007018190555061312781606c60008573ffffffffffffffffffffffffffffffffffffffff1673ffffffffffffffffffffffffffffffffffffffff1681526020019081526020016000206008015461317b565b6000606c60008473ffffffffffffffffffffffffffffffffffffffff1673ffffffffffffffffffffffffffffffffffffffff168152602001908152602001600020600801819055505050565b600033905090565b804710156131be576040517f08c379a00000000000000000000000000000000000000000000000000000000081526004016131b5906154db565b60405180910390fd5b60008273ffffffffffffffffffffffffffffffffffffffff16826040516131e49061552c565b60006040518083038185875af1925050503d8060008114613221576040519150601f19603f3d011682016040523d82523d6000602084013e613226565b606091505b505090508061326a576040517f08c379a0000000000000000000000000000000000000000000000000000000008152600401613261906155b3565b60405180910390fd5b505050565b6060600061327f83600001613fc7565b905060608190508092505050919050565b6000606c60008473ffffffffffffffffffffffffffffffffffffffff1673ffffffffffffffffffffffffffffffffffffffff168152602001908152602001600020604051806101200160405290816000820160009054906101000a900473ffffffffffffffffffffffffffffffffffffffff1673ffffffffffffffffffffffffffffffffffffffff1673ffffffffffffffffffffffffffffffffffffffff1681526020016001820160009054906101000a900473ffffffffffffffffffffffffffffffffffffffff1673ffffffffffffffffffffffffffffffffffffffff1673ffffffffffffffffffffffffffffffffffffffff168152602001600282018054613399906150d8565b80601f01602080910402602001604051908101604052809291908181526020018280546133c5906150d8565b80156134125780601f106133e757610100808354040283529160200191613412565b820191906000526020600020905b8154815290600101906020018083116133f557829003601f168201915b505050505081526020016003820160009054906101000a900473ffffffffffffffffffffffffffffffffffffffff1673ffffffffffffffffffffffffffffffffffffffff1673ffffffffffffffffffffffffffffffffffffffff1681526020016004820154815260200160058201548152602001600682015481526020016007820154815260200160088201548152505090506000606b6000836000015173ffffffffffffffffffffffffffffffffffffffff1673ffffffffffffffffffffffffffffffffffffffff16815260200190815260200160002060010160009054906101000a900473ffffffffffffffffffffffffffffffffffffffff1690506000606c60008673ffffffffffffffffffffffffffffffffffffffff1673ffffffffffffffffffffffffffffffffffffffff16815260200190815260200160002060010160009054906101000a900473ffffffffffffffffffffffffffffffffffffffff16905060008290508073ffffffffffffffffffffffffffffffffffffffff166304f3227986846040518363ffffffff1660e01b81526004016135b79291906155d3565b6020604051808303816000875af11580156135d6573d6000803e3d6000fd5b505050506040513d601f19601f820116820180604052508101906135fa9190615618565b5042606c60008873ffffffffffffffffffffffffffffffffffffffff1673ffffffffffffffffffffffffffffffffffffffff1681526020019081526020016000206005018190555061369a82606b6000876000015173ffffffffffffffffffffffffffffffffffffffff1673ffffffffffffffffffffffffffffffffffffffff168152602001908152602001600020600201613ade90919063ffffffff16565b508073ffffffffffffffffffffffffffffffffffffffff166318160ddd6040518163ffffffff1660e01b8152600401602060405180830381865afa1580156136e6573d6000803e3d6000fd5b505050506040513d601f19601f8201168201806040525081019061370a9190615618565b606b6000866000015173ffffffffffffffffffffffffffffffffffffffff1673ffffffffffffffffffffffffffffffffffffffff1681526020019081526020016000206004018190555034606d60008282546137669190615175565b92505081905550606c60008773ffffffffffffffffffffffffffffffffffffffff1673ffffffffffffffffffffffffffffffffffffffff16815260200190815260200160002060080154606d60008282546137c19190615175565b925050819055506000606c60008873ffffffffffffffffffffffffffffffffffffffff1673ffffffffffffffffffffffffffffffffffffffff168152602001908152602001600020600801819055507f17b479fe6cd37ed71733926b75dc8990d3845c9425e8d30c20ad59e112b892838460000151856020015187868573ffffffffffffffffffffffffffffffffffffffff166318160ddd6040518163ffffffff1660e01b8152600401602060405180830381865afa158015613888573d6000803e3d6000fd5b505050506040513d601f19601f820116820180604052508101906138ac9190615618565b426040516138bf96959493929190615645565b60405180910390a1505050505050565b6000603360009054906101000a900473ffffffffffffffffffffffffffffffffffffffff16905081603360006101000a81548173ffffffffffffffffffffffffffffffffffffffff021916908373ffffffffffffffffffffffffffffffffffffffff1602179055508173ffffffffffffffffffffffffffffffffffffffff168173ffffffffffffffffffffffffffffffffffffffff167f8be0079c531659141344cd1fd0a4f28419497f9722a3daafe3b4186f6b6457e060405160405180910390a35050565b60008060019054906101000a900460ff1615613a0c5760018260ff161480156139c457506139c230614023565b155b613a03576040517f08c379a00000000000000000000000000000000000000000000000000000000081526004016139fa9061571f565b60405180910390fd5b60009050613a80565b8160ff1660008054906101000a900460ff1660ff1610613a61576040517f08c379a0000000000000000000000000000000000000000000000000000000008152600401613a589061571f565b60405180910390fd5b816000806101000a81548160ff021916908360ff160217905550600190505b919050565b600060019054906101000a900460ff16613ad4576040517f08c379a0000000000000000000000000000000000000000000000000000000008152600401613acb906157b1565b60405180910390fd5b613adc614046565b565b6000613b06836000018373ffffffffffffffffffffffffffffffffffffffff1660001b6140a7565b905092915050565b6000606c60008373ffffffffffffffffffffffffffffffffffffffff1673ffffffffffffffffffffffffffffffffffffffff16815260200190815260200160002060010160009054906101000a900473ffffffffffffffffffffffffffffffffffffffff16905042606c60008473ffffffffffffffffffffffffffffffffffffffff1673ffffffffffffffffffffffffffffffffffffffff16815260200190815260200160002060060181905550613c0881606c60008573ffffffffffffffffffffffffffffffffffffffff1673ffffffffffffffffffffffffffffffffffffffff1681526020019081526020016000206008015461317b565b6000606c60008473ffffffffffffffffffffffffffffffffffffffff1673ffffffffffffffffffffffffffffffffffffffff168152602001908152602001600020600801819055505050565b600081604051602001613c679190614d59565b6040516020818303038152906040528051906020012060001c9050600073ffffffffffffffffffffffffffffffffffffffff16606c60008373ffffffffffffffffffffffffffffffffffffffff1673ffffffffffffffffffffffffffffffffffffffff16815260200190815260200160002060000160009054906101000a900473ffffffffffffffffffffffffffffffffffffffff1673ffffffffffffffffffffffffffffffffffffffff1614613d53576040517f08c379a0000000000000000000000000000000000000000000000000000000008152600401613d4a9061581d565b60405180910390fd5b613d5b61419d565b83816000019073ffffffffffffffffffffffffffffffffffffffff16908173ffffffffffffffffffffffffffffffffffffffff168152505033816020019073ffffffffffffffffffffffffffffffffffffffff16908173ffffffffffffffffffffffffffffffffffffffff168152505082816040018190525081816060019073ffffffffffffffffffffffffffffffffffffffff16908173ffffffffffffffffffffffffffffffffffffffff168152505042816080018181525050348161010001818152505080606c60008473ffffffffffffffffffffffffffffffffffffffff1673ffffffffffffffffffffffffffffffffffffffff16815260200190815260200160002060008201518160000160006101000a81548173ffffffffffffffffffffffffffffffffffffffff021916908373ffffffffffffffffffffffffffffffffffffffff16021790555060208201518160010160006101000a81548173ffffffffffffffffffffffffffffffffffffffff021916908373ffffffffffffffffffffffffffffffffffffffff1602179055506040820151816002019080519060200190613f0b929190614117565b5060608201518160030160006101000a81548173ffffffffffffffffffffffffffffffffffffffff021916908373ffffffffffffffffffffffffffffffffffffffff1602179055506080820151816004015560a0820151816005015560c0820151816006015560e082015181600701556101008201518160080155905050613f9d826069613ade90919063ffffffff16565b5050505050565b600080836001016000848152602001908152602001600020541415905092915050565b60608160000180548060200260200160405190810160405280929190818152602001828054801561401757602002820191906000526020600020905b815481526020019060010190808311614003575b50505050509050919050565b6000808273ffffffffffffffffffffffffffffffffffffffff163b119050919050565b600060019054906101000a900460ff16614095576040517f08c379a000000000000000000000000000000000000000000000000000000000815260040161408c906157b1565b60405180910390fd5b6140a56140a0613173565b6138cf565b565b60006140b38383613fa4565b61410c578260000182908060018154018082558091505060019003906000526020600020016000909190919091505582600001805490508360010160008481526020019081526020016000208190555060019050614111565b600090505b92915050565b828054614123906150d8565b90600052602060002090601f016020900481019282614145576000855561418c565b82601f1061415e57805160ff191683800117855561418c565b8280016001018555821561418c579182015b8281111561418b578251825591602001919060010190614170565b5b50905061419991906142c0565b5090565b604051806101200160405280600073ffffffffffffffffffffffffffffffffffffffff168152602001600073ffffffffffffffffffffffffffffffffffffffff16815260200160608152602001600073ffffffffffffffffffffffffffffffffffffffff16815260200160008152602001600081526020016000815260200160008152602001600081525090565b6040518060e0016040528060008152602001600073ffffffffffffffffffffffffffffffffffffffff168152602001600073ffffffffffffffffffffffffffffffffffffffff168152602001600073ffffffffffffffffffffffffffffffffffffffff168152602001600073ffffffffffffffffffffffffffffffffffffffff16815260200160608152602001600081525090565b5b808211156142d95760008160009055506001016142c1565b5090565b6000604051905090565b600080fd5b600080fd5b600080fd5b600080fd5b6000601f19601f8301169050919050565b7f4e487b7100000000000000000000000000000000000000000000000000000000600052604160045260246000fd5b614344826142fb565b810181811067ffffffffffffffff821117156143635761436261430c565b5b80604052505050565b60006143766142dd565b9050614382828261433b565b919050565b600067ffffffffffffffff8211156143a2576143a161430c565b5b6143ab826142fb565b9050602081019050919050565b82818337600083830152505050565b60006143da6143d584614387565b61436c565b9050828152602081018484840111156143f6576143f56142f6565b5b6144018482856143b8565b509392505050565b600082601f83011261441e5761441d6142f1565b5b813561442e8482602086016143c7565b91505092915050565b60006020828403121561444d5761444c6142e7565b5b600082013567ffffffffffffffff81111561446b5761446a6142ec565b5b61447784828501614409565b91505092915050565b600073ffffffffffffffffffffffffffffffffffffffff82169050919050565b60006144ab82614480565b9050919050565b6144bb816144a0565b81146144c657600080fd5b50565b6000813590506144d8816144b2565b92915050565b6000602082840312156144f4576144f36142e7565b5b6000614502848285016144c9565b91505092915050565b60008115159050919050565b6145208161450b565b82525050565b600060208201905061453b6000830184614517565b92915050565b600081519050919050565b600082825260208201905092915050565b6000819050602082019050919050565b614576816144a0565b82525050565b600081519050919050565b600082825260208201905092915050565b60005b838110156145b657808201518184015260208101905061459b565b838111156145c5576000848401525b50505050565b60006145d68261457c565b6145e08185614587565b93506145f0818560208601614598565b6145f9816142fb565b840191505092915050565b6000819050919050565b61461781614604565b82525050565b600061012083016000830151614636600086018261456d565b506020830151614649602086018261456d565b506040830151848203604086015261466182826145cb565b9150506060830151614676606086018261456d565b506080830151614689608086018261460e565b5060a083015161469c60a086018261460e565b5060c08301516146af60c086018261460e565b5060e08301516146c260e086018261460e565b506101008301516146d761010086018261460e565b508091505092915050565b60006146ee838361461d565b905092915050565b6000602082019050919050565b600061470e82614541565b614718818561454c565b93508360208202850161472a8561455d565b8060005b85811015614766578484038952815161474785826146e2565b9450614752836146f6565b925060208a0199505060018101905061472e565b50829750879550505050505092915050565b600060208201905081810360008301526147928184614703565b905092915050565b600081519050919050565b600082825260208201905092915050565b6000819050602082019050919050565b600081519050919050565b600082825260208201905092915050565b6000819050602082019050919050565b600060e08301600083015161480a600086018261460e565b50602083015161481d602086018261456d565b506040830151614830604086018261456d565b506060830151614843606086018261456d565b506080830151614856608086018261456d565b5060a083015184820360a086015261486e82826145cb565b91505060c083015161488360c086018261460e565b508091505092915050565b600061489a83836147f2565b905092915050565b6000602082019050919050565b60006148ba826147c6565b6148c481856147d1565b9350836020820285016148d6856147e2565b8060005b8581101561491257848403895281516148f3858261488e565b94506148fe836148a2565b925060208a019950506001810190506148da565b50829750879550505050505092915050565b600061493083836148af565b905092915050565b6000602082019050919050565b60006149508261479a565b61495a81856147a5565b93508360208202850161496c856147b6565b8060005b858110156149a857848403895281516149898582614924565b945061499483614938565b925060208a01995050600181019050614970565b50829750879550505050505092915050565b600060208201905081810360008301526149d48184614945565b905092915050565b600082825260208201905092915050565b60006149f8826147c6565b614a0281856149dc565b935083602082028501614a14856147e2565b8060005b85811015614a505784840389528151614a31858261488e565b9450614a3c836148a2565b925060208a01995050600181019050614a18565b50829750879550505050505092915050565b60006020820190508181036000830152614a7c81846149ed565b905092915050565b614a8d81614604565b8114614a9857600080fd5b50565b600081359050614aaa81614a84565b92915050565b60008060408385031215614ac757614ac66142e7565b5b600083013567ffffffffffffffff811115614ae557614ae46142ec565b5b614af185828601614409565b9250506020614b0285828601614a9b565b9150509250929050565b614b15816144a0565b82525050565b6000602082019050614b306000830184614b0c565b92915050565b60008060408385031215614b4d57614b4c6142e7565b5b6000614b5b858286016144c9565b9250506020614b6c858286016144c9565b9150509250929050565b600081519050919050565b600082825260208201905092915050565b6000819050602082019050919050565b6000614bae838361456d565b60208301905092915050565b6000602082019050919050565b6000614bd282614b76565b614bdc8185614b81565b9350614be783614b92565b8060005b83811015614c18578151614bff8882614ba2565b9750614c0a83614bba565b925050600181019050614beb565b5085935050505092915050565b60006020820190508181036000830152614c3f8184614bc7565b905092915050565b60008060408385031215614c5e57614c5d6142e7565b5b600083013567ffffffffffffffff811115614c7c57614c7b6142ec565b5b614c8885828601614409565b9250506020614c99858286016144c9565b9150509250929050565b600082825260208201905092915050565b7f74782e6f726967696e206973206e6f74206d73672e73656e6465720000000000600082015250565b6000614cea601b83614ca3565b9150614cf582614cb4565b602082019050919050565b60006020820190508181036000830152614d1981614cdd565b9050919050565b6000614d2b8261457c565b614d358185614ca3565b9350614d45818560208601614598565b614d4e816142fb565b840191505092915050565b60006020820190508181036000830152614d738184614d20565b905092915050565b7f596f7520617265206e6f7420746865206f776e6572206f66204e465400000000600082015250565b6000614db1601c83614ca3565b9150614dbc82614d7b565b602082019050919050565b60006020820190508181036000830152614de081614da4565b9050919050565b7f52657175657374206973206e6f74206f70656e65642079657400000000000000600082015250565b6000614e1d601983614ca3565b9150614e2882614de7565b602082019050919050565b60006020820190508181036000830152614e4c81614e10565b9050919050565b7f5265717565737420697320616c726561647920636c6f73656400000000000000600082015250565b6000614e89601983614ca3565b9150614e9482614e53565b602082019050919050565b60006020820190508181036000830152614eb881614e7c565b9050919050565b7f5265717565737420697320616c72656164792063616e63656c65640000000000600082015250565b6000614ef5601b83614ca3565b9150614f0082614ebf565b602082019050919050565b60006020820190508181036000830152614f2481614ee8565b9050919050565b7f5265717565737420697320616c72656164792072656a65637465640000000000600082015250565b6000614f61601b83614ca3565b9150614f6c82614f2b565b602082019050919050565b60006020820190508181036000830152614f9081614f54565b9050919050565b7f4f776e61626c653a2063616c6c6572206973206e6f7420746865206f776e6572600082015250565b6000614fcd602083614ca3565b9150614fd882614f97565b602082019050919050565b60006020820190508181036000830152614ffc81614fc0565b9050919050565b7f4e487b7100000000000000000000000000000000000000000000000000000000600052603260045260246000fd5b7f4e487b7100000000000000000000000000000000000000000000000000000000600052601160045260246000fd5b600061506c82614604565b91507fffffffffffffffffffffffffffffffffffffffffffffffffffffffffffffffff820361509e5761509d615032565b5b600182019050919050565b7f4e487b7100000000000000000000000000000000000000000000000000000000600052602260045260246000fd5b600060028204905060018216806150f057607f821691505b602082108103615103576151026150a9565b5b50919050565b7f56616c756520697320696e76616c696400000000000000000000000000000000600082015250565b600061513f601083614ca3565b915061514a82615109565b602082019050919050565b6000602082019050818103600083015261516e81615132565b9050919050565b600061518082614604565b915061518b83614604565b9250827fffffffffffffffffffffffffffffffffffffffffffffffffffffffffffffffff038211156151c0576151bf615032565b5b828201905092915050565b6151d481614604565b82525050565b60006020820190506151ef60008301846151cb565b92915050565b600081519050615204816144b2565b92915050565b6000602082840312156152205761521f6142e7565b5b600061522e848285016151f5565b91505092915050565b600061524a61524584614387565b61436c565b905082815260208101848484011115615266576152656142f6565b5b615271848285614598565b509392505050565b600082601f83011261528e5761528d6142f1565b5b815161529e848260208601615237565b91505092915050565b6000602082840312156152bd576152bc6142e7565b5b600082015167ffffffffffffffff8111156152db576152da6142ec565b5b6152e784828501615279565b91505092915050565b60006152fb82614604565b915061530683614604565b92508282101561531957615318615032565b5b828203905092915050565b6000819050919050565b600060ff82169050919050565b6000819050919050565b600061536061535b61535684615324565b61533b565b61532e565b9050919050565b61537081615345565b82525050565b600060208201905061538b6000830184615367565b92915050565b7f43656c65627269747920646f6573206e6f742065786973740000000000000000600082015250565b60006153c7601883614ca3565b91506153d282615391565b602082019050919050565b600060208201905081810360008301526153f6816153ba565b9050919050565b7f4f776e61626c653a206e6577206f776e657220697320746865207a65726f206160008201527f6464726573730000000000000000000000000000000000000000000000000000602082015250565b6000615459602683614ca3565b9150615464826153fd565b604082019050919050565b600060208201905081810360008301526154888161544c565b9050919050565b7f416464726573733a20696e73756666696369656e742062616c616e6365000000600082015250565b60006154c5601d83614ca3565b91506154d08261548f565b602082019050919050565b600060208201905081810360008301526154f4816154b8565b9050919050565b600081905092915050565b50565b60006155166000836154fb565b915061552182615506565b600082019050919050565b600061553782615509565b9150819050919050565b7f416464726573733a20756e61626c6520746f2073656e642076616c75652c207260008201527f6563697069656e74206d61792068617665207265766572746564000000000000602082015250565b600061559d603a83614ca3565b91506155a882615541565b604082019050919050565b600060208201905081810360008301526155cc81615590565b9050919050565b600060408201905081810360008301526155ed8185614d20565b90506155fc6020830184614b0c565b9392505050565b60008151905061561281614a84565b92915050565b60006020828403121561562e5761562d6142e7565b5b600061563c84828501615603565b91505092915050565b600060c08201905061565a6000830189614b0c565b6156676020830188614b0c565b81810360408301526156798187614d20565b90506156886060830186614b0c565b61569560808301856151cb565b6156a260a08301846151cb565b979650505050505050565b7f496e697469616c697a61626c653a20636f6e747261637420697320616c72656160008201527f647920696e697469616c697a6564000000000000000000000000000000000000602082015250565b6000615709602e83614ca3565b9150615714826156ad565b604082019050919050565b60006020820190508181036000830152615738816156fc565b9050919050565b7f496e697469616c697a61626c653a20636f6e7472616374206973206e6f74206960008201527f6e697469616c697a696e67000000000000000000000000000000000000000000602082015250565b600061579b602b83614ca3565b91506157a68261573f565b604082019050919050565b600060208201905081810360008301526157ca8161578e565b9050919050565b7f546f6b656e555249206973206475706c69636174656400000000000000000000600082015250565b6000615807601683614ca3565b9150615812826157d1565b602082019050919050565b60006020820190508181036000830152615836816157fa565b905091905056fea2646970667358221220f3d1d1b98d76563e9f012b4084d029c0e45de7bf6b5466e4d58d5b36a8efeb7364736f6c634300080e0033",
  "immutableReferences": {},
  "source": "//SPDX-License-Identifier: MIT\r\n\r\npragma solidity ^0.8.0;\r\n\r\nimport \"@openzeppelin/contracts-upgradeable/utils/structs/EnumerableSetUpgradeable.sol\";\r\nimport \"@openzeppelin/contracts-upgradeable/access/OwnableUpgradeable.sol\";\r\nimport \"@openzeppelin/contracts-upgradeable/utils/AddressUpgradeable.sol\";\r\nimport \"./NFT.sol\";\r\n\r\n\r\ncontract Connection is OwnableUpgradeable {\r\n    using EnumerableSetUpgradeable for EnumerableSetUpgradeable.AddressSet;\r\n    using EnumerableSetUpgradeable for EnumerableSetUpgradeable.Bytes32Set;\r\n    using AddressUpgradeable for address;\r\n\r\n    struct TokenInfo {\r\n        uint256 tokenId;\r\n        address owner;\r\n        address creator;\r\n        address tokenContractAddress;\r\n        address contractOwner;\r\n        string tokenURI;\r\n        uint256 time;\r\n    }\r\n\r\n    struct NFTInfo {\r\n        address celebrity;\r\n        address contractAddress;\r\n        EnumerableSetUpgradeable.AddressSet creators;\r\n        uint256 supplied;\r\n    }\r\n\r\n    struct Pool {\r\n        address celebrity;\r\n        address creator;\r\n        string tokenURI;\r\n        address _hash;\r\n        uint256 open;\r\n        uint256 close;\r\n        uint256 cancel;\r\n        uint256 reject;\r\n        uint256 depositedValue;\r\n    }\r\n\r\n    // Declare a set state variable\r\n    EnumerableSetUpgradeable.AddressSet private _celebrities;\r\n    EnumerableSetUpgradeable.AddressSet private _creators;\r\n    EnumerableSetUpgradeable.AddressSet private _hashes;\r\n\r\n    mapping(address => NFTInfo) private _NFTInfos;\r\n    mapping(address => Pool) private _pools;\r\n    uint256 private _withdrawableValue;\r\n    string private _initialTokenURI;\r\n    uint256 private _mintingFee;\r\n\r\n    event Mint(address celebrity, address creator, string tokenURI,\r\n        address contractAddress, uint256 tokenId, uint256 time);\r\n\r\n    function initialize(string memory initialTokenURI, uint256 mintingFee) public initializer {\r\n        _withdrawableValue = 0;\r\n        _initialTokenURI = initialTokenURI;\r\n        _mintingFee = mintingFee;\r\n        __Ownable_init();\r\n    }\r\n\r\n    modifier onlyCelebrity() {\r\n        require(_celebrities.contains(msg.sender));\r\n        _;\r\n    }\r\n\r\n    function setInitialTokenURI(string memory initialTokenURI) public onlyOwner {\r\n        _initialTokenURI = initialTokenURI;\r\n    }\r\n\r\n    function register(address celebrity, address contractAddress) public onlyOwner {\r\n        _NFTInfos[celebrity].celebrity = celebrity;\r\n        _NFTInfos[celebrity].contractAddress = contractAddress;\r\n        _NFTInfos[celebrity].supplied = 0;\r\n        _celebrities.add(celebrity);\r\n    }\r\n\r\n\r\n    function isCelebrity(address celebrity) public view returns (bool) {\r\n        return _NFTInfos[celebrity].celebrity == celebrity;\r\n    }\r\n\r\n    function requestNFT(string memory tokenURI, address celebrity) public payable {\r\n        require(\r\n            _NFTInfos[celebrity].celebrity == celebrity,\r\n            \"Celebrity does not exist\"\r\n        );\r\n        require(msg.value == 1 ether, \"Value is invalid\");\r\n        require(tx.origin == msg.sender, \"tx.origin is not msg.sender\");\r\n        createPool(celebrity, tokenURI);\r\n    }\r\n\r\n\r\n    function approveNFT(string memory tokenURI) public payable onlyCelebrity {\r\n        require(msg.value == 1 ether, \"Value is invalid\");\r\n        require(tx.origin == msg.sender, \"tx.origin is not msg.sender\");\r\n\r\n        address _hash = address(\r\n            uint160(uint256(keccak256(abi.encode(tokenURI))))\r\n        );\r\n        require(\r\n            _pools[_hash].celebrity == msg.sender,\r\n            \"You are not the owner of NFT\"\r\n        );\r\n        require(_pools[_hash].open != 0, \"Request is not opened yet\");\r\n        require(_pools[_hash].close == 0, \"Request is already closed\");\r\n        require(_pools[_hash].cancel == 0, \"Request is already canceled\");\r\n        require(_pools[_hash].reject == 0, \"Request is already rejected\");\r\n        closePool(_hash, tokenURI);\r\n    }\r\n\r\n\r\n    function rejectNFT(string memory tokenURI) public onlyCelebrity {\r\n        require(tx.origin == msg.sender, \"tx.origin is not msg.sender\");\r\n\r\n        address _hash = address(\r\n            uint160(uint256(keccak256(abi.encode(tokenURI))))\r\n        );\r\n        require(\r\n            _pools[_hash].celebrity == msg.sender,\r\n            \"You are not the owner of NFT\"\r\n        );\r\n        require(_pools[_hash].open != 0, \"Request is not opened yet\");\r\n        require(_pools[_hash].close == 0, \"Request is already closed\");\r\n        require(_pools[_hash].cancel == 0, \"Request is already canceled\");\r\n        require(_pools[_hash].reject == 0, \"Request is already rejected\");\r\n        rejectPool(_hash);\r\n    }\r\n\r\n\r\n    function cancelNFT(string memory tokenURI) public {\r\n        require(tx.origin == msg.sender, \"tx.origin is not msg.sender\");\r\n\r\n        address _hash = address(\r\n            uint160(uint256(keccak256(abi.encode(tokenURI))))\r\n        );\r\n        require(\r\n            _pools[_hash].creator == msg.sender,\r\n            \"You are not the owner of NFT\"\r\n        );\r\n        require(_pools[_hash].open != 0, \"Request is not opened yet\");\r\n        require(_pools[_hash].close == 0, \"Request is already closed\");\r\n        require(_pools[_hash].cancel == 0, \"Request is already canceled\");\r\n        require(_pools[_hash].reject == 0, \"Request is already rejected\");\r\n        cancelPool(_hash);\r\n    }\r\n\r\n\r\n    function withdraw() public onlyOwner {\r\n        address _owner = owner();\r\n        AddressUpgradeable.sendValue(payable(_owner), _withdrawableValue);\r\n        _withdrawableValue = 0;\r\n    }\r\n\r\n    function poolHistory() public view returns (Pool[] memory) {\r\n        address[] memory hashes = _hashes.values();\r\n        uint256 counter = 0;\r\n        uint256 count = 0;\r\n        for (uint256 i = 0; i < hashes.length; i++) {\r\n            if (\r\n                _pools[hashes[i]].creator == msg.sender ||\r\n                _pools[hashes[i]].celebrity == msg.sender\r\n            ) {\r\n                count++;\r\n            }\r\n        }\r\n        Pool[] memory pools = new Pool[](count);\r\n        for (uint256 i = 0; i < hashes.length; i++) {\r\n            if (\r\n                _pools[hashes[i]].creator == msg.sender ||\r\n                _pools[hashes[i]].celebrity == msg.sender\r\n            ) {\r\n                pools[counter] = _pools[hashes[i]];\r\n                counter++;\r\n            }\r\n        }\r\n        return pools;\r\n    }\r\n\r\n    function getAllNFTs() public view returns (TokenInfo[][] memory) {\r\n        address[] memory celebrities = _celebrities.values();\r\n        TokenInfo[][] memory tokenInfos = new TokenInfo[][](celebrities.length);\r\n        for (uint256 i = 0; i < celebrities.length; i++) {\r\n            NFT NFT_ = NFT(\r\n                _NFTInfos[celebrities[i]].contractAddress\r\n            );\r\n            TokenInfo[] memory temp = new TokenInfo[](\r\n                _NFTInfos[celebrities[i]].supplied\r\n            );\r\n            for (uint256 j = 0; j < _NFTInfos[celebrities[i]].supplied; j++) {\r\n                uint256 tokenId = j + 1;\r\n                temp[j].tokenId = tokenId;\r\n                temp[j].owner = NFT_.ownerOf(tokenId);\r\n                temp[j].creator = NFT_.creatorOf(tokenId);\r\n                temp[j].tokenContractAddress = address(NFT_);\r\n                temp[j].contractOwner = NFT_.owner();\r\n                temp[j].tokenURI = NFT_.tokenURI(tokenId);\r\n                address _hash = address(\r\n                    uint160(uint256(keccak256(abi.encode(temp[j].tokenURI))))\r\n                );\r\n                temp[j].time = _pools[_hash].close;\r\n            }\r\n            tokenInfos[i] = temp;\r\n        }\r\n        return tokenInfos;\r\n    }\r\n\r\n    function getOwnedNFTs() public view returns (TokenInfo[][] memory) {\r\n        address[] memory celebrities = _celebrities.values();\r\n        TokenInfo[][] memory tokenInfos = new TokenInfo[][](celebrities.length);\r\n        for (uint256 i = 0; i < celebrities.length; i++) {\r\n            NFT NFT_ = NFT(\r\n                _NFTInfos[celebrities[i]].contractAddress\r\n            );\r\n            uint256 count = 0;\r\n            for (uint256 j = 0; j < _NFTInfos[celebrities[i]].supplied; j++) {\r\n                if (NFT_.ownerOf(j + 1) == msg.sender) {\r\n                    count++;\r\n                }\r\n            }\r\n            if (count == 0) {\r\n                continue;\r\n            }\r\n            uint256 idx = 0;\r\n            TokenInfo[] memory temp = new TokenInfo[](count);\r\n            for (uint256 j = 0; j < _NFTInfos[celebrities[i]].supplied; j++) {\r\n                if (NFT_.ownerOf(j + 1) != msg.sender) {\r\n                    continue;\r\n                }\r\n                temp[idx].tokenId = idx + 1;\r\n                temp[idx].owner = NFT_.ownerOf(idx + 1);\r\n                temp[idx].creator = NFT_.creatorOf(idx + 1);\r\n                temp[idx].tokenContractAddress = address(NFT_);\r\n                temp[idx].contractOwner = NFT_.owner();\r\n                temp[idx].tokenURI = NFT_.tokenURI(idx + 1);\r\n                idx++;\r\n                address _hash = address(\r\n                    uint160(uint256(keccak256(abi.encode(temp[j].tokenURI))))\r\n                );\r\n                temp[j].time = _pools[_hash].close;\r\n            }\r\n            tokenInfos[i] = temp;\r\n        }\r\n        return tokenInfos;\r\n    }\r\n\r\n    function getNFTByContractAddress(address contractAddress) public view returns (TokenInfo[] memory) {\r\n        address[] memory celebrities = _celebrities.values();\r\n        address celebrity;\r\n        uint256 tokenCount;\r\n        for (uint256 i = 0; i < celebrities.length; i++) {\r\n            if (_NFTInfos[celebrities[i]].contractAddress == contractAddress) {\r\n                celebrity = celebrities[i];\r\n                tokenCount = _NFTInfos[celebrities[i]].supplied;\r\n                break;\r\n            }\r\n        }\r\n        TokenInfo[] memory tokenInfos = new TokenInfo[](tokenCount);\r\n        for (uint256 i = 1; i <= tokenCount; i++) {\r\n            NFT NFT_ = NFT(contractAddress);\r\n            TokenInfo memory tokenInfo;\r\n            tokenInfo.contractOwner = celebrity;\r\n            tokenInfo.creator = NFT_.creatorOf(i);\r\n            tokenInfo.tokenContractAddress = contractAddress;\r\n            tokenInfo.tokenId = i;\r\n            tokenInfo.tokenURI = NFT_.tokenURI(i);\r\n            tokenInfo.owner = NFT_.ownerOf(i);\r\n            tokenInfos[i - 1] = tokenInfo;\r\n        }\r\n        return tokenInfos;\r\n    }\r\n\r\n    function getCelebrities() public view returns (address[] memory) {\r\n        address[] memory celebrities = _celebrities.values();\r\n        return celebrities;\r\n    }\r\n\r\n    function createPool(address celebrity, string memory tokenURI) internal {\r\n        address _hash = address(\r\n            uint160(uint256(keccak256(abi.encode(tokenURI))))\r\n        );\r\n        require(\r\n            _pools[_hash].celebrity == address(0),\r\n            \"TokenURI is duplicated\"\r\n        );\r\n        Pool memory pool;\r\n        pool.celebrity = celebrity;\r\n        pool.creator = msg.sender;\r\n        pool.tokenURI = tokenURI;\r\n        pool._hash = _hash;\r\n        pool.open = block.timestamp;\r\n        pool.depositedValue = msg.value;\r\n        _pools[_hash] = pool;\r\n        _hashes.add(_hash);\r\n    }\r\n\r\n    function closePool(address _hash, string memory tokenURI) internal {\r\n        Pool memory pool = _pools[_hash];\r\n\r\n        address contractAddress = _NFTInfos[pool.celebrity].contractAddress;\r\n        address creator = _pools[_hash].creator;\r\n\r\n        NFT NFT_ = NFT(contractAddress);\r\n        NFT_.mintNFT(tokenURI, creator);\r\n\r\n        _pools[_hash].close = block.timestamp;\r\n        _NFTInfos[pool.celebrity].creators.add(creator);\r\n        _NFTInfos[pool.celebrity].supplied = NFT_.totalSupply();\r\n        _withdrawableValue += msg.value;\r\n        _withdrawableValue += _pools[_hash].depositedValue;\r\n        _pools[_hash].depositedValue = 0;\r\n        emit Mint(pool.celebrity, pool.creator, tokenURI, contractAddress, NFT_.totalSupply(), block.timestamp);\r\n    }\r\n\r\n    function rejectPool(address _hash) internal {\r\n        address creator = _pools[_hash].creator;\r\n        _pools[_hash].reject = block.timestamp;\r\n        AddressUpgradeable.sendValue(payable(creator), _pools[_hash].depositedValue);\r\n\r\n        _pools[_hash].depositedValue = 0;\r\n    }\r\n\r\n    function cancelPool(address _hash) internal {\r\n        address creator = _pools[_hash].creator;\r\n        _pools[_hash].cancel = block.timestamp;\r\n        AddressUpgradeable.sendValue(payable(creator), _pools[_hash].depositedValue);\r\n        _pools[_hash].depositedValue = 0;\r\n    }\r\n\r\n}\r\n",
  "sourcePath": "C:\\Users\\dlscj\\VSCode\\FrontEnd\\contracts\\Connection.sol",
  "compiler": {
    "name": "solc",
    "version": "0.8.14+commit.80d49f37.Emscripten.clang"
  },
  "schemaVersion": "3.4.7",
  "updatedAt": "2022-05-26T06:31:18.005Z",
  "networkType": "ethereum",
  "devdoc": {
    "kind": "dev",
    "methods": {
      "owner()": {
        "details": "Returns the address of the current owner."
      },
      "renounceOwnership()": {
        "details": "Leaves the contract without owner. It will not be possible to call `onlyOwner` functions anymore. Can only be called by the current owner. NOTE: Renouncing ownership will leave the contract without an owner, thereby removing any functionality that is only available to the owner."
      },
      "transferOwnership(address)": {
        "details": "Transfers ownership of the contract to a new account (`newOwner`). Can only be called by the current owner."
      }
    },
    "version": 1
  },
  "userdoc": {
    "kind": "user",
    "methods": {},
    "version": 1
  }
}