{
  "contractName": "Connection",
  "abi": [
    {
      "inputs": [],
      "stateMutability": "nonpayable",
      "type": "constructor"
    },
    {
      "anonymous": false,
      "inputs": [
        {
          "indexed": true,
          "internalType": "address",
          "name": "previousOwner",
          "type": "address"
        },
        {
          "indexed": true,
          "internalType": "address",
          "name": "newOwner",
          "type": "address"
        }
      ],
      "name": "OwnershipTransferred",
      "type": "event"
    },
    {
      "stateMutability": "nonpayable",
      "type": "fallback"
    },
    {
      "inputs": [],
      "name": "owner",
      "outputs": [
        {
          "internalType": "address",
          "name": "",
          "type": "address"
        }
      ],
      "stateMutability": "view",
      "type": "function"
    },
    {
      "inputs": [],
      "name": "renounceOwnership",
      "outputs": [],
      "stateMutability": "nonpayable",
      "type": "function"
    },
    {
      "inputs": [
        {
          "internalType": "address",
          "name": "newOwner",
          "type": "address"
        }
      ],
      "name": "transferOwnership",
      "outputs": [],
      "stateMutability": "nonpayable",
      "type": "function"
    },
    {
      "stateMutability": "payable",
      "type": "receive"
    },
    {
      "inputs": [
        {
          "internalType": "address",
          "name": "celebrity",
          "type": "address"
        },
        {
          "internalType": "address",
          "name": "token",
          "type": "address"
        }
      ],
      "name": "register",
      "outputs": [],
      "stateMutability": "nonpayable",
      "type": "function"
    },
    {
      "inputs": [
        {
          "internalType": "address",
          "name": "celebrity",
          "type": "address"
        }
      ],
      "name": "isCelebrity",
      "outputs": [
        {
          "internalType": "bool",
          "name": "",
          "type": "bool"
        }
      ],
      "stateMutability": "view",
      "type": "function"
    },
    {
      "inputs": [
        {
          "internalType": "string",
          "name": "tokenURI",
          "type": "string"
        },
        {
          "internalType": "address",
          "name": "celebrity",
          "type": "address"
        }
      ],
      "name": "requestNFT",
      "outputs": [],
      "stateMutability": "payable",
      "type": "function"
    },
    {
      "inputs": [
        {
          "internalType": "string",
          "name": "tokenURI",
          "type": "string"
        }
      ],
      "name": "approveNFT",
      "outputs": [],
      "stateMutability": "payable",
      "type": "function"
    },
    {
      "inputs": [],
      "name": "withdraw",
      "outputs": [],
      "stateMutability": "nonpayable",
      "type": "function"
    },
    {
      "inputs": [],
      "name": "poolHistory",
      "outputs": [
        {
          "components": [
            {
              "internalType": "address",
              "name": "celebrity",
              "type": "address"
            },
            {
              "internalType": "address",
              "name": "creator",
              "type": "address"
            },
            {
              "internalType": "string",
              "name": "tokenURI",
              "type": "string"
            },
            {
              "internalType": "address",
              "name": "_hash",
              "type": "address"
            },
            {
              "internalType": "uint256",
              "name": "open",
              "type": "uint256"
            },
            {
              "internalType": "uint256",
              "name": "close",
              "type": "uint256"
            },
            {
              "internalType": "uint256",
              "name": "cancel",
              "type": "uint256"
            }
          ],
          "internalType": "struct Connection.Pool[]",
          "name": "",
          "type": "tuple[]"
        }
      ],
      "stateMutability": "view",
      "type": "function"
    },
    {
      "inputs": [],
      "name": "getAllNFTs",
      "outputs": [],
      "stateMutability": "view",
      "type": "function"
    }
  ],
  "bytecode": "0x60806040523480156200001157600080fd5b5062000032620000266200003860201b60201c565b6200004060201b60201c565b62000104565b600033905090565b60008060009054906101000a900473ffffffffffffffffffffffffffffffffffffffff169050816000806101000a81548173ffffffffffffffffffffffffffffffffffffffff021916908373ffffffffffffffffffffffffffffffffffffffff1602179055508173ffffffffffffffffffffffffffffffffffffffff168173ffffffffffffffffffffffffffffffffffffffff167f8be0079c531659141344cd1fd0a4f28419497f9722a3daafe3b4186f6b6457e060405160405180910390a35050565b6128ed80620001146000396000f3fe6080604052600436106100955760003560e01c80638da5cb5b116100595780638da5cb5b1461015c578063aa67735414610187578063dda946ba146101b0578063e0391b09146101cc578063f2fde38b146101e35761009c565b806337a96426146100aa5780633ccfd60b146100e757806348633541146100fe57806349d8e15f14610129578063715018a6146101455761009c565b3661009c57005b3480156100a857600080fd5b005b3480156100b657600080fd5b506100d160048036038101906100cc9190611da9565b61020c565b6040516100de9190611df1565b60405180910390f35b3480156100f357600080fd5b506100fc6102a6565b005b34801561010a57600080fd5b5061011361033b565b604051610120919061202b565b60405180910390f35b610143600480360381019061013e9190612182565b610906565b005b34801561015157600080fd5b5061015a610c76565b005b34801561016857600080fd5b50610171610cfe565b60405161017e91906121da565b60405180910390f35b34801561019357600080fd5b506101ae60048036038101906101a991906121f5565b610d27565b005b6101ca60048036038101906101c59190612235565b610f06565b005b3480156101d857600080fd5b506101e161109c565b005b3480156101ef57600080fd5b5061020a60048036038101906102059190611da9565b6111a3565b005b60008173ffffffffffffffffffffffffffffffffffffffff16600760008473ffffffffffffffffffffffffffffffffffffffff1673ffffffffffffffffffffffffffffffffffffffff16815260200190815260200160002060000160009054906101000a900473ffffffffffffffffffffffffffffffffffffffff1673ffffffffffffffffffffffffffffffffffffffff16149050919050565b6102ae61129a565b73ffffffffffffffffffffffffffffffffffffffff166102cc610cfe565b73ffffffffffffffffffffffffffffffffffffffff1614610322576040517f08c379a0000000000000000000000000000000000000000000000000000000008152600401610319906122ee565b60405180910390fd5b600061032c610cfe565b905061033881476112a2565b50565b606060006103496005611396565b905060008060005b83518110156104de573373ffffffffffffffffffffffffffffffffffffffff16600860008684815181106103885761038761230e565b5b602002602001015173ffffffffffffffffffffffffffffffffffffffff1673ffffffffffffffffffffffffffffffffffffffff16815260200190815260200160002060010160009054906101000a900473ffffffffffffffffffffffffffffffffffffffff1673ffffffffffffffffffffffffffffffffffffffff1614806104b757503373ffffffffffffffffffffffffffffffffffffffff16600860008684815181106104395761043861230e565b5b602002602001015173ffffffffffffffffffffffffffffffffffffffff1673ffffffffffffffffffffffffffffffffffffffff16815260200190815260200160002060000160009054906101000a900473ffffffffffffffffffffffffffffffffffffffff1673ffffffffffffffffffffffffffffffffffffffff16145b156104cb5781806104c79061236c565b9250505b80806104d69061236c565b915050610351565b5060008167ffffffffffffffff8111156104fb576104fa612057565b5b60405190808252806020026020018201604052801561053457816020015b610521611c15565b8152602001906001900390816105195790505b50905060005b84518110156108fb573373ffffffffffffffffffffffffffffffffffffffff16600860008784815181106105715761057061230e565b5b602002602001015173ffffffffffffffffffffffffffffffffffffffff1673ffffffffffffffffffffffffffffffffffffffff16815260200190815260200160002060010160009054906101000a900473ffffffffffffffffffffffffffffffffffffffff1673ffffffffffffffffffffffffffffffffffffffff1614806106a057503373ffffffffffffffffffffffffffffffffffffffff16600860008784815181106106225761062161230e565b5b602002602001015173ffffffffffffffffffffffffffffffffffffffff1673ffffffffffffffffffffffffffffffffffffffff16815260200190815260200160002060000160009054906101000a900473ffffffffffffffffffffffffffffffffffffffff1673ffffffffffffffffffffffffffffffffffffffff16145b156108e857600860008683815181106106bc576106bb61230e565b5b602002602001015173ffffffffffffffffffffffffffffffffffffffff1673ffffffffffffffffffffffffffffffffffffffff1681526020019081526020016000206040518060e00160405290816000820160009054906101000a900473ffffffffffffffffffffffffffffffffffffffff1673ffffffffffffffffffffffffffffffffffffffff1673ffffffffffffffffffffffffffffffffffffffff1681526020016001820160009054906101000a900473ffffffffffffffffffffffffffffffffffffffff1673ffffffffffffffffffffffffffffffffffffffff1673ffffffffffffffffffffffffffffffffffffffff1681526020016002820180546107c5906123e3565b80601f01602080910402602001604051908101604052809291908181526020018280546107f1906123e3565b801561083e5780601f106108135761010080835404028352916020019161083e565b820191906000526020600020905b81548152906001019060200180831161082157829003601f168201915b505050505081526020016003820160009054906101000a900473ffffffffffffffffffffffffffffffffffffffff1673ffffffffffffffffffffffffffffffffffffffff1673ffffffffffffffffffffffffffffffffffffffff16815260200160048201548152602001600582015481526020016006820154815250508285815181106108ce576108cd61230e565b5b602002602001018190525083806108e49061236c565b9450505b80806108f39061236c565b91505061053a565b508094505050505090565b61091a3360016113b790919063ffffffff16565b61092357600080fd5b670de0b6b3a7640000341461096d576040517f08c379a000000000000000000000000000000000000000000000000000000000815260040161096490612460565b60405180910390fd5b3373ffffffffffffffffffffffffffffffffffffffff163273ffffffffffffffffffffffffffffffffffffffff16146109db576040517f08c379a00000000000000000000000000000000000000000000000000000000081526004016109d2906124cc565b60405180910390fd5b6000816040516020016109ee9190612525565b6040516020818303038152906040528051906020012060001c90503373ffffffffffffffffffffffffffffffffffffffff16600860008373ffffffffffffffffffffffffffffffffffffffff1673ffffffffffffffffffffffffffffffffffffffff16815260200190815260200160002060000160009054906101000a900473ffffffffffffffffffffffffffffffffffffffff1673ffffffffffffffffffffffffffffffffffffffff1614610ad9576040517f08c379a0000000000000000000000000000000000000000000000000000000008152600401610ad090612593565b60405180910390fd5b6000600860008373ffffffffffffffffffffffffffffffffffffffff1673ffffffffffffffffffffffffffffffffffffffff1681526020019081526020016000206004015403610b5e576040517f08c379a0000000000000000000000000000000000000000000000000000000008152600401610b5590612625565b60405180910390fd5b6000600860008373ffffffffffffffffffffffffffffffffffffffff1673ffffffffffffffffffffffffffffffffffffffff1681526020019081526020016000206005015414610be3576040517f08c379a0000000000000000000000000000000000000000000000000000000008152600401610bda90612625565b60405180910390fd5b6000600860008373ffffffffffffffffffffffffffffffffffffffff1673ffffffffffffffffffffffffffffffffffffffff1681526020019081526020016000206006015414610c68576040517f08c379a0000000000000000000000000000000000000000000000000000000008152600401610c5f90612625565b60405180910390fd5b610c7281836113e7565b5050565b610c7e61129a565b73ffffffffffffffffffffffffffffffffffffffff16610c9c610cfe565b73ffffffffffffffffffffffffffffffffffffffff1614610cf2576040517f08c379a0000000000000000000000000000000000000000000000000000000008152600401610ce9906122ee565b60405180910390fd5b610cfc60006117d3565b565b60008060009054906101000a900473ffffffffffffffffffffffffffffffffffffffff16905090565b610d2f61129a565b73ffffffffffffffffffffffffffffffffffffffff16610d4d610cfe565b73ffffffffffffffffffffffffffffffffffffffff1614610da3576040517f08c379a0000000000000000000000000000000000000000000000000000000008152600401610d9a906122ee565b60405180910390fd5b81600760008473ffffffffffffffffffffffffffffffffffffffff1673ffffffffffffffffffffffffffffffffffffffff16815260200190815260200160002060000160006101000a81548173ffffffffffffffffffffffffffffffffffffffff021916908373ffffffffffffffffffffffffffffffffffffffff16021790555080600760008473ffffffffffffffffffffffffffffffffffffffff1673ffffffffffffffffffffffffffffffffffffffff16815260200190815260200160002060010160006101000a81548173ffffffffffffffffffffffffffffffffffffffff021916908373ffffffffffffffffffffffffffffffffffffffff1602179055506000600760008473ffffffffffffffffffffffffffffffffffffffff1673ffffffffffffffffffffffffffffffffffffffff16815260200190815260200160002060040181905550610f0182600161189790919063ffffffff16565b505050565b8073ffffffffffffffffffffffffffffffffffffffff16600760008373ffffffffffffffffffffffffffffffffffffffff1673ffffffffffffffffffffffffffffffffffffffff16815260200190815260200160002060000160009054906101000a900473ffffffffffffffffffffffffffffffffffffffff1673ffffffffffffffffffffffffffffffffffffffff1614610fd6576040517f08c379a0000000000000000000000000000000000000000000000000000000008152600401610fcd90612691565b60405180910390fd5b670de0b6b3a76400003414611020576040517f08c379a000000000000000000000000000000000000000000000000000000000815260040161101790612460565b60405180910390fd5b3373ffffffffffffffffffffffffffffffffffffffff163273ffffffffffffffffffffffffffffffffffffffff161461108e576040517f08c379a0000000000000000000000000000000000000000000000000000000008152600401611085906124cc565b60405180910390fd5b61109881836118c7565b5050565b60006110a86001611396565b90506000815167ffffffffffffffff8111156110c7576110c6612057565b5b6040519080825280602002602001820160405280156110fa57816020015b60608152602001906001900390816110e55790505b50905060005b825181101561119e576000600760008584815181106111225761112161230e565b5b602002602001015173ffffffffffffffffffffffffffffffffffffffff1673ffffffffffffffffffffffffffffffffffffffff16815260200190815260200160002060010160009054906101000a900473ffffffffffffffffffffffffffffffffffffffff1690505080806111969061236c565b915050611100565b505050565b6111ab61129a565b73ffffffffffffffffffffffffffffffffffffffff166111c9610cfe565b73ffffffffffffffffffffffffffffffffffffffff161461121f576040517f08c379a0000000000000000000000000000000000000000000000000000000008152600401611216906122ee565b60405180910390fd5b600073ffffffffffffffffffffffffffffffffffffffff168173ffffffffffffffffffffffffffffffffffffffff160361128e576040517f08c379a000000000000000000000000000000000000000000000000000000000815260040161128590612723565b60405180910390fd5b611297816117d3565b50565b600033905090565b804710156112e5576040517f08c379a00000000000000000000000000000000000000000000000000000000081526004016112dc9061278f565b60405180910390fd5b60008273ffffffffffffffffffffffffffffffffffffffff168260405161130b906127e0565b60006040518083038185875af1925050503d8060008114611348576040519150601f19603f3d011682016040523d82523d6000602084013e61134d565b606091505b5050905080611391576040517f08c379a000000000000000000000000000000000000000000000000000000000815260040161138890612867565b60405180910390fd5b505050565b606060006113a683600001611b26565b905060608190508092505050919050565b60006113df836000018373ffffffffffffffffffffffffffffffffffffffff1660001b611b82565b905092915050565b6000600860008473ffffffffffffffffffffffffffffffffffffffff1673ffffffffffffffffffffffffffffffffffffffff1681526020019081526020016000206040518060e00160405290816000820160009054906101000a900473ffffffffffffffffffffffffffffffffffffffff1673ffffffffffffffffffffffffffffffffffffffff1673ffffffffffffffffffffffffffffffffffffffff1681526020016001820160009054906101000a900473ffffffffffffffffffffffffffffffffffffffff1673ffffffffffffffffffffffffffffffffffffffff1673ffffffffffffffffffffffffffffffffffffffff1681526020016002820180546114ef906123e3565b80601f016020809104026020016040519081016040528092919081815260200182805461151b906123e3565b80156115685780601f1061153d57610100808354040283529160200191611568565b820191906000526020600020905b81548152906001019060200180831161154b57829003601f168201915b505050505081526020016003820160009054906101000a900473ffffffffffffffffffffffffffffffffffffffff1673ffffffffffffffffffffffffffffffffffffffff1673ffffffffffffffffffffffffffffffffffffffff16815260200160048201548152602001600582015481526020016006820154815250509050600060076000836000015173ffffffffffffffffffffffffffffffffffffffff1673ffffffffffffffffffffffffffffffffffffffff16815260200190815260200160002060010160009054906101000a900473ffffffffffffffffffffffffffffffffffffffff1690506000600860008673ffffffffffffffffffffffffffffffffffffffff1673ffffffffffffffffffffffffffffffffffffffff16815260200190815260200160002060010160009054906101000a900473ffffffffffffffffffffffffffffffffffffffff16905060008290508073ffffffffffffffffffffffffffffffffffffffff166304f3227986846040518363ffffffff1660e01b81526004016116f9929190612887565b600060405180830381600087803b15801561171357600080fd5b505af1158015611727573d6000803e3d6000fd5b5050505042600860008873ffffffffffffffffffffffffffffffffffffffff1673ffffffffffffffffffffffffffffffffffffffff168152602001908152602001600020600501819055506117ca8260076000876000015173ffffffffffffffffffffffffffffffffffffffff1673ffffffffffffffffffffffffffffffffffffffff16815260200190815260200160002060020161189790919063ffffffff16565b50505050505050565b60008060009054906101000a900473ffffffffffffffffffffffffffffffffffffffff169050816000806101000a81548173ffffffffffffffffffffffffffffffffffffffff021916908373ffffffffffffffffffffffffffffffffffffffff1602179055508173ffffffffffffffffffffffffffffffffffffffff168173ffffffffffffffffffffffffffffffffffffffff167f8be0079c531659141344cd1fd0a4f28419497f9722a3daafe3b4186f6b6457e060405160405180910390a35050565b60006118bf836000018373ffffffffffffffffffffffffffffffffffffffff1660001b611ba5565b905092915050565b6000816040516020016118da9190612525565b6040516020818303038152906040528051906020012060001c90506118fd611c15565b83816000019073ffffffffffffffffffffffffffffffffffffffff16908173ffffffffffffffffffffffffffffffffffffffff168152505033816020019073ffffffffffffffffffffffffffffffffffffffff16908173ffffffffffffffffffffffffffffffffffffffff168152505082816040018190525081816060019073ffffffffffffffffffffffffffffffffffffffff16908173ffffffffffffffffffffffffffffffffffffffff16815250504281608001818152505080600860008473ffffffffffffffffffffffffffffffffffffffff1673ffffffffffffffffffffffffffffffffffffffff16815260200190815260200160002060008201518160000160006101000a81548173ffffffffffffffffffffffffffffffffffffffff021916908373ffffffffffffffffffffffffffffffffffffffff16021790555060208201518160010160006101000a81548173ffffffffffffffffffffffffffffffffffffffff021916908373ffffffffffffffffffffffffffffffffffffffff1602179055506040820151816002019080519060200190611aa2929190611c94565b5060608201518160030160006101000a81548173ffffffffffffffffffffffffffffffffffffffff021916908373ffffffffffffffffffffffffffffffffffffffff1602179055506080820151816004015560a0820151816005015560c08201518160060155905050611b1f82600561189790919063ffffffff16565b5050505050565b606081600001805480602002602001604051908101604052809291908181526020018280548015611b7657602002820191906000526020600020905b815481526020019060010190808311611b62575b50505050509050919050565b600080836001016000848152602001908152602001600020541415905092915050565b6000611bb18383611b82565b611c0a578260000182908060018154018082558091505060019003906000526020600020016000909190919091505582600001805490508360010160008481526020019081526020016000208190555060019050611c0f565b600090505b92915050565b6040518060e00160405280600073ffffffffffffffffffffffffffffffffffffffff168152602001600073ffffffffffffffffffffffffffffffffffffffff16815260200160608152602001600073ffffffffffffffffffffffffffffffffffffffff1681526020016000815260200160008152602001600081525090565b828054611ca0906123e3565b90600052602060002090601f016020900481019282611cc25760008555611d09565b82601f10611cdb57805160ff1916838001178555611d09565b82800160010185558215611d09579182015b82811115611d08578251825591602001919060010190611ced565b5b509050611d169190611d1a565b5090565b5b80821115611d33576000816000905550600101611d1b565b5090565b6000604051905090565b600080fd5b600080fd5b600073ffffffffffffffffffffffffffffffffffffffff82169050919050565b6000611d7682611d4b565b9050919050565b611d8681611d6b565b8114611d9157600080fd5b50565b600081359050611da381611d7d565b92915050565b600060208284031215611dbf57611dbe611d41565b5b6000611dcd84828501611d94565b91505092915050565b60008115159050919050565b611deb81611dd6565b82525050565b6000602082019050611e066000830184611de2565b92915050565b600081519050919050565b600082825260208201905092915050565b6000819050602082019050919050565b611e4181611d6b565b82525050565b600081519050919050565b600082825260208201905092915050565b60005b83811015611e81578082015181840152602081019050611e66565b83811115611e90576000848401525b50505050565b6000601f19601f8301169050919050565b6000611eb282611e47565b611ebc8185611e52565b9350611ecc818560208601611e63565b611ed581611e96565b840191505092915050565b6000819050919050565b611ef381611ee0565b82525050565b600060e083016000830151611f116000860182611e38565b506020830151611f246020860182611e38565b5060408301518482036040860152611f3c8282611ea7565b9150506060830151611f516060860182611e38565b506080830151611f646080860182611eea565b5060a0830151611f7760a0860182611eea565b5060c0830151611f8a60c0860182611eea565b508091505092915050565b6000611fa18383611ef9565b905092915050565b6000602082019050919050565b6000611fc182611e0c565b611fcb8185611e17565b935083602082028501611fdd85611e28565b8060005b858110156120195784840389528151611ffa8582611f95565b945061200583611fa9565b925060208a01995050600181019050611fe1565b50829750879550505050505092915050565b600060208201905081810360008301526120458184611fb6565b905092915050565b600080fd5b600080fd5b7f4e487b7100000000000000000000000000000000000000000000000000000000600052604160045260246000fd5b61208f82611e96565b810181811067ffffffffffffffff821117156120ae576120ad612057565b5b80604052505050565b60006120c1611d37565b90506120cd8282612086565b919050565b600067ffffffffffffffff8211156120ed576120ec612057565b5b6120f682611e96565b9050602081019050919050565b82818337600083830152505050565b6000612125612120846120d2565b6120b7565b90508281526020810184848401111561214157612140612052565b5b61214c848285612103565b509392505050565b600082601f8301126121695761216861204d565b5b8135612179848260208601612112565b91505092915050565b60006020828403121561219857612197611d41565b5b600082013567ffffffffffffffff8111156121b6576121b5611d46565b5b6121c284828501612154565b91505092915050565b6121d481611d6b565b82525050565b60006020820190506121ef60008301846121cb565b92915050565b6000806040838503121561220c5761220b611d41565b5b600061221a85828601611d94565b925050602061222b85828601611d94565b9150509250929050565b6000806040838503121561224c5761224b611d41565b5b600083013567ffffffffffffffff81111561226a57612269611d46565b5b61227685828601612154565b925050602061228785828601611d94565b9150509250929050565b600082825260208201905092915050565b7f4f776e61626c653a2063616c6c6572206973206e6f7420746865206f776e6572600082015250565b60006122d8602083612291565b91506122e3826122a2565b602082019050919050565b60006020820190508181036000830152612307816122cb565b9050919050565b7f4e487b7100000000000000000000000000000000000000000000000000000000600052603260045260246000fd5b7f4e487b7100000000000000000000000000000000000000000000000000000000600052601160045260246000fd5b600061237782611ee0565b91507fffffffffffffffffffffffffffffffffffffffffffffffffffffffffffffffff82036123a9576123a861233d565b5b600182019050919050565b7f4e487b7100000000000000000000000000000000000000000000000000000000600052602260045260246000fd5b600060028204905060018216806123fb57607f821691505b60208210810361240e5761240d6123b4565b5b50919050565b7f56616c756520697320696e76616c696400000000000000000000000000000000600082015250565b600061244a601083612291565b915061245582612414565b602082019050919050565b600060208201905081810360008301526124798161243d565b9050919050565b7f74782e6f726967696e206973206e6f74206d73672e73656e6465720000000000600082015250565b60006124b6601b83612291565b91506124c182612480565b602082019050919050565b600060208201905081810360008301526124e5816124a9565b9050919050565b60006124f782611e47565b6125018185612291565b9350612511818560208601611e63565b61251a81611e96565b840191505092915050565b6000602082019050818103600083015261253f81846124ec565b905092915050565b7f596f7520617265206e6f7420746865206f776e6572206f66204e465400000000600082015250565b600061257d601c83612291565b915061258882612547565b602082019050919050565b600060208201905081810360008301526125ac81612570565b9050919050565b7f5265717565737420697320616c72656164792063616e63656c6564206f72206360008201527f6c6f736564000000000000000000000000000000000000000000000000000000602082015250565b600061260f602583612291565b915061261a826125b3565b604082019050919050565b6000602082019050818103600083015261263e81612602565b9050919050565b7f43656c65627269747920646f6573206e6f742065787369740000000000000000600082015250565b600061267b601883612291565b915061268682612645565b602082019050919050565b600060208201905081810360008301526126aa8161266e565b9050919050565b7f4f776e61626c653a206e6577206f776e657220697320746865207a65726f206160008201527f6464726573730000000000000000000000000000000000000000000000000000602082015250565b600061270d602683612291565b9150612718826126b1565b604082019050919050565b6000602082019050818103600083015261273c81612700565b9050919050565b7f416464726573733a20696e73756666696369656e742062616c616e6365000000600082015250565b6000612779601d83612291565b915061278482612743565b602082019050919050565b600060208201905081810360008301526127a88161276c565b9050919050565b600081905092915050565b50565b60006127ca6000836127af565b91506127d5826127ba565b600082019050919050565b60006127eb826127bd565b9150819050919050565b7f416464726573733a20756e61626c6520746f2073656e642076616c75652c207260008201527f6563697069656e74206d61792068617665207265766572746564000000000000602082015250565b6000612851603a83612291565b915061285c826127f5565b604082019050919050565b6000602082019050818103600083015261288081612844565b9050919050565b600060408201905081810360008301526128a181856124ec565b90506128b060208301846121cb565b939250505056fea264697066735822122096901ff8f757652d78d43d1eea258696a135b932267df15eb76459996520cb8564736f6c634300080d0033",
  "immutableReferences": {},
  "source": "//SPDX-License-Identifier: MIT\r\n\r\npragma solidity ^0.8.0;\r\n\r\nimport \"@openzeppelin/contracts/utils/structs/EnumerableSet.sol\";\r\nimport \"@openzeppelin/contracts/access/Ownable.sol\";\r\nimport \"@openzeppelin/contracts/utils/Create2.sol\";\r\nimport \"@openzeppelin/contracts/utils/Address.sol\";\r\nimport \"@openzeppelin/contracts/proxy/utils/Initializable.sol\";\r\n\r\ncontract DeployedNFT {\r\n    struct TokenInfo {\r\n        uint256 tokenId;\r\n        address owner;\r\n        address creator;\r\n        address tokenContractAddress;\r\n    }\r\n\r\n    function mintNFT(string memory _tokenURI, address creator) public {}\r\n\r\n    function ownerList() public view returns (TokenInfo[] memory) {}\r\n}\r\n\r\ncontract Connection is Ownable {\r\n    using EnumerableSet for EnumerableSet.AddressSet;\r\n    using EnumerableSet for EnumerableSet.Bytes32Set;\r\n    using Address for address;\r\n\r\n    struct TokenInfo {\r\n        uint256 tokenId;\r\n        address owner;\r\n        address creator;\r\n        address tokenContractAddress;\r\n    }\r\n\r\n    struct NFT {\r\n        address celebrity;\r\n        address token;\r\n        EnumerableSet.AddressSet creators;\r\n        uint256 supplied;\r\n    }\r\n\r\n    struct Pool {\r\n        address celebrity;\r\n        address creator;\r\n        string tokenURI;\r\n        address _hash;\r\n        uint256 open;\r\n        uint256 close;\r\n        uint256 cancel;\r\n    }\r\n\r\n    // Declare a set state variable\r\n    EnumerableSet.AddressSet private _celebrities;\r\n    EnumerableSet.AddressSet private _creators;\r\n    EnumerableSet.AddressSet private _hashes;\r\n\r\n    mapping(address => NFT) private _NFTInfo;\r\n    mapping(address => Pool) private _pools;\r\n\r\n    constructor() Ownable() {}\r\n\r\n    function register(address celebrity, address token) public onlyOwner {\r\n        _NFTInfo[celebrity].celebrity = celebrity;\r\n        _NFTInfo[celebrity].token = token;\r\n        _NFTInfo[celebrity].supplied = 0;\r\n        _celebrities.add(celebrity);\r\n    }\r\n\r\n    modifier onlyCelebrity() {\r\n        require(_celebrities.contains(msg.sender));\r\n        _;\r\n    }\r\n\r\n    function isCelebrity(address celebrity) public view returns (bool) {\r\n        return _NFTInfo[celebrity].celebrity == celebrity;\r\n    }\r\n\r\n    function requestNFT(string memory tokenURI, address celebrity)\r\n        public\r\n        payable\r\n    {\r\n        require(\r\n            _NFTInfo[celebrity].celebrity == celebrity,\r\n            \"Celebrity does not exsit\"\r\n        );\r\n        require(msg.value == 1 ether, \"Value is invalid\");\r\n        require(tx.origin == msg.sender, \"tx.origin is not msg.sender\");\r\n        createPool(celebrity, tokenURI);\r\n    }\r\n\r\n    function createPool(address celebrity, string memory tokenURI) internal {\r\n        address _hash = address(\r\n            uint160(uint256(keccak256(abi.encode(tokenURI))))\r\n        );\r\n        Pool memory pool;\r\n        pool.celebrity = celebrity;\r\n        pool.creator = msg.sender;\r\n        pool.tokenURI = tokenURI;\r\n        pool._hash = _hash;\r\n        pool.open = block.timestamp;\r\n        _pools[_hash] = pool;\r\n        _hashes.add(_hash);\r\n    }\r\n\r\n    function approveNFT(string memory tokenURI) public payable onlyCelebrity {\r\n        require(msg.value == 1 ether, \"Value is invalid\");\r\n        require(tx.origin == msg.sender, \"tx.origin is not msg.sender\");\r\n\r\n        address _hash = address(\r\n            uint160(uint256(keccak256(abi.encode(tokenURI))))\r\n        );\r\n        require(\r\n            _pools[_hash].celebrity == msg.sender,\r\n            \"You are not the owner of NFT\"\r\n        );\r\n        require(\r\n            _pools[_hash].open != 0,\r\n            \"Request is already canceled or closed\"\r\n        );\r\n        require(\r\n            _pools[_hash].close == 0,\r\n            \"Request is already canceled or closed\"\r\n        );\r\n        require(\r\n            _pools[_hash].cancel == 0,\r\n            \"Request is already canceled or closed\"\r\n        );\r\n\r\n        closePool(_hash, tokenURI);\r\n    }\r\n\r\n    function closePool(address _hash, string memory tokenURI) internal {\r\n        Pool memory pool = _pools[_hash];\r\n\r\n        address token = _NFTInfo[pool.celebrity].token;\r\n        address creator = _pools[_hash].creator;\r\n\r\n        DeployedNFT deployedNFT = DeployedNFT(token);\r\n        deployedNFT.mintNFT(tokenURI, creator);\r\n\r\n        _pools[_hash].close = block.timestamp;\r\n        _NFTInfo[pool.celebrity].creators.add(creator);\r\n    }\r\n\r\n    function withdraw() public onlyOwner {\r\n        address _owner = owner();\r\n        Address.sendValue(payable(_owner), address(this).balance);\r\n    }\r\n\r\n    function poolHistory() public view returns (Pool[] memory) {\r\n        address[] memory hashes = _hashes.values();\r\n        uint256 counter = 0;\r\n        uint256 count = 0;\r\n        for (uint256 i = 0; i < hashes.length; i++) {\r\n            if (\r\n                _pools[hashes[i]].creator == msg.sender ||\r\n                _pools[hashes[i]].celebrity == msg.sender\r\n            ) {\r\n                count++;\r\n            }\r\n        }\r\n        Pool[] memory pools = new Pool[](count);\r\n        for (uint256 i = 0; i < hashes.length; i++) {\r\n            if (\r\n                _pools[hashes[i]].creator == msg.sender ||\r\n                _pools[hashes[i]].celebrity == msg.sender\r\n            ) {\r\n                pools[counter] = _pools[hashes[i]];\r\n                counter++;\r\n            }\r\n        }\r\n        return pools;\r\n    }\r\n\r\n    function getAllNFTs() public view{\r\n        address[] memory celebrities = _celebrities.values();\r\n        TokenInfo[][] memory tokenInfos = new TokenInfo[][](celebrities.length);\r\n        for (uint256 i = 0; i < celebrities.length; i++) {\r\n            DeployedNFT deployedNFT = DeployedNFT(_NFTInfo[celebrities[i]].token);\r\n        }\r\n    }\r\n\r\n    fallback() external {}\r\n\r\n    receive() external payable {}\r\n}\r\n",
  "sourcePath": "C:\\Users\\dlscj\\VSCode\\klaytn-vue\\contracts\\Connection.sol",
  "compiler": {
    "name": "solc",
    "version": "0.8.13+commit.abaa5c0e.Emscripten.clang"
  },
  "schemaVersion": "3.4.7",
  "updatedAt": "2022-05-04T06:59:53.621Z",
  "devdoc": {
    "kind": "dev",
    "methods": {
      "owner()": {
        "details": "Returns the address of the current owner."
      },
      "renounceOwnership()": {
        "details": "Leaves the contract without owner. It will not be possible to call `onlyOwner` functions anymore. Can only be called by the current owner. NOTE: Renouncing ownership will leave the contract without an owner, thereby removing any functionality that is only available to the owner."
      },
      "transferOwnership(address)": {
        "details": "Transfers ownership of the contract to a new account (`newOwner`). Can only be called by the current owner."
      }
    },
    "version": 1
  },
  "userdoc": {
    "kind": "user",
    "methods": {},
    "version": 1
  }
}