{
  "contractName": "Connection",
  "abi": [
    {
      "inputs": [
        {
          "internalType": "string",
          "name": "initialTokenURI",
          "type": "string"
        },
        {
          "internalType": "uint256",
          "name": "mintingFee",
          "type": "uint256"
        }
      ],
      "stateMutability": "nonpayable",
      "type": "constructor"
    },
    {
      "anonymous": false,
      "inputs": [
        {
          "indexed": false,
          "internalType": "address",
          "name": "celebrity",
          "type": "address"
        },
        {
          "indexed": false,
          "internalType": "address",
          "name": "creator",
          "type": "address"
        },
        {
          "indexed": false,
          "internalType": "string",
          "name": "tokenURI",
          "type": "string"
        },
        {
          "indexed": false,
          "internalType": "address",
          "name": "contractAddress",
          "type": "address"
        },
        {
          "indexed": false,
          "internalType": "uint256",
          "name": "tokenId",
          "type": "uint256"
        },
        {
          "indexed": false,
          "internalType": "uint256",
          "name": "time",
          "type": "uint256"
        }
      ],
      "name": "Mint",
      "type": "event"
    },
    {
      "anonymous": false,
      "inputs": [
        {
          "indexed": true,
          "internalType": "address",
          "name": "previousOwner",
          "type": "address"
        },
        {
          "indexed": true,
          "internalType": "address",
          "name": "newOwner",
          "type": "address"
        }
      ],
      "name": "OwnershipTransferred",
      "type": "event"
    },
    {
      "inputs": [],
      "name": "owner",
      "outputs": [
        {
          "internalType": "address",
          "name": "",
          "type": "address"
        }
      ],
      "stateMutability": "view",
      "type": "function",
      "constant": true
    },
    {
      "inputs": [],
      "name": "renounceOwnership",
      "outputs": [],
      "stateMutability": "nonpayable",
      "type": "function"
    },
    {
      "inputs": [
        {
          "internalType": "address",
          "name": "newOwner",
          "type": "address"
        }
      ],
      "name": "transferOwnership",
      "outputs": [],
      "stateMutability": "nonpayable",
      "type": "function"
    },
    {
      "inputs": [
        {
          "internalType": "string",
          "name": "initialTokenURI",
          "type": "string"
        }
      ],
      "name": "setInitialTokenURI",
      "outputs": [],
      "stateMutability": "nonpayable",
      "type": "function"
    },
    {
      "inputs": [
        {
          "internalType": "address",
          "name": "celebrity",
          "type": "address"
        },
        {
          "internalType": "address",
          "name": "contractAddress",
          "type": "address"
        }
      ],
      "name": "register",
      "outputs": [],
      "stateMutability": "nonpayable",
      "type": "function"
    },
    {
      "inputs": [
        {
          "internalType": "address",
          "name": "celebrity",
          "type": "address"
        }
      ],
      "name": "isCelebrity",
      "outputs": [
        {
          "internalType": "bool",
          "name": "",
          "type": "bool"
        }
      ],
      "stateMutability": "view",
      "type": "function",
      "constant": true
    },
    {
      "inputs": [
        {
          "internalType": "string",
          "name": "tokenURI",
          "type": "string"
        },
        {
          "internalType": "address",
          "name": "celebrity",
          "type": "address"
        }
      ],
      "name": "requestNFT",
      "outputs": [],
      "stateMutability": "payable",
      "type": "function",
      "payable": true
    },
    {
      "inputs": [
        {
          "internalType": "string",
          "name": "tokenURI",
          "type": "string"
        }
      ],
      "name": "approveNFT",
      "outputs": [],
      "stateMutability": "payable",
      "type": "function",
      "payable": true
    },
    {
      "inputs": [
        {
          "internalType": "string",
          "name": "tokenURI",
          "type": "string"
        }
      ],
      "name": "rejectNFT",
      "outputs": [],
      "stateMutability": "nonpayable",
      "type": "function"
    },
    {
      "inputs": [
        {
          "internalType": "string",
          "name": "tokenURI",
          "type": "string"
        }
      ],
      "name": "cancelNFT",
      "outputs": [],
      "stateMutability": "nonpayable",
      "type": "function"
    },
    {
      "inputs": [],
      "name": "withdraw",
      "outputs": [],
      "stateMutability": "nonpayable",
      "type": "function"
    },
    {
      "inputs": [],
      "name": "poolHistory",
      "outputs": [
        {
          "components": [
            {
              "internalType": "address",
              "name": "celebrity",
              "type": "address"
            },
            {
              "internalType": "address",
              "name": "creator",
              "type": "address"
            },
            {
              "internalType": "string",
              "name": "tokenURI",
              "type": "string"
            },
            {
              "internalType": "address",
              "name": "_hash",
              "type": "address"
            },
            {
              "internalType": "uint256",
              "name": "open",
              "type": "uint256"
            },
            {
              "internalType": "uint256",
              "name": "close",
              "type": "uint256"
            },
            {
              "internalType": "uint256",
              "name": "cancel",
              "type": "uint256"
            },
            {
              "internalType": "uint256",
              "name": "reject",
              "type": "uint256"
            },
            {
              "internalType": "uint256",
              "name": "depositedValue",
              "type": "uint256"
            }
          ],
          "internalType": "struct Connection.Pool[]",
          "name": "",
          "type": "tuple[]"
        }
      ],
      "stateMutability": "view",
      "type": "function",
      "constant": true
    },
    {
      "inputs": [],
      "name": "getAllNFTs",
      "outputs": [
        {
          "components": [
            {
              "internalType": "uint256",
              "name": "tokenId",
              "type": "uint256"
            },
            {
              "internalType": "address",
              "name": "owner",
              "type": "address"
            },
            {
              "internalType": "address",
              "name": "creator",
              "type": "address"
            },
            {
              "internalType": "address",
              "name": "tokenContractAddress",
              "type": "address"
            },
            {
              "internalType": "address",
              "name": "contractOwner",
              "type": "address"
            },
            {
              "internalType": "string",
              "name": "tokenURI",
              "type": "string"
            },
            {
              "internalType": "uint256",
              "name": "time",
              "type": "uint256"
            }
          ],
          "internalType": "struct Connection.TokenInfo[][]",
          "name": "",
          "type": "tuple[][]"
        }
      ],
      "stateMutability": "view",
      "type": "function",
      "constant": true
    },
    {
      "inputs": [],
      "name": "getOwnedNFTs",
      "outputs": [
        {
          "components": [
            {
              "internalType": "uint256",
              "name": "tokenId",
              "type": "uint256"
            },
            {
              "internalType": "address",
              "name": "owner",
              "type": "address"
            },
            {
              "internalType": "address",
              "name": "creator",
              "type": "address"
            },
            {
              "internalType": "address",
              "name": "tokenContractAddress",
              "type": "address"
            },
            {
              "internalType": "address",
              "name": "contractOwner",
              "type": "address"
            },
            {
              "internalType": "string",
              "name": "tokenURI",
              "type": "string"
            },
            {
              "internalType": "uint256",
              "name": "time",
              "type": "uint256"
            }
          ],
          "internalType": "struct Connection.TokenInfo[][]",
          "name": "",
          "type": "tuple[][]"
        }
      ],
      "stateMutability": "view",
      "type": "function",
      "constant": true
    },
    {
      "inputs": [
        {
          "internalType": "address",
          "name": "contractAddress",
          "type": "address"
        }
      ],
      "name": "getNFTByContractAddress",
      "outputs": [
        {
          "components": [
            {
              "internalType": "uint256",
              "name": "tokenId",
              "type": "uint256"
            },
            {
              "internalType": "address",
              "name": "owner",
              "type": "address"
            },
            {
              "internalType": "address",
              "name": "creator",
              "type": "address"
            },
            {
              "internalType": "address",
              "name": "tokenContractAddress",
              "type": "address"
            },
            {
              "internalType": "address",
              "name": "contractOwner",
              "type": "address"
            },
            {
              "internalType": "string",
              "name": "tokenURI",
              "type": "string"
            },
            {
              "internalType": "uint256",
              "name": "time",
              "type": "uint256"
            }
          ],
          "internalType": "struct Connection.TokenInfo[]",
          "name": "",
          "type": "tuple[]"
        }
      ],
      "stateMutability": "view",
      "type": "function",
      "constant": true
    },
    {
      "inputs": [],
      "name": "getCelebrities",
      "outputs": [
        {
          "internalType": "address[]",
          "name": "",
          "type": "address[]"
        }
      ],
      "stateMutability": "view",
      "type": "function",
      "constant": true
    }
  ],
  "bytecode": "0x60806040523480156200001157600080fd5b5060405162005866380380620058668339818101604052810190620000379190620003db565b620000576200004b6200008760201b60201c565b6200008f60201b60201c565b600060098190555081600a90805190602001906200007792919062000153565b5080600b819055505050620004a5565b600033905090565b60008060009054906101000a900473ffffffffffffffffffffffffffffffffffffffff169050816000806101000a81548173ffffffffffffffffffffffffffffffffffffffff021916908373ffffffffffffffffffffffffffffffffffffffff1602179055508173ffffffffffffffffffffffffffffffffffffffff168173ffffffffffffffffffffffffffffffffffffffff167f8be0079c531659141344cd1fd0a4f28419497f9722a3daafe3b4186f6b6457e060405160405180910390a35050565b828054620001619062000470565b90600052602060002090601f016020900481019282620001855760008555620001d1565b82601f10620001a057805160ff1916838001178555620001d1565b82800160010185558215620001d1579182015b82811115620001d0578251825591602001919060010190620001b3565b5b509050620001e09190620001e4565b5090565b5b80821115620001ff576000816000905550600101620001e5565b5090565b6000604051905090565b600080fd5b600080fd5b600080fd5b600080fd5b6000601f19601f8301169050919050565b7f4e487b7100000000000000000000000000000000000000000000000000000000600052604160045260246000fd5b6200026c8262000221565b810181811067ffffffffffffffff821117156200028e576200028d62000232565b5b80604052505050565b6000620002a362000203565b9050620002b1828262000261565b919050565b600067ffffffffffffffff821115620002d457620002d362000232565b5b620002df8262000221565b9050602081019050919050565b60005b838110156200030c578082015181840152602081019050620002ef565b838111156200031c576000848401525b50505050565b6000620003396200033384620002b6565b62000297565b9050828152602081018484840111156200035857620003576200021c565b5b62000365848285620002ec565b509392505050565b600082601f83011262000385576200038462000217565b5b81516200039784826020860162000322565b91505092915050565b6000819050919050565b620003b581620003a0565b8114620003c157600080fd5b50565b600081519050620003d581620003aa565b92915050565b60008060408385031215620003f557620003f46200020d565b5b600083015167ffffffffffffffff81111562000416576200041562000212565b5b62000424858286016200036d565b92505060206200043785828601620003c4565b9150509250929050565b7f4e487b7100000000000000000000000000000000000000000000000000000000600052602260045260246000fd5b600060028204905060018216806200048957607f821691505b6020821081036200049f576200049e62000441565b5b50919050565b6153b180620004b56000396000f3fe6080604052600436106100f35760003560e01c8063715018a61161008a578063c8f58d4a11610059578063c8f58d4a146102e3578063dda946ba1461030c578063e0391b0914610328578063f2fde38b14610353576100f3565b8063715018a61461024d5780638da5cb5b14610264578063aa6773541461028f578063ad7e62b6146102b8576100f3565b806348633541116100c6578063486335411461019e57806349d8e15f146101c95780634c0eb7d9146101e55780635396d3f314610210576100f3565b8063010bd940146100f85780632a821a941461012157806337a964261461014a5780633ccfd60b14610187575b600080fd5b34801561010457600080fd5b5061011f600480360381019061011a9190614177565b61037c565b005b34801561012d57600080fd5b5061014860048036038101906101439190614177565b610726565b005b34801561015657600080fd5b50610171600480360381019061016c919061421e565b6107bc565b60405161017e9190614266565b60405180910390f35b34801561019357600080fd5b5061019c610856565b005b3480156101aa57600080fd5b506101b36108f5565b6040516101c091906144b8565b60405180910390f35b6101e360048036038101906101de9190614177565b610ed5565b005b3480156101f157600080fd5b506101fa6112ca565b60405161020791906146fa565b60405180910390f35b34801561021c57600080fd5b506102376004803603810190610232919061421e565b611b37565b60405161024491906147a2565b60405180910390f35b34801561025957600080fd5b50610262611fbd565b005b34801561027057600080fd5b50610279612045565b60405161028691906147d3565b60405180910390f35b34801561029b57600080fd5b506102b660048036038101906102b191906147ee565b61206e565b005b3480156102c457600080fd5b506102cd61224d565b6040516102da91906148dd565b60405180910390f35b3480156102ef57600080fd5b5061030a60048036038101906103059190614177565b612264565b005b610326600480360381019061032191906148ff565b6125f1565b005b34801561033457600080fd5b5061033d612787565b60405161034a91906146fa565b60405180910390f35b34801561035f57600080fd5b5061037a6004803603810190610375919061421e565b612e15565b005b610390336001612f0c90919063ffffffff16565b61039957600080fd5b3373ffffffffffffffffffffffffffffffffffffffff163273ffffffffffffffffffffffffffffffffffffffff1614610407576040517f08c379a00000000000000000000000000000000000000000000000000000000081526004016103fe906149b8565b60405180910390fd5b60008160405160200161041a9190614a11565b6040516020818303038152906040528051906020012060001c90503373ffffffffffffffffffffffffffffffffffffffff16600860008373ffffffffffffffffffffffffffffffffffffffff1673ffffffffffffffffffffffffffffffffffffffff16815260200190815260200160002060000160009054906101000a900473ffffffffffffffffffffffffffffffffffffffff1673ffffffffffffffffffffffffffffffffffffffff1614610505576040517f08c379a00000000000000000000000000000000000000000000000000000000081526004016104fc90614a7f565b60405180910390fd5b6000600860008373ffffffffffffffffffffffffffffffffffffffff1673ffffffffffffffffffffffffffffffffffffffff168152602001908152602001600020600401540361058a576040517f08c379a000000000000000000000000000000000000000000000000000000000815260040161058190614aeb565b60405180910390fd5b6000600860008373ffffffffffffffffffffffffffffffffffffffff1673ffffffffffffffffffffffffffffffffffffffff168152602001908152602001600020600501541461060f576040517f08c379a000000000000000000000000000000000000000000000000000000000815260040161060690614b57565b60405180910390fd5b6000600860008373ffffffffffffffffffffffffffffffffffffffff1673ffffffffffffffffffffffffffffffffffffffff1681526020019081526020016000206006015414610694576040517f08c379a000000000000000000000000000000000000000000000000000000000815260040161068b90614bc3565b60405180910390fd5b6000600860008373ffffffffffffffffffffffffffffffffffffffff1673ffffffffffffffffffffffffffffffffffffffff1681526020019081526020016000206007015414610719576040517f08c379a000000000000000000000000000000000000000000000000000000000815260040161071090614c2f565b60405180910390fd5b61072281612f3c565b5050565b61072e613082565b73ffffffffffffffffffffffffffffffffffffffff1661074c612045565b73ffffffffffffffffffffffffffffffffffffffff16146107a2576040517f08c379a000000000000000000000000000000000000000000000000000000000815260040161079990614c9b565b60405180910390fd5b80600a90805190602001906107b8929190613e57565b5050565b60008173ffffffffffffffffffffffffffffffffffffffff16600760008473ffffffffffffffffffffffffffffffffffffffff1673ffffffffffffffffffffffffffffffffffffffff16815260200190815260200160002060000160009054906101000a900473ffffffffffffffffffffffffffffffffffffffff1673ffffffffffffffffffffffffffffffffffffffff16149050919050565b61085e613082565b73ffffffffffffffffffffffffffffffffffffffff1661087c612045565b73ffffffffffffffffffffffffffffffffffffffff16146108d2576040517f08c379a00000000000000000000000000000000000000000000000000000000081526004016108c990614c9b565b60405180910390fd5b60006108dc612045565b90506108ea8160095461308a565b600060098190555050565b60606000610903600561317e565b905060008060005b8351811015610a98573373ffffffffffffffffffffffffffffffffffffffff166008600086848151811061094257610941614cbb565b5b602002602001015173ffffffffffffffffffffffffffffffffffffffff1673ffffffffffffffffffffffffffffffffffffffff16815260200190815260200160002060010160009054906101000a900473ffffffffffffffffffffffffffffffffffffffff1673ffffffffffffffffffffffffffffffffffffffff161480610a7157503373ffffffffffffffffffffffffffffffffffffffff16600860008684815181106109f3576109f2614cbb565b5b602002602001015173ffffffffffffffffffffffffffffffffffffffff1673ffffffffffffffffffffffffffffffffffffffff16815260200190815260200160002060000160009054906101000a900473ffffffffffffffffffffffffffffffffffffffff1673ffffffffffffffffffffffffffffffffffffffff16145b15610a85578180610a8190614d19565b9250505b8080610a9090614d19565b91505061090b565b5060008167ffffffffffffffff811115610ab557610ab461404c565b5b604051908082528060200260200182016040528015610aee57816020015b610adb613edd565b815260200190600190039081610ad35790505b50905060005b8451811015610eca573373ffffffffffffffffffffffffffffffffffffffff1660086000878481518110610b2b57610b2a614cbb565b5b602002602001015173ffffffffffffffffffffffffffffffffffffffff1673ffffffffffffffffffffffffffffffffffffffff16815260200190815260200160002060010160009054906101000a900473ffffffffffffffffffffffffffffffffffffffff1673ffffffffffffffffffffffffffffffffffffffff161480610c5a57503373ffffffffffffffffffffffffffffffffffffffff1660086000878481518110610bdc57610bdb614cbb565b5b602002602001015173ffffffffffffffffffffffffffffffffffffffff1673ffffffffffffffffffffffffffffffffffffffff16815260200190815260200160002060000160009054906101000a900473ffffffffffffffffffffffffffffffffffffffff1673ffffffffffffffffffffffffffffffffffffffff16145b15610eb75760086000868381518110610c7657610c75614cbb565b5b602002602001015173ffffffffffffffffffffffffffffffffffffffff1673ffffffffffffffffffffffffffffffffffffffff168152602001908152602001600020604051806101200160405290816000820160009054906101000a900473ffffffffffffffffffffffffffffffffffffffff1673ffffffffffffffffffffffffffffffffffffffff1673ffffffffffffffffffffffffffffffffffffffff1681526020016001820160009054906101000a900473ffffffffffffffffffffffffffffffffffffffff1673ffffffffffffffffffffffffffffffffffffffff1673ffffffffffffffffffffffffffffffffffffffff168152602001600282018054610d8090614d90565b80601f0160208091040260200160405190810160405280929190818152602001828054610dac90614d90565b8015610df95780601f10610dce57610100808354040283529160200191610df9565b820191906000526020600020905b815481529060010190602001808311610ddc57829003601f168201915b505050505081526020016003820160009054906101000a900473ffffffffffffffffffffffffffffffffffffffff1673ffffffffffffffffffffffffffffffffffffffff1673ffffffffffffffffffffffffffffffffffffffff16815260200160048201548152602001600582015481526020016006820154815260200160078201548152602001600882015481525050828581518110610e9d57610e9c614cbb565b5b60200260200101819052508380610eb390614d19565b9450505b8080610ec290614d19565b915050610af4565b508094505050505090565b610ee9336001612f0c90919063ffffffff16565b610ef257600080fd5b670de0b6b3a76400003414610f3c576040517f08c379a0000000000000000000000000000000000000000000000000000000008152600401610f3390614e0d565b60405180910390fd5b3373ffffffffffffffffffffffffffffffffffffffff163273ffffffffffffffffffffffffffffffffffffffff1614610faa576040517f08c379a0000000000000000000000000000000000000000000000000000000008152600401610fa1906149b8565b60405180910390fd5b600081604051602001610fbd9190614a11565b6040516020818303038152906040528051906020012060001c90503373ffffffffffffffffffffffffffffffffffffffff16600860008373ffffffffffffffffffffffffffffffffffffffff1673ffffffffffffffffffffffffffffffffffffffff16815260200190815260200160002060000160009054906101000a900473ffffffffffffffffffffffffffffffffffffffff1673ffffffffffffffffffffffffffffffffffffffff16146110a8576040517f08c379a000000000000000000000000000000000000000000000000000000000815260040161109f90614a7f565b60405180910390fd5b6000600860008373ffffffffffffffffffffffffffffffffffffffff1673ffffffffffffffffffffffffffffffffffffffff168152602001908152602001600020600401540361112d576040517f08c379a000000000000000000000000000000000000000000000000000000000815260040161112490614aeb565b60405180910390fd5b6000600860008373ffffffffffffffffffffffffffffffffffffffff1673ffffffffffffffffffffffffffffffffffffffff16815260200190815260200160002060050154146111b2576040517f08c379a00000000000000000000000000000000000000000000000000000000081526004016111a990614b57565b60405180910390fd5b6000600860008373ffffffffffffffffffffffffffffffffffffffff1673ffffffffffffffffffffffffffffffffffffffff1681526020019081526020016000206006015414611237576040517f08c379a000000000000000000000000000000000000000000000000000000000815260040161122e90614bc3565b60405180910390fd5b6000600860008373ffffffffffffffffffffffffffffffffffffffff1673ffffffffffffffffffffffffffffffffffffffff16815260200190815260200160002060070154146112bc576040517f08c379a00000000000000000000000000000000000000000000000000000000081526004016112b390614c2f565b60405180910390fd5b6112c6818361319f565b5050565b606060006112d8600161317e565b90506000815167ffffffffffffffff8111156112f7576112f661404c565b5b60405190808252806020026020018201604052801561132a57816020015b60608152602001906001900390816113155790505b50905060005b8251811015611b2e5760006007600085848151811061135257611351614cbb565b5b602002602001015173ffffffffffffffffffffffffffffffffffffffff1673ffffffffffffffffffffffffffffffffffffffff16815260200190815260200160002060010160009054906101000a900473ffffffffffffffffffffffffffffffffffffffff1690506000805b600760008786815181106113d5576113d4614cbb565b5b602002602001015173ffffffffffffffffffffffffffffffffffffffff1673ffffffffffffffffffffffffffffffffffffffff168152602001908152602001600020600401548110156114fc573373ffffffffffffffffffffffffffffffffffffffff168373ffffffffffffffffffffffffffffffffffffffff16636352211e6001846114629190614e2d565b6040518263ffffffff1660e01b815260040161147e9190614e92565b602060405180830381865afa15801561149b573d6000803e3d6000fd5b505050506040513d601f19601f820116820180604052508101906114bf9190614ec2565b73ffffffffffffffffffffffffffffffffffffffff16036114e95781806114e590614d19565b9250505b80806114f490614d19565b9150506113be565b506000810361150c575050611b1b565b6000808267ffffffffffffffff8111156115295761152861404c565b5b60405190808252806020026020018201604052801561156257816020015b61154f613f6b565b8152602001906001900390816115475790505b50905060005b6007600089888151811061157f5761157e614cbb565b5b602002602001015173ffffffffffffffffffffffffffffffffffffffff1673ffffffffffffffffffffffffffffffffffffffff16815260200190815260200160002060040154811015611af6573373ffffffffffffffffffffffffffffffffffffffff168573ffffffffffffffffffffffffffffffffffffffff16636352211e60018461160c9190614e2d565b6040518263ffffffff1660e01b81526004016116289190614e92565b602060405180830381865afa158015611645573d6000803e3d6000fd5b505050506040513d601f19601f820116820180604052508101906116699190614ec2565b73ffffffffffffffffffffffffffffffffffffffff1603611ae3576001836116919190614e2d565b8284815181106116a4576116a3614cbb565b5b602002602001015160000181815250508473ffffffffffffffffffffffffffffffffffffffff16636352211e6001856116dd9190614e2d565b6040518263ffffffff1660e01b81526004016116f99190614e92565b602060405180830381865afa158015611716573d6000803e3d6000fd5b505050506040513d601f19601f8201168201806040525081019061173a9190614ec2565b82848151811061174d5761174c614cbb565b5b60200260200101516020019073ffffffffffffffffffffffffffffffffffffffff16908173ffffffffffffffffffffffffffffffffffffffff16815250508473ffffffffffffffffffffffffffffffffffffffff1663589a17436001856117b49190614e2d565b6040518263ffffffff1660e01b81526004016117d09190614e92565b602060405180830381865afa1580156117ed573d6000803e3d6000fd5b505050506040513d601f19601f820116820180604052508101906118119190614ec2565b82848151811061182457611823614cbb565b5b60200260200101516040019073ffffffffffffffffffffffffffffffffffffffff16908173ffffffffffffffffffffffffffffffffffffffff16815250508482848151811061187657611875614cbb565b5b60200260200101516060019073ffffffffffffffffffffffffffffffffffffffff16908173ffffffffffffffffffffffffffffffffffffffff16815250508473ffffffffffffffffffffffffffffffffffffffff16638da5cb5b6040518163ffffffff1660e01b8152600401602060405180830381865afa1580156118ff573d6000803e3d6000fd5b505050506040513d601f19601f820116820180604052508101906119239190614ec2565b82848151811061193657611935614cbb565b5b60200260200101516080019073ffffffffffffffffffffffffffffffffffffffff16908173ffffffffffffffffffffffffffffffffffffffff16815250508473ffffffffffffffffffffffffffffffffffffffff1663c87b56dd60018561199d9190614e2d565b6040518263ffffffff1660e01b81526004016119b99190614e92565b600060405180830381865afa1580156119d6573d6000803e3d6000fd5b505050506040513d6000823e3d601f19601f820116820180604052508101906119ff9190614f5f565b828481518110611a1257611a11614cbb565b5b602002602001015160a001819052508280611a2c90614d19565b9350506000828281518110611a4457611a43614cbb565b5b602002602001015160a00151604051602001611a609190614a11565b6040516020818303038152906040528051906020012060001c9050600860008273ffffffffffffffffffffffffffffffffffffffff1673ffffffffffffffffffffffffffffffffffffffff16815260200190815260200160002060050154838381518110611ad157611ad0614cbb565b5b602002602001015160c0018181525050505b8080611aee90614d19565b915050611568565b5080868681518110611b0b57611b0a614cbb565b5b6020026020010181905250505050505b8080611b2690614d19565b915050611330565b50809250505090565b60606000611b45600161317e565b905060008060005b8351811015611c99578573ffffffffffffffffffffffffffffffffffffffff1660076000868481518110611b8457611b83614cbb565b5b602002602001015173ffffffffffffffffffffffffffffffffffffffff1673ffffffffffffffffffffffffffffffffffffffff16815260200190815260200160002060010160009054906101000a900473ffffffffffffffffffffffffffffffffffffffff1673ffffffffffffffffffffffffffffffffffffffff1603611c8657838181518110611c1857611c17614cbb565b5b6020026020010151925060076000858381518110611c3957611c38614cbb565b5b602002602001015173ffffffffffffffffffffffffffffffffffffffff1673ffffffffffffffffffffffffffffffffffffffff168152602001908152602001600020600401549150611c99565b8080611c9190614d19565b915050611b4d565b5060008167ffffffffffffffff811115611cb657611cb561404c565b5b604051908082528060200260200182016040528015611cef57816020015b611cdc613f6b565b815260200190600190039081611cd45790505b5090506000600190505b828111611fb0576000879050611d0d613f6b565b85816080019073ffffffffffffffffffffffffffffffffffffffff16908173ffffffffffffffffffffffffffffffffffffffff16815250508173ffffffffffffffffffffffffffffffffffffffff1663589a1743846040518263ffffffff1660e01b8152600401611d7e9190614e92565b602060405180830381865afa158015611d9b573d6000803e3d6000fd5b505050506040513d601f19601f82011682018060405250810190611dbf9190614ec2565b816040019073ffffffffffffffffffffffffffffffffffffffff16908173ffffffffffffffffffffffffffffffffffffffff168152505088816060019073ffffffffffffffffffffffffffffffffffffffff16908173ffffffffffffffffffffffffffffffffffffffff1681525050828160000181815250508173ffffffffffffffffffffffffffffffffffffffff1663c87b56dd846040518263ffffffff1660e01b8152600401611e719190614e92565b600060405180830381865afa158015611e8e573d6000803e3d6000fd5b505050506040513d6000823e3d601f19601f82011682018060405250810190611eb79190614f5f565b8160a001819052508173ffffffffffffffffffffffffffffffffffffffff16636352211e846040518263ffffffff1660e01b8152600401611ef89190614e92565b602060405180830381865afa158015611f15573d6000803e3d6000fd5b505050506040513d601f19601f82011682018060405250810190611f399190614ec2565b816020019073ffffffffffffffffffffffffffffffffffffffff16908173ffffffffffffffffffffffffffffffffffffffff16815250508084600185611f7f9190614fa8565b81518110611f9057611f8f614cbb565b5b602002602001018190525050508080611fa890614d19565b915050611cf9565b5080945050505050919050565b611fc5613082565b73ffffffffffffffffffffffffffffffffffffffff16611fe3612045565b73ffffffffffffffffffffffffffffffffffffffff1614612039576040517f08c379a000000000000000000000000000000000000000000000000000000000815260040161203090614c9b565b60405180910390fd5b61204360006137de565b565b60008060009054906101000a900473ffffffffffffffffffffffffffffffffffffffff16905090565b612076613082565b73ffffffffffffffffffffffffffffffffffffffff16612094612045565b73ffffffffffffffffffffffffffffffffffffffff16146120ea576040517f08c379a00000000000000000000000000000000000000000000000000000000081526004016120e190614c9b565b60405180910390fd5b81600760008473ffffffffffffffffffffffffffffffffffffffff1673ffffffffffffffffffffffffffffffffffffffff16815260200190815260200160002060000160006101000a81548173ffffffffffffffffffffffffffffffffffffffff021916908373ffffffffffffffffffffffffffffffffffffffff16021790555080600760008473ffffffffffffffffffffffffffffffffffffffff1673ffffffffffffffffffffffffffffffffffffffff16815260200190815260200160002060010160006101000a81548173ffffffffffffffffffffffffffffffffffffffff021916908373ffffffffffffffffffffffffffffffffffffffff1602179055506000600760008473ffffffffffffffffffffffffffffffffffffffff1673ffffffffffffffffffffffffffffffffffffffff168152602001908152602001600020600401819055506122488260016138a290919063ffffffff16565b505050565b6060600061225b600161317e565b90508091505090565b3373ffffffffffffffffffffffffffffffffffffffff163273ffffffffffffffffffffffffffffffffffffffff16146122d2576040517f08c379a00000000000000000000000000000000000000000000000000000000081526004016122c9906149b8565b60405180910390fd5b6000816040516020016122e59190614a11565b6040516020818303038152906040528051906020012060001c90503373ffffffffffffffffffffffffffffffffffffffff16600860008373ffffffffffffffffffffffffffffffffffffffff1673ffffffffffffffffffffffffffffffffffffffff16815260200190815260200160002060010160009054906101000a900473ffffffffffffffffffffffffffffffffffffffff1673ffffffffffffffffffffffffffffffffffffffff16146123d0576040517f08c379a00000000000000000000000000000000000000000000000000000000081526004016123c790614a7f565b60405180910390fd5b6000600860008373ffffffffffffffffffffffffffffffffffffffff1673ffffffffffffffffffffffffffffffffffffffff1681526020019081526020016000206004015403612455576040517f08c379a000000000000000000000000000000000000000000000000000000000815260040161244c90614aeb565b60405180910390fd5b6000600860008373ffffffffffffffffffffffffffffffffffffffff1673ffffffffffffffffffffffffffffffffffffffff16815260200190815260200160002060050154146124da576040517f08c379a00000000000000000000000000000000000000000000000000000000081526004016124d190614b57565b60405180910390fd5b6000600860008373ffffffffffffffffffffffffffffffffffffffff1673ffffffffffffffffffffffffffffffffffffffff168152602001908152602001600020600601541461255f576040517f08c379a000000000000000000000000000000000000000000000000000000000815260040161255690614bc3565b60405180910390fd5b6000600860008373ffffffffffffffffffffffffffffffffffffffff1673ffffffffffffffffffffffffffffffffffffffff16815260200190815260200160002060070154146125e4576040517f08c379a00000000000000000000000000000000000000000000000000000000081526004016125db90614c2f565b60405180910390fd5b6125ed816138d2565b5050565b8073ffffffffffffffffffffffffffffffffffffffff16600760008373ffffffffffffffffffffffffffffffffffffffff1673ffffffffffffffffffffffffffffffffffffffff16815260200190815260200160002060000160009054906101000a900473ffffffffffffffffffffffffffffffffffffffff1673ffffffffffffffffffffffffffffffffffffffff16146126c1576040517f08c379a00000000000000000000000000000000000000000000000000000000081526004016126b890615028565b60405180910390fd5b670de0b6b3a7640000341461270b576040517f08c379a000000000000000000000000000000000000000000000000000000000815260040161270290614e0d565b60405180910390fd5b3373ffffffffffffffffffffffffffffffffffffffff163273ffffffffffffffffffffffffffffffffffffffff1614612779576040517f08c379a0000000000000000000000000000000000000000000000000000000008152600401612770906149b8565b60405180910390fd5b6127838183613a18565b5050565b60606000612795600161317e565b90506000815167ffffffffffffffff8111156127b4576127b361404c565b5b6040519080825280602002602001820160405280156127e757816020015b60608152602001906001900390816127d25790505b50905060005b8251811015612e0c5760006007600085848151811061280f5761280e614cbb565b5b602002602001015173ffffffffffffffffffffffffffffffffffffffff1673ffffffffffffffffffffffffffffffffffffffff16815260200190815260200160002060010160009054906101000a900473ffffffffffffffffffffffffffffffffffffffff1690506000600760008685815181106128905761288f614cbb565b5b602002602001015173ffffffffffffffffffffffffffffffffffffffff1673ffffffffffffffffffffffffffffffffffffffff1681526020019081526020016000206004015467ffffffffffffffff8111156128ef576128ee61404c565b5b60405190808252806020026020018201604052801561292857816020015b612915613f6b565b81526020019060019003908161290d5790505b50905060005b6007600087868151811061294557612944614cbb565b5b602002602001015173ffffffffffffffffffffffffffffffffffffffff1673ffffffffffffffffffffffffffffffffffffffff16815260200190815260200160002060040154811015612dd75760006001826129a19190614e2d565b9050808383815181106129b7576129b6614cbb565b5b602002602001015160000181815250508373ffffffffffffffffffffffffffffffffffffffff16636352211e826040518263ffffffff1660e01b8152600401612a009190614e92565b602060405180830381865afa158015612a1d573d6000803e3d6000fd5b505050506040513d601f19601f82011682018060405250810190612a419190614ec2565b838381518110612a5457612a53614cbb565b5b60200260200101516020019073ffffffffffffffffffffffffffffffffffffffff16908173ffffffffffffffffffffffffffffffffffffffff16815250508373ffffffffffffffffffffffffffffffffffffffff1663589a1743826040518263ffffffff1660e01b8152600401612acb9190614e92565b602060405180830381865afa158015612ae8573d6000803e3d6000fd5b505050506040513d601f19601f82011682018060405250810190612b0c9190614ec2565b838381518110612b1f57612b1e614cbb565b5b60200260200101516040019073ffffffffffffffffffffffffffffffffffffffff16908173ffffffffffffffffffffffffffffffffffffffff168152505083838381518110612b7157612b70614cbb565b5b60200260200101516060019073ffffffffffffffffffffffffffffffffffffffff16908173ffffffffffffffffffffffffffffffffffffffff16815250508373ffffffffffffffffffffffffffffffffffffffff16638da5cb5b6040518163ffffffff1660e01b8152600401602060405180830381865afa158015612bfa573d6000803e3d6000fd5b505050506040513d601f19601f82011682018060405250810190612c1e9190614ec2565b838381518110612c3157612c30614cbb565b5b60200260200101516080019073ffffffffffffffffffffffffffffffffffffffff16908173ffffffffffffffffffffffffffffffffffffffff16815250508373ffffffffffffffffffffffffffffffffffffffff1663c87b56dd826040518263ffffffff1660e01b8152600401612ca89190614e92565b600060405180830381865afa158015612cc5573d6000803e3d6000fd5b505050506040513d6000823e3d601f19601f82011682018060405250810190612cee9190614f5f565b838381518110612d0157612d00614cbb565b5b602002602001015160a001819052506000838381518110612d2557612d24614cbb565b5b602002602001015160a00151604051602001612d419190614a11565b6040516020818303038152906040528051906020012060001c9050600860008273ffffffffffffffffffffffffffffffffffffffff1673ffffffffffffffffffffffffffffffffffffffff16815260200190815260200160002060050154848481518110612db257612db1614cbb565b5b602002602001015160c001818152505050508080612dcf90614d19565b91505061292e565b5080848481518110612dec57612deb614cbb565b5b602002602001018190525050508080612e0490614d19565b9150506127ed565b50809250505090565b612e1d613082565b73ffffffffffffffffffffffffffffffffffffffff16612e3b612045565b73ffffffffffffffffffffffffffffffffffffffff1614612e91576040517f08c379a0000000000000000000000000000000000000000000000000000000008152600401612e8890614c9b565b60405180910390fd5b600073ffffffffffffffffffffffffffffffffffffffff168173ffffffffffffffffffffffffffffffffffffffff1603612f00576040517f08c379a0000000000000000000000000000000000000000000000000000000008152600401612ef7906150ba565b60405180910390fd5b612f09816137de565b50565b6000612f34836000018373ffffffffffffffffffffffffffffffffffffffff1660001b613d68565b905092915050565b6000600860008373ffffffffffffffffffffffffffffffffffffffff1673ffffffffffffffffffffffffffffffffffffffff16815260200190815260200160002060010160009054906101000a900473ffffffffffffffffffffffffffffffffffffffff16905042600860008473ffffffffffffffffffffffffffffffffffffffff1673ffffffffffffffffffffffffffffffffffffffff1681526020019081526020016000206007018190555061303681600860008573ffffffffffffffffffffffffffffffffffffffff1673ffffffffffffffffffffffffffffffffffffffff1681526020019081526020016000206008015461308a565b6000600860008473ffffffffffffffffffffffffffffffffffffffff1673ffffffffffffffffffffffffffffffffffffffff168152602001908152602001600020600801819055505050565b600033905090565b804710156130cd576040517f08c379a00000000000000000000000000000000000000000000000000000000081526004016130c490615126565b60405180910390fd5b60008273ffffffffffffffffffffffffffffffffffffffff16826040516130f390615177565b60006040518083038185875af1925050503d8060008114613130576040519150601f19603f3d011682016040523d82523d6000602084013e613135565b606091505b5050905080613179576040517f08c379a0000000000000000000000000000000000000000000000000000000008152600401613170906151fe565b60405180910390fd5b505050565b6060600061318e83600001613d8b565b905060608190508092505050919050565b6000600860008473ffffffffffffffffffffffffffffffffffffffff1673ffffffffffffffffffffffffffffffffffffffff168152602001908152602001600020604051806101200160405290816000820160009054906101000a900473ffffffffffffffffffffffffffffffffffffffff1673ffffffffffffffffffffffffffffffffffffffff1673ffffffffffffffffffffffffffffffffffffffff1681526020016001820160009054906101000a900473ffffffffffffffffffffffffffffffffffffffff1673ffffffffffffffffffffffffffffffffffffffff1673ffffffffffffffffffffffffffffffffffffffff1681526020016002820180546132a890614d90565b80601f01602080910402602001604051908101604052809291908181526020018280546132d490614d90565b80156133215780601f106132f657610100808354040283529160200191613321565b820191906000526020600020905b81548152906001019060200180831161330457829003601f168201915b505050505081526020016003820160009054906101000a900473ffffffffffffffffffffffffffffffffffffffff1673ffffffffffffffffffffffffffffffffffffffff1673ffffffffffffffffffffffffffffffffffffffff168152602001600482015481526020016005820154815260200160068201548152602001600782015481526020016008820154815250509050600060076000836000015173ffffffffffffffffffffffffffffffffffffffff1673ffffffffffffffffffffffffffffffffffffffff16815260200190815260200160002060010160009054906101000a900473ffffffffffffffffffffffffffffffffffffffff1690506000600860008673ffffffffffffffffffffffffffffffffffffffff1673ffffffffffffffffffffffffffffffffffffffff16815260200190815260200160002060010160009054906101000a900473ffffffffffffffffffffffffffffffffffffffff16905060008290508073ffffffffffffffffffffffffffffffffffffffff166304f3227986846040518363ffffffff1660e01b81526004016134c692919061521e565b6020604051808303816000875af11580156134e5573d6000803e3d6000fd5b505050506040513d601f19601f82011682018060405250810190613509919061527a565b5042600860008873ffffffffffffffffffffffffffffffffffffffff1673ffffffffffffffffffffffffffffffffffffffff168152602001908152602001600020600501819055506135a98260076000876000015173ffffffffffffffffffffffffffffffffffffffff1673ffffffffffffffffffffffffffffffffffffffff1681526020019081526020016000206002016138a290919063ffffffff16565b508073ffffffffffffffffffffffffffffffffffffffff166318160ddd6040518163ffffffff1660e01b8152600401602060405180830381865afa1580156135f5573d6000803e3d6000fd5b505050506040513d601f19601f82011682018060405250810190613619919061527a565b60076000866000015173ffffffffffffffffffffffffffffffffffffffff1673ffffffffffffffffffffffffffffffffffffffff1681526020019081526020016000206004018190555034600960008282546136759190614e2d565b92505081905550600860008773ffffffffffffffffffffffffffffffffffffffff1673ffffffffffffffffffffffffffffffffffffffff16815260200190815260200160002060080154600960008282546136d09190614e2d565b925050819055506000600860008873ffffffffffffffffffffffffffffffffffffffff1673ffffffffffffffffffffffffffffffffffffffff168152602001908152602001600020600801819055507f17b479fe6cd37ed71733926b75dc8990d3845c9425e8d30c20ad59e112b892838460000151856020015187868573ffffffffffffffffffffffffffffffffffffffff166318160ddd6040518163ffffffff1660e01b8152600401602060405180830381865afa158015613797573d6000803e3d6000fd5b505050506040513d601f19601f820116820180604052508101906137bb919061527a565b426040516137ce969594939291906152a7565b60405180910390a1505050505050565b60008060009054906101000a900473ffffffffffffffffffffffffffffffffffffffff169050816000806101000a81548173ffffffffffffffffffffffffffffffffffffffff021916908373ffffffffffffffffffffffffffffffffffffffff1602179055508173ffffffffffffffffffffffffffffffffffffffff168173ffffffffffffffffffffffffffffffffffffffff167f8be0079c531659141344cd1fd0a4f28419497f9722a3daafe3b4186f6b6457e060405160405180910390a35050565b60006138ca836000018373ffffffffffffffffffffffffffffffffffffffff1660001b613de7565b905092915050565b6000600860008373ffffffffffffffffffffffffffffffffffffffff1673ffffffffffffffffffffffffffffffffffffffff16815260200190815260200160002060010160009054906101000a900473ffffffffffffffffffffffffffffffffffffffff16905042600860008473ffffffffffffffffffffffffffffffffffffffff1673ffffffffffffffffffffffffffffffffffffffff168152602001908152602001600020600601819055506139cc81600860008573ffffffffffffffffffffffffffffffffffffffff1673ffffffffffffffffffffffffffffffffffffffff1681526020019081526020016000206008015461308a565b6000600860008473ffffffffffffffffffffffffffffffffffffffff1673ffffffffffffffffffffffffffffffffffffffff168152602001908152602001600020600801819055505050565b600081604051602001613a2b9190614a11565b6040516020818303038152906040528051906020012060001c9050600073ffffffffffffffffffffffffffffffffffffffff16600860008373ffffffffffffffffffffffffffffffffffffffff1673ffffffffffffffffffffffffffffffffffffffff16815260200190815260200160002060000160009054906101000a900473ffffffffffffffffffffffffffffffffffffffff1673ffffffffffffffffffffffffffffffffffffffff1614613b17576040517f08c379a0000000000000000000000000000000000000000000000000000000008152600401613b0e9061535b565b60405180910390fd5b613b1f613edd565b83816000019073ffffffffffffffffffffffffffffffffffffffff16908173ffffffffffffffffffffffffffffffffffffffff168152505033816020019073ffffffffffffffffffffffffffffffffffffffff16908173ffffffffffffffffffffffffffffffffffffffff168152505082816040018190525081816060019073ffffffffffffffffffffffffffffffffffffffff16908173ffffffffffffffffffffffffffffffffffffffff168152505042816080018181525050348161010001818152505080600860008473ffffffffffffffffffffffffffffffffffffffff1673ffffffffffffffffffffffffffffffffffffffff16815260200190815260200160002060008201518160000160006101000a81548173ffffffffffffffffffffffffffffffffffffffff021916908373ffffffffffffffffffffffffffffffffffffffff16021790555060208201518160010160006101000a81548173ffffffffffffffffffffffffffffffffffffffff021916908373ffffffffffffffffffffffffffffffffffffffff1602179055506040820151816002019080519060200190613ccf929190613e57565b5060608201518160030160006101000a81548173ffffffffffffffffffffffffffffffffffffffff021916908373ffffffffffffffffffffffffffffffffffffffff1602179055506080820151816004015560a0820151816005015560c0820151816006015560e082015181600701556101008201518160080155905050613d618260056138a290919063ffffffff16565b5050505050565b600080836001016000848152602001908152602001600020541415905092915050565b606081600001805480602002602001604051908101604052809291908181526020018280548015613ddb57602002820191906000526020600020905b815481526020019060010190808311613dc7575b50505050509050919050565b6000613df38383613d68565b613e4c578260000182908060018154018082558091505060019003906000526020600020016000909190919091505582600001805490508360010160008481526020019081526020016000208190555060019050613e51565b600090505b92915050565b828054613e6390614d90565b90600052602060002090601f016020900481019282613e855760008555613ecc565b82601f10613e9e57805160ff1916838001178555613ecc565b82800160010185558215613ecc579182015b82811115613ecb578251825591602001919060010190613eb0565b5b509050613ed99190614000565b5090565b604051806101200160405280600073ffffffffffffffffffffffffffffffffffffffff168152602001600073ffffffffffffffffffffffffffffffffffffffff16815260200160608152602001600073ffffffffffffffffffffffffffffffffffffffff16815260200160008152602001600081526020016000815260200160008152602001600081525090565b6040518060e0016040528060008152602001600073ffffffffffffffffffffffffffffffffffffffff168152602001600073ffffffffffffffffffffffffffffffffffffffff168152602001600073ffffffffffffffffffffffffffffffffffffffff168152602001600073ffffffffffffffffffffffffffffffffffffffff16815260200160608152602001600081525090565b5b80821115614019576000816000905550600101614001565b5090565b6000604051905090565b600080fd5b600080fd5b600080fd5b600080fd5b6000601f19601f8301169050919050565b7f4e487b7100000000000000000000000000000000000000000000000000000000600052604160045260246000fd5b6140848261403b565b810181811067ffffffffffffffff821117156140a3576140a261404c565b5b80604052505050565b60006140b661401d565b90506140c2828261407b565b919050565b600067ffffffffffffffff8211156140e2576140e161404c565b5b6140eb8261403b565b9050602081019050919050565b82818337600083830152505050565b600061411a614115846140c7565b6140ac565b90508281526020810184848401111561413657614135614036565b5b6141418482856140f8565b509392505050565b600082601f83011261415e5761415d614031565b5b813561416e848260208601614107565b91505092915050565b60006020828403121561418d5761418c614027565b5b600082013567ffffffffffffffff8111156141ab576141aa61402c565b5b6141b784828501614149565b91505092915050565b600073ffffffffffffffffffffffffffffffffffffffff82169050919050565b60006141eb826141c0565b9050919050565b6141fb816141e0565b811461420657600080fd5b50565b600081359050614218816141f2565b92915050565b60006020828403121561423457614233614027565b5b600061424284828501614209565b91505092915050565b60008115159050919050565b6142608161424b565b82525050565b600060208201905061427b6000830184614257565b92915050565b600081519050919050565b600082825260208201905092915050565b6000819050602082019050919050565b6142b6816141e0565b82525050565b600081519050919050565b600082825260208201905092915050565b60005b838110156142f65780820151818401526020810190506142db565b83811115614305576000848401525b50505050565b6000614316826142bc565b61432081856142c7565b93506143308185602086016142d8565b6143398161403b565b840191505092915050565b6000819050919050565b61435781614344565b82525050565b60006101208301600083015161437660008601826142ad565b50602083015161438960208601826142ad565b50604083015184820360408601526143a1828261430b565b91505060608301516143b660608601826142ad565b5060808301516143c9608086018261434e565b5060a08301516143dc60a086018261434e565b5060c08301516143ef60c086018261434e565b5060e083015161440260e086018261434e565b5061010083015161441761010086018261434e565b508091505092915050565b600061442e838361435d565b905092915050565b6000602082019050919050565b600061444e82614281565b614458818561428c565b93508360208202850161446a8561429d565b8060005b858110156144a657848403895281516144878582614422565b945061449283614436565b925060208a0199505060018101905061446e565b50829750879550505050505092915050565b600060208201905081810360008301526144d28184614443565b905092915050565b600081519050919050565b600082825260208201905092915050565b6000819050602082019050919050565b600081519050919050565b600082825260208201905092915050565b6000819050602082019050919050565b600060e08301600083015161454a600086018261434e565b50602083015161455d60208601826142ad565b50604083015161457060408601826142ad565b50606083015161458360608601826142ad565b50608083015161459660808601826142ad565b5060a083015184820360a08601526145ae828261430b565b91505060c08301516145c360c086018261434e565b508091505092915050565b60006145da8383614532565b905092915050565b6000602082019050919050565b60006145fa82614506565b6146048185614511565b93508360208202850161461685614522565b8060005b85811015614652578484038952815161463385826145ce565b945061463e836145e2565b925060208a0199505060018101905061461a565b50829750879550505050505092915050565b600061467083836145ef565b905092915050565b6000602082019050919050565b6000614690826144da565b61469a81856144e5565b9350836020820285016146ac856144f6565b8060005b858110156146e857848403895281516146c98582614664565b94506146d483614678565b925060208a019950506001810190506146b0565b50829750879550505050505092915050565b600060208201905081810360008301526147148184614685565b905092915050565b600082825260208201905092915050565b600061473882614506565b614742818561471c565b93508360208202850161475485614522565b8060005b85811015614790578484038952815161477185826145ce565b945061477c836145e2565b925060208a01995050600181019050614758565b50829750879550505050505092915050565b600060208201905081810360008301526147bc818461472d565b905092915050565b6147cd816141e0565b82525050565b60006020820190506147e860008301846147c4565b92915050565b6000806040838503121561480557614804614027565b5b600061481385828601614209565b925050602061482485828601614209565b9150509250929050565b600081519050919050565b600082825260208201905092915050565b6000819050602082019050919050565b600061486683836142ad565b60208301905092915050565b6000602082019050919050565b600061488a8261482e565b6148948185614839565b935061489f8361484a565b8060005b838110156148d05781516148b7888261485a565b97506148c283614872565b9250506001810190506148a3565b5085935050505092915050565b600060208201905081810360008301526148f7818461487f565b905092915050565b6000806040838503121561491657614915614027565b5b600083013567ffffffffffffffff8111156149345761493361402c565b5b61494085828601614149565b925050602061495185828601614209565b9150509250929050565b600082825260208201905092915050565b7f74782e6f726967696e206973206e6f74206d73672e73656e6465720000000000600082015250565b60006149a2601b8361495b565b91506149ad8261496c565b602082019050919050565b600060208201905081810360008301526149d181614995565b9050919050565b60006149e3826142bc565b6149ed818561495b565b93506149fd8185602086016142d8565b614a068161403b565b840191505092915050565b60006020820190508181036000830152614a2b81846149d8565b905092915050565b7f596f7520617265206e6f7420746865206f776e6572206f66204e465400000000600082015250565b6000614a69601c8361495b565b9150614a7482614a33565b602082019050919050565b60006020820190508181036000830152614a9881614a5c565b9050919050565b7f52657175657374206973206e6f74206f70656e65642079657400000000000000600082015250565b6000614ad560198361495b565b9150614ae082614a9f565b602082019050919050565b60006020820190508181036000830152614b0481614ac8565b9050919050565b7f5265717565737420697320616c726561647920636c6f73656400000000000000600082015250565b6000614b4160198361495b565b9150614b4c82614b0b565b602082019050919050565b60006020820190508181036000830152614b7081614b34565b9050919050565b7f5265717565737420697320616c72656164792063616e63656c65640000000000600082015250565b6000614bad601b8361495b565b9150614bb882614b77565b602082019050919050565b60006020820190508181036000830152614bdc81614ba0565b9050919050565b7f5265717565737420697320616c72656164792072656a65637465640000000000600082015250565b6000614c19601b8361495b565b9150614c2482614be3565b602082019050919050565b60006020820190508181036000830152614c4881614c0c565b9050919050565b7f4f776e61626c653a2063616c6c6572206973206e6f7420746865206f776e6572600082015250565b6000614c8560208361495b565b9150614c9082614c4f565b602082019050919050565b60006020820190508181036000830152614cb481614c78565b9050919050565b7f4e487b7100000000000000000000000000000000000000000000000000000000600052603260045260246000fd5b7f4e487b7100000000000000000000000000000000000000000000000000000000600052601160045260246000fd5b6000614d2482614344565b91507fffffffffffffffffffffffffffffffffffffffffffffffffffffffffffffffff8203614d5657614d55614cea565b5b600182019050919050565b7f4e487b7100000000000000000000000000000000000000000000000000000000600052602260045260246000fd5b60006002820490506001821680614da857607f821691505b602082108103614dbb57614dba614d61565b5b50919050565b7f56616c756520697320696e76616c696400000000000000000000000000000000600082015250565b6000614df760108361495b565b9150614e0282614dc1565b602082019050919050565b60006020820190508181036000830152614e2681614dea565b9050919050565b6000614e3882614344565b9150614e4383614344565b9250827fffffffffffffffffffffffffffffffffffffffffffffffffffffffffffffffff03821115614e7857614e77614cea565b5b828201905092915050565b614e8c81614344565b82525050565b6000602082019050614ea76000830184614e83565b92915050565b600081519050614ebc816141f2565b92915050565b600060208284031215614ed857614ed7614027565b5b6000614ee684828501614ead565b91505092915050565b6000614f02614efd846140c7565b6140ac565b905082815260208101848484011115614f1e57614f1d614036565b5b614f298482856142d8565b509392505050565b600082601f830112614f4657614f45614031565b5b8151614f56848260208601614eef565b91505092915050565b600060208284031215614f7557614f74614027565b5b600082015167ffffffffffffffff811115614f9357614f9261402c565b5b614f9f84828501614f31565b91505092915050565b6000614fb382614344565b9150614fbe83614344565b925082821015614fd157614fd0614cea565b5b828203905092915050565b7f43656c65627269747920646f6573206e6f742065786973740000000000000000600082015250565b600061501260188361495b565b915061501d82614fdc565b602082019050919050565b6000602082019050818103600083015261504181615005565b9050919050565b7f4f776e61626c653a206e6577206f776e657220697320746865207a65726f206160008201527f6464726573730000000000000000000000000000000000000000000000000000602082015250565b60006150a460268361495b565b91506150af82615048565b604082019050919050565b600060208201905081810360008301526150d381615097565b9050919050565b7f416464726573733a20696e73756666696369656e742062616c616e6365000000600082015250565b6000615110601d8361495b565b915061511b826150da565b602082019050919050565b6000602082019050818103600083015261513f81615103565b9050919050565b600081905092915050565b50565b6000615161600083615146565b915061516c82615151565b600082019050919050565b600061518282615154565b9150819050919050565b7f416464726573733a20756e61626c6520746f2073656e642076616c75652c207260008201527f6563697069656e74206d61792068617665207265766572746564000000000000602082015250565b60006151e8603a8361495b565b91506151f38261518c565b604082019050919050565b60006020820190508181036000830152615217816151db565b9050919050565b6000604082019050818103600083015261523881856149d8565b905061524760208301846147c4565b9392505050565b61525781614344565b811461526257600080fd5b50565b6000815190506152748161524e565b92915050565b6000602082840312156152905761528f614027565b5b600061529e84828501615265565b91505092915050565b600060c0820190506152bc60008301896147c4565b6152c960208301886147c4565b81810360408301526152db81876149d8565b90506152ea60608301866147c4565b6152f76080830185614e83565b61530460a0830184614e83565b979650505050505050565b7f546f6b656e555249206973206475706c69636174656400000000000000000000600082015250565b600061534560168361495b565b91506153508261530f565b602082019050919050565b6000602082019050818103600083015261537481615338565b905091905056fea2646970667358221220518e937862b87cae4a743a178b4b1078a4eb9a35557f9f6619f99fee39618bdc64736f6c634300080e0033",
  "immutableReferences": {},
  "source": "//SPDX-License-Identifier: MIT\r\n\r\npragma solidity ^0.8.0;\r\n\r\nimport \"@openzeppelin/contracts/utils/structs/EnumerableSet.sol\";\r\nimport \"@openzeppelin/contracts/access/Ownable.sol\";\r\nimport \"@openzeppelin/contracts/utils/Create2.sol\";\r\nimport \"@openzeppelin/contracts/utils/Address.sol\";\r\nimport \"@openzeppelin/contracts/proxy/utils/Initializable.sol\";\r\nimport \"./NFT.sol\";\r\n\r\n\r\ncontract Connection is Ownable {\r\n    using EnumerableSet for EnumerableSet.AddressSet;\r\n    using EnumerableSet for EnumerableSet.Bytes32Set;\r\n    using Address for address;\r\n\r\n    struct TokenInfo {\r\n        uint256 tokenId;\r\n        address owner;\r\n        address creator;\r\n        address tokenContractAddress;\r\n        address contractOwner;\r\n        string tokenURI;\r\n        uint256 time;\r\n    }\r\n\r\n    struct NFTInfo {\r\n        address celebrity;\r\n        address contractAddress;\r\n        EnumerableSet.AddressSet creators;\r\n        uint256 supplied;\r\n    }\r\n\r\n    struct Pool {\r\n        address celebrity;\r\n        address creator;\r\n        string tokenURI;\r\n        address _hash;\r\n        uint256 open;\r\n        uint256 close;\r\n        uint256 cancel;\r\n        uint256 reject;\r\n        uint256 depositedValue;\r\n    }\r\n\r\n    // Declare a set state variable\r\n    EnumerableSet.AddressSet private _celebrities;\r\n    EnumerableSet.AddressSet private _creators;\r\n    EnumerableSet.AddressSet private _hashes;\r\n\r\n    mapping(address => NFTInfo) private _NFTInfos;\r\n    mapping(address => Pool) private _pools;\r\n    uint256 private _withdrawableValue;\r\n    string private _initialTokenURI;\r\n    uint256 private _mintingFee;\r\n\r\n    event Mint(address celebrity, address creator, string tokenURI,\r\n        address contractAddress, uint256 tokenId, uint256 time);\r\n\r\n    constructor(string memory initialTokenURI, uint256 mintingFee) Ownable() {\r\n        _withdrawableValue = 0;\r\n        _initialTokenURI = initialTokenURI;\r\n        _mintingFee = mintingFee;\r\n    }\r\n\r\n    modifier onlyCelebrity() {\r\n        require(_celebrities.contains(msg.sender));\r\n        _;\r\n    }\r\n\r\n    function setInitialTokenURI(string memory initialTokenURI) public onlyOwner {\r\n        _initialTokenURI = initialTokenURI;\r\n    }\r\n\r\n    function register(address celebrity, address contractAddress) public onlyOwner {\r\n        _NFTInfos[celebrity].celebrity = celebrity;\r\n        _NFTInfos[celebrity].contractAddress = contractAddress;\r\n        _NFTInfos[celebrity].supplied = 0;\r\n        _celebrities.add(celebrity);\r\n    }\r\n\r\n\r\n    function isCelebrity(address celebrity) public view returns (bool) {\r\n        return _NFTInfos[celebrity].celebrity == celebrity;\r\n    }\r\n\r\n    function requestNFT(string memory tokenURI, address celebrity) public payable {\r\n        require(\r\n            _NFTInfos[celebrity].celebrity == celebrity,\r\n            \"Celebrity does not exist\"\r\n        );\r\n        require(msg.value == 1 ether, \"Value is invalid\");\r\n        require(tx.origin == msg.sender, \"tx.origin is not msg.sender\");\r\n        createPool(celebrity, tokenURI);\r\n    }\r\n\r\n\r\n    function approveNFT(string memory tokenURI) public payable onlyCelebrity {\r\n        require(msg.value == 1 ether, \"Value is invalid\");\r\n        require(tx.origin == msg.sender, \"tx.origin is not msg.sender\");\r\n\r\n        address _hash = address(\r\n            uint160(uint256(keccak256(abi.encode(tokenURI))))\r\n        );\r\n        require(\r\n            _pools[_hash].celebrity == msg.sender,\r\n            \"You are not the owner of NFT\"\r\n        );\r\n        require(_pools[_hash].open != 0, \"Request is not opened yet\");\r\n        require(_pools[_hash].close == 0, \"Request is already closed\");\r\n        require(_pools[_hash].cancel == 0, \"Request is already canceled\");\r\n        require(_pools[_hash].reject == 0, \"Request is already rejected\");\r\n        closePool(_hash, tokenURI);\r\n    }\r\n\r\n\r\n    function rejectNFT(string memory tokenURI) public onlyCelebrity {\r\n        require(tx.origin == msg.sender, \"tx.origin is not msg.sender\");\r\n\r\n        address _hash = address(\r\n            uint160(uint256(keccak256(abi.encode(tokenURI))))\r\n        );\r\n        require(\r\n            _pools[_hash].celebrity == msg.sender,\r\n            \"You are not the owner of NFT\"\r\n        );\r\n        require(_pools[_hash].open != 0, \"Request is not opened yet\");\r\n        require(_pools[_hash].close == 0, \"Request is already closed\");\r\n        require(_pools[_hash].cancel == 0, \"Request is already canceled\");\r\n        require(_pools[_hash].reject == 0, \"Request is already rejected\");\r\n        rejectPool(_hash);\r\n    }\r\n\r\n\r\n    function cancelNFT(string memory tokenURI) public {\r\n        require(tx.origin == msg.sender, \"tx.origin is not msg.sender\");\r\n\r\n        address _hash = address(\r\n            uint160(uint256(keccak256(abi.encode(tokenURI))))\r\n        );\r\n        require(\r\n            _pools[_hash].creator == msg.sender,\r\n            \"You are not the owner of NFT\"\r\n        );\r\n        require(_pools[_hash].open != 0, \"Request is not opened yet\");\r\n        require(_pools[_hash].close == 0, \"Request is already closed\");\r\n        require(_pools[_hash].cancel == 0, \"Request is already canceled\");\r\n        require(_pools[_hash].reject == 0, \"Request is already rejected\");\r\n        cancelPool(_hash);\r\n    }\r\n\r\n\r\n    function withdraw() public onlyOwner {\r\n        address _owner = owner();\r\n        Address.sendValue(payable(_owner), _withdrawableValue);\r\n        _withdrawableValue = 0;\r\n    }\r\n\r\n    function poolHistory() public view returns (Pool[] memory) {\r\n        address[] memory hashes = _hashes.values();\r\n        uint256 counter = 0;\r\n        uint256 count = 0;\r\n        for (uint256 i = 0; i < hashes.length; i++) {\r\n            if (\r\n                _pools[hashes[i]].creator == msg.sender ||\r\n                _pools[hashes[i]].celebrity == msg.sender\r\n            ) {\r\n                count++;\r\n            }\r\n        }\r\n        Pool[] memory pools = new Pool[](count);\r\n        for (uint256 i = 0; i < hashes.length; i++) {\r\n            if (\r\n                _pools[hashes[i]].creator == msg.sender ||\r\n                _pools[hashes[i]].celebrity == msg.sender\r\n            ) {\r\n                pools[counter] = _pools[hashes[i]];\r\n                counter++;\r\n            }\r\n        }\r\n        return pools;\r\n    }\r\n\r\n    function getAllNFTs() public view returns (TokenInfo[][] memory) {\r\n        address[] memory celebrities = _celebrities.values();\r\n        TokenInfo[][] memory tokenInfos = new TokenInfo[][](celebrities.length);\r\n        for (uint256 i = 0; i < celebrities.length; i++) {\r\n            NFT NFT_ = NFT(\r\n                _NFTInfos[celebrities[i]].contractAddress\r\n            );\r\n            TokenInfo[] memory temp = new TokenInfo[](\r\n                _NFTInfos[celebrities[i]].supplied\r\n            );\r\n            for (uint256 j = 0; j < _NFTInfos[celebrities[i]].supplied; j++) {\r\n                uint256 tokenId = j + 1;\r\n                temp[j].tokenId = tokenId;\r\n                temp[j].owner = NFT_.ownerOf(tokenId);\r\n                temp[j].creator = NFT_.creatorOf(tokenId);\r\n                temp[j].tokenContractAddress = address(NFT_);\r\n                temp[j].contractOwner = NFT_.owner();\r\n                temp[j].tokenURI = NFT_.tokenURI(tokenId);\r\n                address _hash = address(\r\n                    uint160(uint256(keccak256(abi.encode(temp[j].tokenURI))))\r\n                );\r\n                temp[j].time = _pools[_hash].close;\r\n            }\r\n            tokenInfos[i] = temp;\r\n        }\r\n        return tokenInfos;\r\n    }\r\n\r\n    function getOwnedNFTs() public view returns (TokenInfo[][] memory) {\r\n        address[] memory celebrities = _celebrities.values();\r\n        TokenInfo[][] memory tokenInfos = new TokenInfo[][](celebrities.length);\r\n        for (uint256 i = 0; i < celebrities.length; i++) {\r\n            NFT NFT_ = NFT(\r\n                _NFTInfos[celebrities[i]].contractAddress\r\n            );\r\n            uint256 count = 0;\r\n            for (uint256 j = 0; j < _NFTInfos[celebrities[i]].supplied; j++) {\r\n                if (NFT_.ownerOf(j + 1) == msg.sender) {\r\n                    count++;\r\n                }\r\n            }\r\n            if (count == 0) {\r\n                continue;\r\n            }\r\n            uint256 idx = 0;\r\n            TokenInfo[] memory temp = new TokenInfo[](count);\r\n            for (uint256 j = 0; j < _NFTInfos[celebrities[i]].supplied; j++) {\r\n                if (NFT_.ownerOf(j + 1) != msg.sender) {\r\n                    continue;\r\n                }\r\n                temp[idx].tokenId = idx + 1;\r\n                temp[idx].owner = NFT_.ownerOf(idx + 1);\r\n                temp[idx].creator = NFT_.creatorOf(idx + 1);\r\n                temp[idx].tokenContractAddress = address(NFT_);\r\n                temp[idx].contractOwner = NFT_.owner();\r\n                temp[idx].tokenURI = NFT_.tokenURI(idx + 1);\r\n                idx++;\r\n                address _hash = address(\r\n                    uint160(uint256(keccak256(abi.encode(temp[j].tokenURI))))\r\n                );\r\n                temp[j].time = _pools[_hash].close;\r\n            }\r\n            tokenInfos[i] = temp;\r\n        }\r\n        return tokenInfos;\r\n    }\r\n\r\n    function getNFTByContractAddress(address contractAddress) public view returns (TokenInfo[] memory) {\r\n        address[] memory celebrities = _celebrities.values();\r\n        address celebrity;\r\n        uint256 tokenCount;\r\n        for (uint256 i = 0; i < celebrities.length; i++) {\r\n            if (_NFTInfos[celebrities[i]].contractAddress == contractAddress) {\r\n                celebrity = celebrities[i];\r\n                tokenCount = _NFTInfos[celebrities[i]].supplied;\r\n                break;\r\n            }\r\n        }\r\n        TokenInfo[] memory tokenInfos = new TokenInfo[](tokenCount);\r\n        for (uint256 i = 1; i <= tokenCount; i++) {\r\n            NFT NFT_ = NFT(contractAddress);\r\n            TokenInfo memory tokenInfo;\r\n            tokenInfo.contractOwner = celebrity;\r\n            tokenInfo.creator = NFT_.creatorOf(i);\r\n            tokenInfo.tokenContractAddress = contractAddress;\r\n            tokenInfo.tokenId = i;\r\n            tokenInfo.tokenURI = NFT_.tokenURI(i);\r\n            tokenInfo.owner = NFT_.ownerOf(i);\r\n            tokenInfos[i - 1] = tokenInfo;\r\n        }\r\n        return tokenInfos;\r\n    }\r\n\r\n    function getCelebrities() public view returns (address[] memory) {\r\n        address[] memory celebrities = _celebrities.values();\r\n        return celebrities;\r\n    }\r\n\r\n    function createPool(address celebrity, string memory tokenURI) internal {\r\n        address _hash = address(\r\n            uint160(uint256(keccak256(abi.encode(tokenURI))))\r\n        );\r\n        require(\r\n            _pools[_hash].celebrity == address(0),\r\n            \"TokenURI is duplicated\"\r\n        );\r\n        Pool memory pool;\r\n        pool.celebrity = celebrity;\r\n        pool.creator = msg.sender;\r\n        pool.tokenURI = tokenURI;\r\n        pool._hash = _hash;\r\n        pool.open = block.timestamp;\r\n        pool.depositedValue = msg.value;\r\n        _pools[_hash] = pool;\r\n        _hashes.add(_hash);\r\n    }\r\n\r\n    function closePool(address _hash, string memory tokenURI) internal {\r\n        Pool memory pool = _pools[_hash];\r\n\r\n        address contractAddress = _NFTInfos[pool.celebrity].contractAddress;\r\n        address creator = _pools[_hash].creator;\r\n\r\n        NFT NFT_ = NFT(contractAddress);\r\n        NFT_.mintNFT(tokenURI, creator);\r\n\r\n        _pools[_hash].close = block.timestamp;\r\n        _NFTInfos[pool.celebrity].creators.add(creator);\r\n        _NFTInfos[pool.celebrity].supplied = NFT_.totalSupply();\r\n        _withdrawableValue += msg.value;\r\n        _withdrawableValue += _pools[_hash].depositedValue;\r\n        _pools[_hash].depositedValue = 0;\r\n        emit Mint(pool.celebrity, pool.creator, tokenURI, contractAddress, NFT_.totalSupply(), block.timestamp);\r\n    }\r\n\r\n    function rejectPool(address _hash) internal {\r\n        address creator = _pools[_hash].creator;\r\n        _pools[_hash].reject = block.timestamp;\r\n        Address.sendValue(payable(creator), _pools[_hash].depositedValue);\r\n\r\n        _pools[_hash].depositedValue = 0;\r\n    }\r\n\r\n    function cancelPool(address _hash) internal {\r\n        address creator = _pools[_hash].creator;\r\n        _pools[_hash].cancel = block.timestamp;\r\n        Address.sendValue(payable(creator), _pools[_hash].depositedValue);\r\n        _pools[_hash].depositedValue = 0;\r\n    }\r\n\r\n}\r\n",
  "sourcePath": "C:\\Users\\dlscj\\VSCode\\FrontEnd\\contracts\\Connection.sol",
  "compiler": {
    "name": "solc",
    "version": "0.8.14+commit.80d49f37.Emscripten.clang"
  },
  "schemaVersion": "3.4.7",
  "updatedAt": "2022-05-22T15:31:42.775Z",
  "networkType": "ethereum",
  "devdoc": {
    "kind": "dev",
    "methods": {
      "owner()": {
        "details": "Returns the address of the current owner."
      },
      "renounceOwnership()": {
        "details": "Leaves the contract without owner. It will not be possible to call `onlyOwner` functions anymore. Can only be called by the current owner. NOTE: Renouncing ownership will leave the contract without an owner, thereby removing any functionality that is only available to the owner."
      },
      "transferOwnership(address)": {
        "details": "Transfers ownership of the contract to a new account (`newOwner`). Can only be called by the current owner."
      }
    },
    "version": 1
  },
  "userdoc": {
    "kind": "user",
    "methods": {},
    "version": 1
  }
}