{
  "contractName": "Connection",
  "abi": [
    {
      "inputs": [
        {
          "internalType": "string",
          "name": "initialTokenURI",
          "type": "string"
        },
        {
          "internalType": "uint256",
          "name": "mintingFee",
          "type": "uint256"
        }
      ],
      "stateMutability": "nonpayable",
      "type": "constructor"
    },
    {
      "anonymous": false,
      "inputs": [
        {
          "indexed": false,
          "internalType": "address",
          "name": "celebrity",
          "type": "address"
        },
        {
          "indexed": false,
          "internalType": "address",
          "name": "creator",
          "type": "address"
        },
        {
          "indexed": false,
          "internalType": "string",
          "name": "tokenURI",
          "type": "string"
        },
        {
          "indexed": false,
          "internalType": "address",
          "name": "contractAddress",
          "type": "address"
        },
        {
          "indexed": false,
          "internalType": "uint256",
          "name": "tokenId",
          "type": "uint256"
        },
        {
          "indexed": false,
          "internalType": "uint256",
          "name": "time",
          "type": "uint256"
        }
      ],
      "name": "Mint",
      "type": "event"
    },
    {
      "anonymous": false,
      "inputs": [
        {
          "indexed": true,
          "internalType": "address",
          "name": "previousOwner",
          "type": "address"
        },
        {
          "indexed": true,
          "internalType": "address",
          "name": "newOwner",
          "type": "address"
        }
      ],
      "name": "OwnershipTransferred",
      "type": "event"
    },
    {
      "inputs": [],
      "name": "owner",
      "outputs": [
        {
          "internalType": "address",
          "name": "",
          "type": "address"
        }
      ],
      "stateMutability": "view",
      "type": "function",
      "constant": true
    },
    {
      "inputs": [],
      "name": "renounceOwnership",
      "outputs": [],
      "stateMutability": "nonpayable",
      "type": "function"
    },
    {
      "inputs": [
        {
          "internalType": "address",
          "name": "newOwner",
          "type": "address"
        }
      ],
      "name": "transferOwnership",
      "outputs": [],
      "stateMutability": "nonpayable",
      "type": "function"
    },
    {
      "inputs": [
        {
          "internalType": "string",
          "name": "initialTokenURI",
          "type": "string"
        }
      ],
      "name": "setInitialTokenURI",
      "outputs": [],
      "stateMutability": "nonpayable",
      "type": "function"
    },
    {
      "inputs": [
        {
          "internalType": "address",
          "name": "celebrity",
          "type": "address"
        },
        {
          "internalType": "address",
          "name": "contractAddress",
          "type": "address"
        }
      ],
      "name": "register",
      "outputs": [],
      "stateMutability": "nonpayable",
      "type": "function"
    },
    {
      "inputs": [
        {
          "internalType": "address",
          "name": "celebrity",
          "type": "address"
        }
      ],
      "name": "isCelebrity",
      "outputs": [
        {
          "internalType": "bool",
          "name": "",
          "type": "bool"
        }
      ],
      "stateMutability": "view",
      "type": "function",
      "constant": true
    },
    {
      "inputs": [
        {
          "internalType": "string",
          "name": "tokenURI",
          "type": "string"
        },
        {
          "internalType": "address",
          "name": "celebrity",
          "type": "address"
        }
      ],
      "name": "requestNFT",
      "outputs": [],
      "stateMutability": "payable",
      "type": "function",
      "payable": true
    },
    {
      "inputs": [
        {
          "internalType": "string",
          "name": "tokenURI",
          "type": "string"
        }
      ],
      "name": "approveNFT",
      "outputs": [],
      "stateMutability": "payable",
      "type": "function",
      "payable": true
    },
    {
      "inputs": [
        {
          "internalType": "string",
          "name": "tokenURI",
          "type": "string"
        }
      ],
      "name": "rejectNFT",
      "outputs": [],
      "stateMutability": "nonpayable",
      "type": "function"
    },
    {
      "inputs": [
        {
          "internalType": "string",
          "name": "tokenURI",
          "type": "string"
        }
      ],
      "name": "cancelNFT",
      "outputs": [],
      "stateMutability": "nonpayable",
      "type": "function"
    },
    {
      "inputs": [],
      "name": "withdraw",
      "outputs": [],
      "stateMutability": "nonpayable",
      "type": "function"
    },
    {
      "inputs": [],
      "name": "poolHistory",
      "outputs": [
        {
          "components": [
            {
              "internalType": "address",
              "name": "celebrity",
              "type": "address"
            },
            {
              "internalType": "address",
              "name": "creator",
              "type": "address"
            },
            {
              "internalType": "string",
              "name": "tokenURI",
              "type": "string"
            },
            {
              "internalType": "address",
              "name": "_hash",
              "type": "address"
            },
            {
              "internalType": "uint256",
              "name": "open",
              "type": "uint256"
            },
            {
              "internalType": "uint256",
              "name": "close",
              "type": "uint256"
            },
            {
              "internalType": "uint256",
              "name": "cancel",
              "type": "uint256"
            },
            {
              "internalType": "uint256",
              "name": "reject",
              "type": "uint256"
            },
            {
              "internalType": "uint256",
              "name": "depositedValue",
              "type": "uint256"
            }
          ],
          "internalType": "struct Connection.Pool[]",
          "name": "",
          "type": "tuple[]"
        }
      ],
      "stateMutability": "view",
      "type": "function",
      "constant": true
    },
    {
      "inputs": [],
      "name": "getAllNFTs",
      "outputs": [
        {
          "components": [
            {
              "internalType": "uint256",
              "name": "tokenId",
              "type": "uint256"
            },
            {
              "internalType": "address",
              "name": "owner",
              "type": "address"
            },
            {
              "internalType": "address",
              "name": "creator",
              "type": "address"
            },
            {
              "internalType": "address",
              "name": "tokenContractAddress",
              "type": "address"
            },
            {
              "internalType": "address",
              "name": "contractOwner",
              "type": "address"
            },
            {
              "internalType": "string",
              "name": "tokenURI",
              "type": "string"
            },
            {
              "internalType": "uint256",
              "name": "time",
              "type": "uint256"
            }
          ],
          "internalType": "struct Connection.TokenInfo[][]",
          "name": "",
          "type": "tuple[][]"
        }
      ],
      "stateMutability": "view",
      "type": "function",
      "constant": true
    },
    {
      "inputs": [],
      "name": "getOwnedNFTs",
      "outputs": [
        {
          "components": [
            {
              "internalType": "uint256",
              "name": "tokenId",
              "type": "uint256"
            },
            {
              "internalType": "address",
              "name": "owner",
              "type": "address"
            },
            {
              "internalType": "address",
              "name": "creator",
              "type": "address"
            },
            {
              "internalType": "address",
              "name": "tokenContractAddress",
              "type": "address"
            },
            {
              "internalType": "address",
              "name": "contractOwner",
              "type": "address"
            },
            {
              "internalType": "string",
              "name": "tokenURI",
              "type": "string"
            },
            {
              "internalType": "uint256",
              "name": "time",
              "type": "uint256"
            }
          ],
          "internalType": "struct Connection.TokenInfo[][]",
          "name": "",
          "type": "tuple[][]"
        }
      ],
      "stateMutability": "view",
      "type": "function",
      "constant": true
    },
    {
      "inputs": [
        {
          "internalType": "address",
          "name": "contractAddress",
          "type": "address"
        }
      ],
      "name": "getNFTByContractAddress",
      "outputs": [
        {
          "components": [
            {
              "internalType": "uint256",
              "name": "tokenId",
              "type": "uint256"
            },
            {
              "internalType": "address",
              "name": "owner",
              "type": "address"
            },
            {
              "internalType": "address",
              "name": "creator",
              "type": "address"
            },
            {
              "internalType": "address",
              "name": "tokenContractAddress",
              "type": "address"
            },
            {
              "internalType": "address",
              "name": "contractOwner",
              "type": "address"
            },
            {
              "internalType": "string",
              "name": "tokenURI",
              "type": "string"
            },
            {
              "internalType": "uint256",
              "name": "time",
              "type": "uint256"
            }
          ],
          "internalType": "struct Connection.TokenInfo[]",
          "name": "",
          "type": "tuple[]"
        }
      ],
      "stateMutability": "view",
      "type": "function",
      "constant": true
    }
  ],
  "bytecode": "0x60806040523480156200001157600080fd5b5060405162005748380380620057488339818101604052810190620000379190620003db565b620000576200004b6200008760201b60201c565b6200008f60201b60201c565b600060098190555081600a90805190602001906200007792919062000153565b5080600b819055505050620004a5565b600033905090565b60008060009054906101000a900473ffffffffffffffffffffffffffffffffffffffff169050816000806101000a81548173ffffffffffffffffffffffffffffffffffffffff021916908373ffffffffffffffffffffffffffffffffffffffff1602179055508173ffffffffffffffffffffffffffffffffffffffff168173ffffffffffffffffffffffffffffffffffffffff167f8be0079c531659141344cd1fd0a4f28419497f9722a3daafe3b4186f6b6457e060405160405180910390a35050565b828054620001619062000470565b90600052602060002090601f016020900481019282620001855760008555620001d1565b82601f10620001a057805160ff1916838001178555620001d1565b82800160010185558215620001d1579182015b82811115620001d0578251825591602001919060010190620001b3565b5b509050620001e09190620001e4565b5090565b5b80821115620001ff576000816000905550600101620001e5565b5090565b6000604051905090565b600080fd5b600080fd5b600080fd5b600080fd5b6000601f19601f8301169050919050565b7f4e487b7100000000000000000000000000000000000000000000000000000000600052604160045260246000fd5b6200026c8262000221565b810181811067ffffffffffffffff821117156200028e576200028d62000232565b5b80604052505050565b6000620002a362000203565b9050620002b1828262000261565b919050565b600067ffffffffffffffff821115620002d457620002d362000232565b5b620002df8262000221565b9050602081019050919050565b60005b838110156200030c578082015181840152602081019050620002ef565b838111156200031c576000848401525b50505050565b6000620003396200033384620002b6565b62000297565b9050828152602081018484840111156200035857620003576200021c565b5b62000365848285620002ec565b509392505050565b600082601f83011262000385576200038462000217565b5b81516200039784826020860162000322565b91505092915050565b6000819050919050565b620003b581620003a0565b8114620003c157600080fd5b50565b600081519050620003d581620003aa565b92915050565b60008060408385031215620003f557620003f46200020d565b5b600083015167ffffffffffffffff81111562000416576200041562000212565b5b62000424858286016200036d565b92505060206200043785828601620003c4565b9150509250929050565b7f4e487b7100000000000000000000000000000000000000000000000000000000600052602260045260246000fd5b600060028204905060018216806200048957607f821691505b6020821081036200049f576200049e62000441565b5b50919050565b61529380620004b56000396000f3fe6080604052600436106100e85760003560e01c80635396d3f31161008a578063c8f58d4a11610059578063c8f58d4a146102ad578063dda946ba146102d6578063e0391b09146102f2578063f2fde38b1461031d576100e8565b80635396d3f314610205578063715018a6146102425780638da5cb5b14610259578063aa67735414610284576100e8565b80633ccfd60b116100c65780633ccfd60b1461017c578063486335411461019357806349d8e15f146101be5780634c0eb7d9146101da576100e8565b8063010bd940146100ed5780632a821a941461011657806337a964261461013f575b600080fd5b3480156100f957600080fd5b50610114600480360381019061010f919061412a565b610346565b005b34801561012257600080fd5b5061013d6004803603810190610138919061412a565b6106f0565b005b34801561014b57600080fd5b50610166600480360381019061016191906141d1565b610786565b6040516101739190614219565b60405180910390f35b34801561018857600080fd5b50610191610820565b005b34801561019f57600080fd5b506101a86108bf565b6040516101b5919061446b565b60405180910390f35b6101d860048036038101906101d3919061412a565b610e9f565b005b3480156101e657600080fd5b506101ef611294565b6040516101fc91906146ad565b60405180910390f35b34801561021157600080fd5b5061022c600480360381019061022791906141d1565b611b01565b6040516102399190614755565b60405180910390f35b34801561024e57600080fd5b50610257611f87565b005b34801561026557600080fd5b5061026e61200f565b60405161027b9190614786565b60405180910390f35b34801561029057600080fd5b506102ab60048036038101906102a691906147a1565b612038565b005b3480156102b957600080fd5b506102d460048036038101906102cf919061412a565b612217565b005b6102f060048036038101906102eb91906147e1565b6125a4565b005b3480156102fe57600080fd5b5061030761273a565b60405161031491906146ad565b60405180910390f35b34801561032957600080fd5b50610344600480360381019061033f91906141d1565b612dc8565b005b61035a336001612ebf90919063ffffffff16565b61036357600080fd5b3373ffffffffffffffffffffffffffffffffffffffff163273ffffffffffffffffffffffffffffffffffffffff16146103d1576040517f08c379a00000000000000000000000000000000000000000000000000000000081526004016103c89061489a565b60405180910390fd5b6000816040516020016103e491906148f3565b6040516020818303038152906040528051906020012060001c90503373ffffffffffffffffffffffffffffffffffffffff16600860008373ffffffffffffffffffffffffffffffffffffffff1673ffffffffffffffffffffffffffffffffffffffff16815260200190815260200160002060000160009054906101000a900473ffffffffffffffffffffffffffffffffffffffff1673ffffffffffffffffffffffffffffffffffffffff16146104cf576040517f08c379a00000000000000000000000000000000000000000000000000000000081526004016104c690614961565b60405180910390fd5b6000600860008373ffffffffffffffffffffffffffffffffffffffff1673ffffffffffffffffffffffffffffffffffffffff1681526020019081526020016000206004015403610554576040517f08c379a000000000000000000000000000000000000000000000000000000000815260040161054b906149cd565b60405180910390fd5b6000600860008373ffffffffffffffffffffffffffffffffffffffff1673ffffffffffffffffffffffffffffffffffffffff16815260200190815260200160002060050154146105d9576040517f08c379a00000000000000000000000000000000000000000000000000000000081526004016105d090614a39565b60405180910390fd5b6000600860008373ffffffffffffffffffffffffffffffffffffffff1673ffffffffffffffffffffffffffffffffffffffff168152602001908152602001600020600601541461065e576040517f08c379a000000000000000000000000000000000000000000000000000000000815260040161065590614aa5565b60405180910390fd5b6000600860008373ffffffffffffffffffffffffffffffffffffffff1673ffffffffffffffffffffffffffffffffffffffff16815260200190815260200160002060070154146106e3576040517f08c379a00000000000000000000000000000000000000000000000000000000081526004016106da90614b11565b60405180910390fd5b6106ec81612eef565b5050565b6106f8613035565b73ffffffffffffffffffffffffffffffffffffffff1661071661200f565b73ffffffffffffffffffffffffffffffffffffffff161461076c576040517f08c379a000000000000000000000000000000000000000000000000000000000815260040161076390614b7d565b60405180910390fd5b80600a9080519060200190610782929190613e0a565b5050565b60008173ffffffffffffffffffffffffffffffffffffffff16600760008473ffffffffffffffffffffffffffffffffffffffff1673ffffffffffffffffffffffffffffffffffffffff16815260200190815260200160002060000160009054906101000a900473ffffffffffffffffffffffffffffffffffffffff1673ffffffffffffffffffffffffffffffffffffffff16149050919050565b610828613035565b73ffffffffffffffffffffffffffffffffffffffff1661084661200f565b73ffffffffffffffffffffffffffffffffffffffff161461089c576040517f08c379a000000000000000000000000000000000000000000000000000000000815260040161089390614b7d565b60405180910390fd5b60006108a661200f565b90506108b48160095461303d565b600060098190555050565b606060006108cd6005613131565b905060008060005b8351811015610a62573373ffffffffffffffffffffffffffffffffffffffff166008600086848151811061090c5761090b614b9d565b5b602002602001015173ffffffffffffffffffffffffffffffffffffffff1673ffffffffffffffffffffffffffffffffffffffff16815260200190815260200160002060010160009054906101000a900473ffffffffffffffffffffffffffffffffffffffff1673ffffffffffffffffffffffffffffffffffffffff161480610a3b57503373ffffffffffffffffffffffffffffffffffffffff16600860008684815181106109bd576109bc614b9d565b5b602002602001015173ffffffffffffffffffffffffffffffffffffffff1673ffffffffffffffffffffffffffffffffffffffff16815260200190815260200160002060000160009054906101000a900473ffffffffffffffffffffffffffffffffffffffff1673ffffffffffffffffffffffffffffffffffffffff16145b15610a4f578180610a4b90614bfb565b9250505b8080610a5a90614bfb565b9150506108d5565b5060008167ffffffffffffffff811115610a7f57610a7e613fff565b5b604051908082528060200260200182016040528015610ab857816020015b610aa5613e90565b815260200190600190039081610a9d5790505b50905060005b8451811015610e94573373ffffffffffffffffffffffffffffffffffffffff1660086000878481518110610af557610af4614b9d565b5b602002602001015173ffffffffffffffffffffffffffffffffffffffff1673ffffffffffffffffffffffffffffffffffffffff16815260200190815260200160002060010160009054906101000a900473ffffffffffffffffffffffffffffffffffffffff1673ffffffffffffffffffffffffffffffffffffffff161480610c2457503373ffffffffffffffffffffffffffffffffffffffff1660086000878481518110610ba657610ba5614b9d565b5b602002602001015173ffffffffffffffffffffffffffffffffffffffff1673ffffffffffffffffffffffffffffffffffffffff16815260200190815260200160002060000160009054906101000a900473ffffffffffffffffffffffffffffffffffffffff1673ffffffffffffffffffffffffffffffffffffffff16145b15610e815760086000868381518110610c4057610c3f614b9d565b5b602002602001015173ffffffffffffffffffffffffffffffffffffffff1673ffffffffffffffffffffffffffffffffffffffff168152602001908152602001600020604051806101200160405290816000820160009054906101000a900473ffffffffffffffffffffffffffffffffffffffff1673ffffffffffffffffffffffffffffffffffffffff1673ffffffffffffffffffffffffffffffffffffffff1681526020016001820160009054906101000a900473ffffffffffffffffffffffffffffffffffffffff1673ffffffffffffffffffffffffffffffffffffffff1673ffffffffffffffffffffffffffffffffffffffff168152602001600282018054610d4a90614c72565b80601f0160208091040260200160405190810160405280929190818152602001828054610d7690614c72565b8015610dc35780601f10610d9857610100808354040283529160200191610dc3565b820191906000526020600020905b815481529060010190602001808311610da657829003601f168201915b505050505081526020016003820160009054906101000a900473ffffffffffffffffffffffffffffffffffffffff1673ffffffffffffffffffffffffffffffffffffffff1673ffffffffffffffffffffffffffffffffffffffff16815260200160048201548152602001600582015481526020016006820154815260200160078201548152602001600882015481525050828581518110610e6757610e66614b9d565b5b60200260200101819052508380610e7d90614bfb565b9450505b8080610e8c90614bfb565b915050610abe565b508094505050505090565b610eb3336001612ebf90919063ffffffff16565b610ebc57600080fd5b670de0b6b3a76400003414610f06576040517f08c379a0000000000000000000000000000000000000000000000000000000008152600401610efd90614cef565b60405180910390fd5b3373ffffffffffffffffffffffffffffffffffffffff163273ffffffffffffffffffffffffffffffffffffffff1614610f74576040517f08c379a0000000000000000000000000000000000000000000000000000000008152600401610f6b9061489a565b60405180910390fd5b600081604051602001610f8791906148f3565b6040516020818303038152906040528051906020012060001c90503373ffffffffffffffffffffffffffffffffffffffff16600860008373ffffffffffffffffffffffffffffffffffffffff1673ffffffffffffffffffffffffffffffffffffffff16815260200190815260200160002060000160009054906101000a900473ffffffffffffffffffffffffffffffffffffffff1673ffffffffffffffffffffffffffffffffffffffff1614611072576040517f08c379a000000000000000000000000000000000000000000000000000000000815260040161106990614961565b60405180910390fd5b6000600860008373ffffffffffffffffffffffffffffffffffffffff1673ffffffffffffffffffffffffffffffffffffffff16815260200190815260200160002060040154036110f7576040517f08c379a00000000000000000000000000000000000000000000000000000000081526004016110ee906149cd565b60405180910390fd5b6000600860008373ffffffffffffffffffffffffffffffffffffffff1673ffffffffffffffffffffffffffffffffffffffff168152602001908152602001600020600501541461117c576040517f08c379a000000000000000000000000000000000000000000000000000000000815260040161117390614a39565b60405180910390fd5b6000600860008373ffffffffffffffffffffffffffffffffffffffff1673ffffffffffffffffffffffffffffffffffffffff1681526020019081526020016000206006015414611201576040517f08c379a00000000000000000000000000000000000000000000000000000000081526004016111f890614aa5565b60405180910390fd5b6000600860008373ffffffffffffffffffffffffffffffffffffffff1673ffffffffffffffffffffffffffffffffffffffff1681526020019081526020016000206007015414611286576040517f08c379a000000000000000000000000000000000000000000000000000000000815260040161127d90614b11565b60405180910390fd5b6112908183613152565b5050565b606060006112a26001613131565b90506000815167ffffffffffffffff8111156112c1576112c0613fff565b5b6040519080825280602002602001820160405280156112f457816020015b60608152602001906001900390816112df5790505b50905060005b8251811015611af85760006007600085848151811061131c5761131b614b9d565b5b602002602001015173ffffffffffffffffffffffffffffffffffffffff1673ffffffffffffffffffffffffffffffffffffffff16815260200190815260200160002060010160009054906101000a900473ffffffffffffffffffffffffffffffffffffffff1690506000805b6007600087868151811061139f5761139e614b9d565b5b602002602001015173ffffffffffffffffffffffffffffffffffffffff1673ffffffffffffffffffffffffffffffffffffffff168152602001908152602001600020600401548110156114c6573373ffffffffffffffffffffffffffffffffffffffff168373ffffffffffffffffffffffffffffffffffffffff16636352211e60018461142c9190614d0f565b6040518263ffffffff1660e01b81526004016114489190614d74565b602060405180830381865afa158015611465573d6000803e3d6000fd5b505050506040513d601f19601f820116820180604052508101906114899190614da4565b73ffffffffffffffffffffffffffffffffffffffff16036114b35781806114af90614bfb565b9250505b80806114be90614bfb565b915050611388565b50600081036114d6575050611ae5565b6000808267ffffffffffffffff8111156114f3576114f2613fff565b5b60405190808252806020026020018201604052801561152c57816020015b611519613f1e565b8152602001906001900390816115115790505b50905060005b6007600089888151811061154957611548614b9d565b5b602002602001015173ffffffffffffffffffffffffffffffffffffffff1673ffffffffffffffffffffffffffffffffffffffff16815260200190815260200160002060040154811015611ac0573373ffffffffffffffffffffffffffffffffffffffff168573ffffffffffffffffffffffffffffffffffffffff16636352211e6001846115d69190614d0f565b6040518263ffffffff1660e01b81526004016115f29190614d74565b602060405180830381865afa15801561160f573d6000803e3d6000fd5b505050506040513d601f19601f820116820180604052508101906116339190614da4565b73ffffffffffffffffffffffffffffffffffffffff1603611aad5760018361165b9190614d0f565b82848151811061166e5761166d614b9d565b5b602002602001015160000181815250508473ffffffffffffffffffffffffffffffffffffffff16636352211e6001856116a79190614d0f565b6040518263ffffffff1660e01b81526004016116c39190614d74565b602060405180830381865afa1580156116e0573d6000803e3d6000fd5b505050506040513d601f19601f820116820180604052508101906117049190614da4565b82848151811061171757611716614b9d565b5b60200260200101516020019073ffffffffffffffffffffffffffffffffffffffff16908173ffffffffffffffffffffffffffffffffffffffff16815250508473ffffffffffffffffffffffffffffffffffffffff1663589a174360018561177e9190614d0f565b6040518263ffffffff1660e01b815260040161179a9190614d74565b602060405180830381865afa1580156117b7573d6000803e3d6000fd5b505050506040513d601f19601f820116820180604052508101906117db9190614da4565b8284815181106117ee576117ed614b9d565b5b60200260200101516040019073ffffffffffffffffffffffffffffffffffffffff16908173ffffffffffffffffffffffffffffffffffffffff1681525050848284815181106118405761183f614b9d565b5b60200260200101516060019073ffffffffffffffffffffffffffffffffffffffff16908173ffffffffffffffffffffffffffffffffffffffff16815250508473ffffffffffffffffffffffffffffffffffffffff16638da5cb5b6040518163ffffffff1660e01b8152600401602060405180830381865afa1580156118c9573d6000803e3d6000fd5b505050506040513d601f19601f820116820180604052508101906118ed9190614da4565b828481518110611900576118ff614b9d565b5b60200260200101516080019073ffffffffffffffffffffffffffffffffffffffff16908173ffffffffffffffffffffffffffffffffffffffff16815250508473ffffffffffffffffffffffffffffffffffffffff1663c87b56dd6001856119679190614d0f565b6040518263ffffffff1660e01b81526004016119839190614d74565b600060405180830381865afa1580156119a0573d6000803e3d6000fd5b505050506040513d6000823e3d601f19601f820116820180604052508101906119c99190614e41565b8284815181106119dc576119db614b9d565b5b602002602001015160a0018190525082806119f690614bfb565b9350506000828281518110611a0e57611a0d614b9d565b5b602002602001015160a00151604051602001611a2a91906148f3565b6040516020818303038152906040528051906020012060001c9050600860008273ffffffffffffffffffffffffffffffffffffffff1673ffffffffffffffffffffffffffffffffffffffff16815260200190815260200160002060050154838381518110611a9b57611a9a614b9d565b5b602002602001015160c0018181525050505b8080611ab890614bfb565b915050611532565b5080868681518110611ad557611ad4614b9d565b5b6020026020010181905250505050505b8080611af090614bfb565b9150506112fa565b50809250505090565b60606000611b0f6001613131565b905060008060005b8351811015611c63578573ffffffffffffffffffffffffffffffffffffffff1660076000868481518110611b4e57611b4d614b9d565b5b602002602001015173ffffffffffffffffffffffffffffffffffffffff1673ffffffffffffffffffffffffffffffffffffffff16815260200190815260200160002060010160009054906101000a900473ffffffffffffffffffffffffffffffffffffffff1673ffffffffffffffffffffffffffffffffffffffff1603611c5057838181518110611be257611be1614b9d565b5b6020026020010151925060076000858381518110611c0357611c02614b9d565b5b602002602001015173ffffffffffffffffffffffffffffffffffffffff1673ffffffffffffffffffffffffffffffffffffffff168152602001908152602001600020600401549150611c63565b8080611c5b90614bfb565b915050611b17565b5060008167ffffffffffffffff811115611c8057611c7f613fff565b5b604051908082528060200260200182016040528015611cb957816020015b611ca6613f1e565b815260200190600190039081611c9e5790505b5090506000600190505b828111611f7a576000879050611cd7613f1e565b85816080019073ffffffffffffffffffffffffffffffffffffffff16908173ffffffffffffffffffffffffffffffffffffffff16815250508173ffffffffffffffffffffffffffffffffffffffff1663589a1743846040518263ffffffff1660e01b8152600401611d489190614d74565b602060405180830381865afa158015611d65573d6000803e3d6000fd5b505050506040513d601f19601f82011682018060405250810190611d899190614da4565b816040019073ffffffffffffffffffffffffffffffffffffffff16908173ffffffffffffffffffffffffffffffffffffffff168152505088816060019073ffffffffffffffffffffffffffffffffffffffff16908173ffffffffffffffffffffffffffffffffffffffff1681525050828160000181815250508173ffffffffffffffffffffffffffffffffffffffff1663c87b56dd846040518263ffffffff1660e01b8152600401611e3b9190614d74565b600060405180830381865afa158015611e58573d6000803e3d6000fd5b505050506040513d6000823e3d601f19601f82011682018060405250810190611e819190614e41565b8160a001819052508173ffffffffffffffffffffffffffffffffffffffff16636352211e846040518263ffffffff1660e01b8152600401611ec29190614d74565b602060405180830381865afa158015611edf573d6000803e3d6000fd5b505050506040513d601f19601f82011682018060405250810190611f039190614da4565b816020019073ffffffffffffffffffffffffffffffffffffffff16908173ffffffffffffffffffffffffffffffffffffffff16815250508084600185611f499190614e8a565b81518110611f5a57611f59614b9d565b5b602002602001018190525050508080611f7290614bfb565b915050611cc3565b5080945050505050919050565b611f8f613035565b73ffffffffffffffffffffffffffffffffffffffff16611fad61200f565b73ffffffffffffffffffffffffffffffffffffffff1614612003576040517f08c379a0000000000000000000000000000000000000000000000000000000008152600401611ffa90614b7d565b60405180910390fd5b61200d6000613791565b565b60008060009054906101000a900473ffffffffffffffffffffffffffffffffffffffff16905090565b612040613035565b73ffffffffffffffffffffffffffffffffffffffff1661205e61200f565b73ffffffffffffffffffffffffffffffffffffffff16146120b4576040517f08c379a00000000000000000000000000000000000000000000000000000000081526004016120ab90614b7d565b60405180910390fd5b81600760008473ffffffffffffffffffffffffffffffffffffffff1673ffffffffffffffffffffffffffffffffffffffff16815260200190815260200160002060000160006101000a81548173ffffffffffffffffffffffffffffffffffffffff021916908373ffffffffffffffffffffffffffffffffffffffff16021790555080600760008473ffffffffffffffffffffffffffffffffffffffff1673ffffffffffffffffffffffffffffffffffffffff16815260200190815260200160002060010160006101000a81548173ffffffffffffffffffffffffffffffffffffffff021916908373ffffffffffffffffffffffffffffffffffffffff1602179055506000600760008473ffffffffffffffffffffffffffffffffffffffff1673ffffffffffffffffffffffffffffffffffffffff1681526020019081526020016000206004018190555061221282600161385590919063ffffffff16565b505050565b3373ffffffffffffffffffffffffffffffffffffffff163273ffffffffffffffffffffffffffffffffffffffff1614612285576040517f08c379a000000000000000000000000000000000000000000000000000000000815260040161227c9061489a565b60405180910390fd5b60008160405160200161229891906148f3565b6040516020818303038152906040528051906020012060001c90503373ffffffffffffffffffffffffffffffffffffffff16600860008373ffffffffffffffffffffffffffffffffffffffff1673ffffffffffffffffffffffffffffffffffffffff16815260200190815260200160002060010160009054906101000a900473ffffffffffffffffffffffffffffffffffffffff1673ffffffffffffffffffffffffffffffffffffffff1614612383576040517f08c379a000000000000000000000000000000000000000000000000000000000815260040161237a90614961565b60405180910390fd5b6000600860008373ffffffffffffffffffffffffffffffffffffffff1673ffffffffffffffffffffffffffffffffffffffff1681526020019081526020016000206004015403612408576040517f08c379a00000000000000000000000000000000000000000000000000000000081526004016123ff906149cd565b60405180910390fd5b6000600860008373ffffffffffffffffffffffffffffffffffffffff1673ffffffffffffffffffffffffffffffffffffffff168152602001908152602001600020600501541461248d576040517f08c379a000000000000000000000000000000000000000000000000000000000815260040161248490614a39565b60405180910390fd5b6000600860008373ffffffffffffffffffffffffffffffffffffffff1673ffffffffffffffffffffffffffffffffffffffff1681526020019081526020016000206006015414612512576040517f08c379a000000000000000000000000000000000000000000000000000000000815260040161250990614aa5565b60405180910390fd5b6000600860008373ffffffffffffffffffffffffffffffffffffffff1673ffffffffffffffffffffffffffffffffffffffff1681526020019081526020016000206007015414612597576040517f08c379a000000000000000000000000000000000000000000000000000000000815260040161258e90614b11565b60405180910390fd5b6125a081613885565b5050565b8073ffffffffffffffffffffffffffffffffffffffff16600760008373ffffffffffffffffffffffffffffffffffffffff1673ffffffffffffffffffffffffffffffffffffffff16815260200190815260200160002060000160009054906101000a900473ffffffffffffffffffffffffffffffffffffffff1673ffffffffffffffffffffffffffffffffffffffff1614612674576040517f08c379a000000000000000000000000000000000000000000000000000000000815260040161266b90614f0a565b60405180910390fd5b670de0b6b3a764000034146126be576040517f08c379a00000000000000000000000000000000000000000000000000000000081526004016126b590614cef565b60405180910390fd5b3373ffffffffffffffffffffffffffffffffffffffff163273ffffffffffffffffffffffffffffffffffffffff161461272c576040517f08c379a00000000000000000000000000000000000000000000000000000000081526004016127239061489a565b60405180910390fd5b61273681836139cb565b5050565b606060006127486001613131565b90506000815167ffffffffffffffff81111561276757612766613fff565b5b60405190808252806020026020018201604052801561279a57816020015b60608152602001906001900390816127855790505b50905060005b8251811015612dbf576000600760008584815181106127c2576127c1614b9d565b5b602002602001015173ffffffffffffffffffffffffffffffffffffffff1673ffffffffffffffffffffffffffffffffffffffff16815260200190815260200160002060010160009054906101000a900473ffffffffffffffffffffffffffffffffffffffff16905060006007600086858151811061284357612842614b9d565b5b602002602001015173ffffffffffffffffffffffffffffffffffffffff1673ffffffffffffffffffffffffffffffffffffffff1681526020019081526020016000206004015467ffffffffffffffff8111156128a2576128a1613fff565b5b6040519080825280602002602001820160405280156128db57816020015b6128c8613f1e565b8152602001906001900390816128c05790505b50905060005b600760008786815181106128f8576128f7614b9d565b5b602002602001015173ffffffffffffffffffffffffffffffffffffffff1673ffffffffffffffffffffffffffffffffffffffff16815260200190815260200160002060040154811015612d8a5760006001826129549190614d0f565b90508083838151811061296a57612969614b9d565b5b602002602001015160000181815250508373ffffffffffffffffffffffffffffffffffffffff16636352211e826040518263ffffffff1660e01b81526004016129b39190614d74565b602060405180830381865afa1580156129d0573d6000803e3d6000fd5b505050506040513d601f19601f820116820180604052508101906129f49190614da4565b838381518110612a0757612a06614b9d565b5b60200260200101516020019073ffffffffffffffffffffffffffffffffffffffff16908173ffffffffffffffffffffffffffffffffffffffff16815250508373ffffffffffffffffffffffffffffffffffffffff1663589a1743826040518263ffffffff1660e01b8152600401612a7e9190614d74565b602060405180830381865afa158015612a9b573d6000803e3d6000fd5b505050506040513d601f19601f82011682018060405250810190612abf9190614da4565b838381518110612ad257612ad1614b9d565b5b60200260200101516040019073ffffffffffffffffffffffffffffffffffffffff16908173ffffffffffffffffffffffffffffffffffffffff168152505083838381518110612b2457612b23614b9d565b5b60200260200101516060019073ffffffffffffffffffffffffffffffffffffffff16908173ffffffffffffffffffffffffffffffffffffffff16815250508373ffffffffffffffffffffffffffffffffffffffff16638da5cb5b6040518163ffffffff1660e01b8152600401602060405180830381865afa158015612bad573d6000803e3d6000fd5b505050506040513d601f19601f82011682018060405250810190612bd19190614da4565b838381518110612be457612be3614b9d565b5b60200260200101516080019073ffffffffffffffffffffffffffffffffffffffff16908173ffffffffffffffffffffffffffffffffffffffff16815250508373ffffffffffffffffffffffffffffffffffffffff1663c87b56dd826040518263ffffffff1660e01b8152600401612c5b9190614d74565b600060405180830381865afa158015612c78573d6000803e3d6000fd5b505050506040513d6000823e3d601f19601f82011682018060405250810190612ca19190614e41565b838381518110612cb457612cb3614b9d565b5b602002602001015160a001819052506000838381518110612cd857612cd7614b9d565b5b602002602001015160a00151604051602001612cf491906148f3565b6040516020818303038152906040528051906020012060001c9050600860008273ffffffffffffffffffffffffffffffffffffffff1673ffffffffffffffffffffffffffffffffffffffff16815260200190815260200160002060050154848481518110612d6557612d64614b9d565b5b602002602001015160c001818152505050508080612d8290614bfb565b9150506128e1565b5080848481518110612d9f57612d9e614b9d565b5b602002602001018190525050508080612db790614bfb565b9150506127a0565b50809250505090565b612dd0613035565b73ffffffffffffffffffffffffffffffffffffffff16612dee61200f565b73ffffffffffffffffffffffffffffffffffffffff1614612e44576040517f08c379a0000000000000000000000000000000000000000000000000000000008152600401612e3b90614b7d565b60405180910390fd5b600073ffffffffffffffffffffffffffffffffffffffff168173ffffffffffffffffffffffffffffffffffffffff1603612eb3576040517f08c379a0000000000000000000000000000000000000000000000000000000008152600401612eaa90614f9c565b60405180910390fd5b612ebc81613791565b50565b6000612ee7836000018373ffffffffffffffffffffffffffffffffffffffff1660001b613d1b565b905092915050565b6000600860008373ffffffffffffffffffffffffffffffffffffffff1673ffffffffffffffffffffffffffffffffffffffff16815260200190815260200160002060010160009054906101000a900473ffffffffffffffffffffffffffffffffffffffff16905042600860008473ffffffffffffffffffffffffffffffffffffffff1673ffffffffffffffffffffffffffffffffffffffff16815260200190815260200160002060070181905550612fe981600860008573ffffffffffffffffffffffffffffffffffffffff1673ffffffffffffffffffffffffffffffffffffffff1681526020019081526020016000206008015461303d565b6000600860008473ffffffffffffffffffffffffffffffffffffffff1673ffffffffffffffffffffffffffffffffffffffff168152602001908152602001600020600801819055505050565b600033905090565b80471015613080576040517f08c379a000000000000000000000000000000000000000000000000000000000815260040161307790615008565b60405180910390fd5b60008273ffffffffffffffffffffffffffffffffffffffff16826040516130a690615059565b60006040518083038185875af1925050503d80600081146130e3576040519150601f19603f3d011682016040523d82523d6000602084013e6130e8565b606091505b505090508061312c576040517f08c379a0000000000000000000000000000000000000000000000000000000008152600401613123906150e0565b60405180910390fd5b505050565b6060600061314183600001613d3e565b905060608190508092505050919050565b6000600860008473ffffffffffffffffffffffffffffffffffffffff1673ffffffffffffffffffffffffffffffffffffffff168152602001908152602001600020604051806101200160405290816000820160009054906101000a900473ffffffffffffffffffffffffffffffffffffffff1673ffffffffffffffffffffffffffffffffffffffff1673ffffffffffffffffffffffffffffffffffffffff1681526020016001820160009054906101000a900473ffffffffffffffffffffffffffffffffffffffff1673ffffffffffffffffffffffffffffffffffffffff1673ffffffffffffffffffffffffffffffffffffffff16815260200160028201805461325b90614c72565b80601f016020809104026020016040519081016040528092919081815260200182805461328790614c72565b80156132d45780601f106132a9576101008083540402835291602001916132d4565b820191906000526020600020905b8154815290600101906020018083116132b757829003601f168201915b505050505081526020016003820160009054906101000a900473ffffffffffffffffffffffffffffffffffffffff1673ffffffffffffffffffffffffffffffffffffffff1673ffffffffffffffffffffffffffffffffffffffff168152602001600482015481526020016005820154815260200160068201548152602001600782015481526020016008820154815250509050600060076000836000015173ffffffffffffffffffffffffffffffffffffffff1673ffffffffffffffffffffffffffffffffffffffff16815260200190815260200160002060010160009054906101000a900473ffffffffffffffffffffffffffffffffffffffff1690506000600860008673ffffffffffffffffffffffffffffffffffffffff1673ffffffffffffffffffffffffffffffffffffffff16815260200190815260200160002060010160009054906101000a900473ffffffffffffffffffffffffffffffffffffffff16905060008290508073ffffffffffffffffffffffffffffffffffffffff166304f3227986846040518363ffffffff1660e01b8152600401613479929190615100565b6020604051808303816000875af1158015613498573d6000803e3d6000fd5b505050506040513d601f19601f820116820180604052508101906134bc919061515c565b5042600860008873ffffffffffffffffffffffffffffffffffffffff1673ffffffffffffffffffffffffffffffffffffffff1681526020019081526020016000206005018190555061355c8260076000876000015173ffffffffffffffffffffffffffffffffffffffff1673ffffffffffffffffffffffffffffffffffffffff16815260200190815260200160002060020161385590919063ffffffff16565b508073ffffffffffffffffffffffffffffffffffffffff166318160ddd6040518163ffffffff1660e01b8152600401602060405180830381865afa1580156135a8573d6000803e3d6000fd5b505050506040513d601f19601f820116820180604052508101906135cc919061515c565b60076000866000015173ffffffffffffffffffffffffffffffffffffffff1673ffffffffffffffffffffffffffffffffffffffff1681526020019081526020016000206004018190555034600960008282546136289190614d0f565b92505081905550600860008773ffffffffffffffffffffffffffffffffffffffff1673ffffffffffffffffffffffffffffffffffffffff16815260200190815260200160002060080154600960008282546136839190614d0f565b925050819055506000600860008873ffffffffffffffffffffffffffffffffffffffff1673ffffffffffffffffffffffffffffffffffffffff168152602001908152602001600020600801819055507f17b479fe6cd37ed71733926b75dc8990d3845c9425e8d30c20ad59e112b892838460000151856020015187868573ffffffffffffffffffffffffffffffffffffffff166318160ddd6040518163ffffffff1660e01b8152600401602060405180830381865afa15801561374a573d6000803e3d6000fd5b505050506040513d601f19601f8201168201806040525081019061376e919061515c565b4260405161378196959493929190615189565b60405180910390a1505050505050565b60008060009054906101000a900473ffffffffffffffffffffffffffffffffffffffff169050816000806101000a81548173ffffffffffffffffffffffffffffffffffffffff021916908373ffffffffffffffffffffffffffffffffffffffff1602179055508173ffffffffffffffffffffffffffffffffffffffff168173ffffffffffffffffffffffffffffffffffffffff167f8be0079c531659141344cd1fd0a4f28419497f9722a3daafe3b4186f6b6457e060405160405180910390a35050565b600061387d836000018373ffffffffffffffffffffffffffffffffffffffff1660001b613d9a565b905092915050565b6000600860008373ffffffffffffffffffffffffffffffffffffffff1673ffffffffffffffffffffffffffffffffffffffff16815260200190815260200160002060010160009054906101000a900473ffffffffffffffffffffffffffffffffffffffff16905042600860008473ffffffffffffffffffffffffffffffffffffffff1673ffffffffffffffffffffffffffffffffffffffff1681526020019081526020016000206006018190555061397f81600860008573ffffffffffffffffffffffffffffffffffffffff1673ffffffffffffffffffffffffffffffffffffffff1681526020019081526020016000206008015461303d565b6000600860008473ffffffffffffffffffffffffffffffffffffffff1673ffffffffffffffffffffffffffffffffffffffff168152602001908152602001600020600801819055505050565b6000816040516020016139de91906148f3565b6040516020818303038152906040528051906020012060001c9050600073ffffffffffffffffffffffffffffffffffffffff16600860008373ffffffffffffffffffffffffffffffffffffffff1673ffffffffffffffffffffffffffffffffffffffff16815260200190815260200160002060000160009054906101000a900473ffffffffffffffffffffffffffffffffffffffff1673ffffffffffffffffffffffffffffffffffffffff1614613aca576040517f08c379a0000000000000000000000000000000000000000000000000000000008152600401613ac19061523d565b60405180910390fd5b613ad2613e90565b83816000019073ffffffffffffffffffffffffffffffffffffffff16908173ffffffffffffffffffffffffffffffffffffffff168152505033816020019073ffffffffffffffffffffffffffffffffffffffff16908173ffffffffffffffffffffffffffffffffffffffff168152505082816040018190525081816060019073ffffffffffffffffffffffffffffffffffffffff16908173ffffffffffffffffffffffffffffffffffffffff168152505042816080018181525050348161010001818152505080600860008473ffffffffffffffffffffffffffffffffffffffff1673ffffffffffffffffffffffffffffffffffffffff16815260200190815260200160002060008201518160000160006101000a81548173ffffffffffffffffffffffffffffffffffffffff021916908373ffffffffffffffffffffffffffffffffffffffff16021790555060208201518160010160006101000a81548173ffffffffffffffffffffffffffffffffffffffff021916908373ffffffffffffffffffffffffffffffffffffffff1602179055506040820151816002019080519060200190613c82929190613e0a565b5060608201518160030160006101000a81548173ffffffffffffffffffffffffffffffffffffffff021916908373ffffffffffffffffffffffffffffffffffffffff1602179055506080820151816004015560a0820151816005015560c0820151816006015560e082015181600701556101008201518160080155905050613d1482600561385590919063ffffffff16565b5050505050565b600080836001016000848152602001908152602001600020541415905092915050565b606081600001805480602002602001604051908101604052809291908181526020018280548015613d8e57602002820191906000526020600020905b815481526020019060010190808311613d7a575b50505050509050919050565b6000613da68383613d1b565b613dff578260000182908060018154018082558091505060019003906000526020600020016000909190919091505582600001805490508360010160008481526020019081526020016000208190555060019050613e04565b600090505b92915050565b828054613e1690614c72565b90600052602060002090601f016020900481019282613e385760008555613e7f565b82601f10613e5157805160ff1916838001178555613e7f565b82800160010185558215613e7f579182015b82811115613e7e578251825591602001919060010190613e63565b5b509050613e8c9190613fb3565b5090565b604051806101200160405280600073ffffffffffffffffffffffffffffffffffffffff168152602001600073ffffffffffffffffffffffffffffffffffffffff16815260200160608152602001600073ffffffffffffffffffffffffffffffffffffffff16815260200160008152602001600081526020016000815260200160008152602001600081525090565b6040518060e0016040528060008152602001600073ffffffffffffffffffffffffffffffffffffffff168152602001600073ffffffffffffffffffffffffffffffffffffffff168152602001600073ffffffffffffffffffffffffffffffffffffffff168152602001600073ffffffffffffffffffffffffffffffffffffffff16815260200160608152602001600081525090565b5b80821115613fcc576000816000905550600101613fb4565b5090565b6000604051905090565b600080fd5b600080fd5b600080fd5b600080fd5b6000601f19601f8301169050919050565b7f4e487b7100000000000000000000000000000000000000000000000000000000600052604160045260246000fd5b61403782613fee565b810181811067ffffffffffffffff8211171561405657614055613fff565b5b80604052505050565b6000614069613fd0565b9050614075828261402e565b919050565b600067ffffffffffffffff82111561409557614094613fff565b5b61409e82613fee565b9050602081019050919050565b82818337600083830152505050565b60006140cd6140c88461407a565b61405f565b9050828152602081018484840111156140e9576140e8613fe9565b5b6140f48482856140ab565b509392505050565b600082601f83011261411157614110613fe4565b5b81356141218482602086016140ba565b91505092915050565b6000602082840312156141405761413f613fda565b5b600082013567ffffffffffffffff81111561415e5761415d613fdf565b5b61416a848285016140fc565b91505092915050565b600073ffffffffffffffffffffffffffffffffffffffff82169050919050565b600061419e82614173565b9050919050565b6141ae81614193565b81146141b957600080fd5b50565b6000813590506141cb816141a5565b92915050565b6000602082840312156141e7576141e6613fda565b5b60006141f5848285016141bc565b91505092915050565b60008115159050919050565b614213816141fe565b82525050565b600060208201905061422e600083018461420a565b92915050565b600081519050919050565b600082825260208201905092915050565b6000819050602082019050919050565b61426981614193565b82525050565b600081519050919050565b600082825260208201905092915050565b60005b838110156142a957808201518184015260208101905061428e565b838111156142b8576000848401525b50505050565b60006142c98261426f565b6142d3818561427a565b93506142e381856020860161428b565b6142ec81613fee565b840191505092915050565b6000819050919050565b61430a816142f7565b82525050565b6000610120830160008301516143296000860182614260565b50602083015161433c6020860182614260565b506040830151848203604086015261435482826142be565b91505060608301516143696060860182614260565b50608083015161437c6080860182614301565b5060a083015161438f60a0860182614301565b5060c08301516143a260c0860182614301565b5060e08301516143b560e0860182614301565b506101008301516143ca610100860182614301565b508091505092915050565b60006143e18383614310565b905092915050565b6000602082019050919050565b600061440182614234565b61440b818561423f565b93508360208202850161441d85614250565b8060005b85811015614459578484038952815161443a85826143d5565b9450614445836143e9565b925060208a01995050600181019050614421565b50829750879550505050505092915050565b6000602082019050818103600083015261448581846143f6565b905092915050565b600081519050919050565b600082825260208201905092915050565b6000819050602082019050919050565b600081519050919050565b600082825260208201905092915050565b6000819050602082019050919050565b600060e0830160008301516144fd6000860182614301565b5060208301516145106020860182614260565b5060408301516145236040860182614260565b5060608301516145366060860182614260565b5060808301516145496080860182614260565b5060a083015184820360a086015261456182826142be565b91505060c083015161457660c0860182614301565b508091505092915050565b600061458d83836144e5565b905092915050565b6000602082019050919050565b60006145ad826144b9565b6145b781856144c4565b9350836020820285016145c9856144d5565b8060005b8581101561460557848403895281516145e68582614581565b94506145f183614595565b925060208a019950506001810190506145cd565b50829750879550505050505092915050565b600061462383836145a2565b905092915050565b6000602082019050919050565b60006146438261448d565b61464d8185614498565b93508360208202850161465f856144a9565b8060005b8581101561469b578484038952815161467c8582614617565b94506146878361462b565b925060208a01995050600181019050614663565b50829750879550505050505092915050565b600060208201905081810360008301526146c78184614638565b905092915050565b600082825260208201905092915050565b60006146eb826144b9565b6146f581856146cf565b935083602082028501614707856144d5565b8060005b8581101561474357848403895281516147248582614581565b945061472f83614595565b925060208a0199505060018101905061470b565b50829750879550505050505092915050565b6000602082019050818103600083015261476f81846146e0565b905092915050565b61478081614193565b82525050565b600060208201905061479b6000830184614777565b92915050565b600080604083850312156147b8576147b7613fda565b5b60006147c6858286016141bc565b92505060206147d7858286016141bc565b9150509250929050565b600080604083850312156147f8576147f7613fda565b5b600083013567ffffffffffffffff81111561481657614815613fdf565b5b614822858286016140fc565b9250506020614833858286016141bc565b9150509250929050565b600082825260208201905092915050565b7f74782e6f726967696e206973206e6f74206d73672e73656e6465720000000000600082015250565b6000614884601b8361483d565b915061488f8261484e565b602082019050919050565b600060208201905081810360008301526148b381614877565b9050919050565b60006148c58261426f565b6148cf818561483d565b93506148df81856020860161428b565b6148e881613fee565b840191505092915050565b6000602082019050818103600083015261490d81846148ba565b905092915050565b7f596f7520617265206e6f7420746865206f776e6572206f66204e465400000000600082015250565b600061494b601c8361483d565b915061495682614915565b602082019050919050565b6000602082019050818103600083015261497a8161493e565b9050919050565b7f52657175657374206973206e6f74206f70656e65642079657400000000000000600082015250565b60006149b760198361483d565b91506149c282614981565b602082019050919050565b600060208201905081810360008301526149e6816149aa565b9050919050565b7f5265717565737420697320616c726561647920636c6f73656400000000000000600082015250565b6000614a2360198361483d565b9150614a2e826149ed565b602082019050919050565b60006020820190508181036000830152614a5281614a16565b9050919050565b7f5265717565737420697320616c72656164792063616e63656c65640000000000600082015250565b6000614a8f601b8361483d565b9150614a9a82614a59565b602082019050919050565b60006020820190508181036000830152614abe81614a82565b9050919050565b7f5265717565737420697320616c72656164792072656a65637465640000000000600082015250565b6000614afb601b8361483d565b9150614b0682614ac5565b602082019050919050565b60006020820190508181036000830152614b2a81614aee565b9050919050565b7f4f776e61626c653a2063616c6c6572206973206e6f7420746865206f776e6572600082015250565b6000614b6760208361483d565b9150614b7282614b31565b602082019050919050565b60006020820190508181036000830152614b9681614b5a565b9050919050565b7f4e487b7100000000000000000000000000000000000000000000000000000000600052603260045260246000fd5b7f4e487b7100000000000000000000000000000000000000000000000000000000600052601160045260246000fd5b6000614c06826142f7565b91507fffffffffffffffffffffffffffffffffffffffffffffffffffffffffffffffff8203614c3857614c37614bcc565b5b600182019050919050565b7f4e487b7100000000000000000000000000000000000000000000000000000000600052602260045260246000fd5b60006002820490506001821680614c8a57607f821691505b602082108103614c9d57614c9c614c43565b5b50919050565b7f56616c756520697320696e76616c696400000000000000000000000000000000600082015250565b6000614cd960108361483d565b9150614ce482614ca3565b602082019050919050565b60006020820190508181036000830152614d0881614ccc565b9050919050565b6000614d1a826142f7565b9150614d25836142f7565b9250827fffffffffffffffffffffffffffffffffffffffffffffffffffffffffffffffff03821115614d5a57614d59614bcc565b5b828201905092915050565b614d6e816142f7565b82525050565b6000602082019050614d896000830184614d65565b92915050565b600081519050614d9e816141a5565b92915050565b600060208284031215614dba57614db9613fda565b5b6000614dc884828501614d8f565b91505092915050565b6000614de4614ddf8461407a565b61405f565b905082815260208101848484011115614e0057614dff613fe9565b5b614e0b84828561428b565b509392505050565b600082601f830112614e2857614e27613fe4565b5b8151614e38848260208601614dd1565b91505092915050565b600060208284031215614e5757614e56613fda565b5b600082015167ffffffffffffffff811115614e7557614e74613fdf565b5b614e8184828501614e13565b91505092915050565b6000614e95826142f7565b9150614ea0836142f7565b925082821015614eb357614eb2614bcc565b5b828203905092915050565b7f43656c65627269747920646f6573206e6f742065786973740000000000000000600082015250565b6000614ef460188361483d565b9150614eff82614ebe565b602082019050919050565b60006020820190508181036000830152614f2381614ee7565b9050919050565b7f4f776e61626c653a206e6577206f776e657220697320746865207a65726f206160008201527f6464726573730000000000000000000000000000000000000000000000000000602082015250565b6000614f8660268361483d565b9150614f9182614f2a565b604082019050919050565b60006020820190508181036000830152614fb581614f79565b9050919050565b7f416464726573733a20696e73756666696369656e742062616c616e6365000000600082015250565b6000614ff2601d8361483d565b9150614ffd82614fbc565b602082019050919050565b6000602082019050818103600083015261502181614fe5565b9050919050565b600081905092915050565b50565b6000615043600083615028565b915061504e82615033565b600082019050919050565b600061506482615036565b9150819050919050565b7f416464726573733a20756e61626c6520746f2073656e642076616c75652c207260008201527f6563697069656e74206d61792068617665207265766572746564000000000000602082015250565b60006150ca603a8361483d565b91506150d58261506e565b604082019050919050565b600060208201905081810360008301526150f9816150bd565b9050919050565b6000604082019050818103600083015261511a81856148ba565b90506151296020830184614777565b9392505050565b615139816142f7565b811461514457600080fd5b50565b60008151905061515681615130565b92915050565b60006020828403121561517257615171613fda565b5b600061518084828501615147565b91505092915050565b600060c08201905061519e6000830189614777565b6151ab6020830188614777565b81810360408301526151bd81876148ba565b90506151cc6060830186614777565b6151d96080830185614d65565b6151e660a0830184614d65565b979650505050505050565b7f546f6b656e555249206973206475706c69636174656400000000000000000000600082015250565b600061522760168361483d565b9150615232826151f1565b602082019050919050565b600060208201905081810360008301526152568161521a565b905091905056fea26469706673582212202fb35ccf845abca7eeafdf1629c177604e00db0ea35c7a86fb039ec148f0c58364736f6c634300080e0033",
  "immutableReferences": {},
  "source": "//SPDX-License-Identifier: MIT\r\n\r\npragma solidity ^0.8.0;\r\n\r\nimport \"@openzeppelin/contracts/utils/structs/EnumerableSet.sol\";\r\nimport \"@openzeppelin/contracts/access/Ownable.sol\";\r\nimport \"@openzeppelin/contracts/utils/Create2.sol\";\r\nimport \"@openzeppelin/contracts/utils/Address.sol\";\r\nimport \"@openzeppelin/contracts/proxy/utils/Initializable.sol\";\r\nimport \"./NFT.sol\";\r\n\r\n\r\ncontract Connection is Ownable {\r\n    using EnumerableSet for EnumerableSet.AddressSet;\r\n    using EnumerableSet for EnumerableSet.Bytes32Set;\r\n    using Address for address;\r\n\r\n    struct TokenInfo {\r\n        uint256 tokenId;\r\n        address owner;\r\n        address creator;\r\n        address tokenContractAddress;\r\n        address contractOwner;\r\n        string tokenURI;\r\n        uint256 time;\r\n    }\r\n\r\n    struct NFTInfo {\r\n        address celebrity;\r\n        address contractAddress;\r\n        EnumerableSet.AddressSet creators;\r\n        uint256 supplied;\r\n    }\r\n\r\n    struct Pool {\r\n        address celebrity;\r\n        address creator;\r\n        string tokenURI;\r\n        address _hash;\r\n        uint256 open;\r\n        uint256 close;\r\n        uint256 cancel;\r\n        uint256 reject;\r\n        uint256 depositedValue;\r\n    }\r\n\r\n    // Declare a set state variable\r\n    EnumerableSet.AddressSet private _celebrities;\r\n    EnumerableSet.AddressSet private _creators;\r\n    EnumerableSet.AddressSet private _hashes;\r\n\r\n    mapping(address => NFTInfo) private _NFTInfos;\r\n    mapping(address => Pool) private _pools;\r\n    uint256 private _withdrawableValue;\r\n    string private _initialTokenURI;\r\n    uint256 private _mintingFee;\r\n\r\n    event Mint(address celebrity, address creator, string tokenURI,\r\n        address contractAddress, uint256 tokenId, uint256 time);\r\n\r\n    constructor(string memory initialTokenURI, uint256 mintingFee) Ownable() {\r\n        _withdrawableValue = 0;\r\n        _initialTokenURI = initialTokenURI;\r\n        _mintingFee = mintingFee;\r\n    }\r\n\r\n    modifier onlyCelebrity() {\r\n        require(_celebrities.contains(msg.sender));\r\n        _;\r\n    }\r\n\r\n    function setInitialTokenURI(string memory initialTokenURI) public onlyOwner {\r\n        _initialTokenURI = initialTokenURI;\r\n    }\r\n\r\n    function register(address celebrity, address contractAddress) public onlyOwner {\r\n        _NFTInfos[celebrity].celebrity = celebrity;\r\n        _NFTInfos[celebrity].contractAddress = contractAddress;\r\n        _NFTInfos[celebrity].supplied = 0;\r\n        _celebrities.add(celebrity);\r\n    }\r\n\r\n\r\n    function isCelebrity(address celebrity) public view returns (bool) {\r\n        return _NFTInfos[celebrity].celebrity == celebrity;\r\n    }\r\n\r\n    function requestNFT(string memory tokenURI, address celebrity) public payable {\r\n        require(\r\n            _NFTInfos[celebrity].celebrity == celebrity,\r\n            \"Celebrity does not exist\"\r\n        );\r\n        require(msg.value == 1 ether, \"Value is invalid\");\r\n        require(tx.origin == msg.sender, \"tx.origin is not msg.sender\");\r\n        createPool(celebrity, tokenURI);\r\n    }\r\n\r\n\r\n    function approveNFT(string memory tokenURI) public payable onlyCelebrity {\r\n        require(msg.value == 1 ether, \"Value is invalid\");\r\n        require(tx.origin == msg.sender, \"tx.origin is not msg.sender\");\r\n\r\n        address _hash = address(\r\n            uint160(uint256(keccak256(abi.encode(tokenURI))))\r\n        );\r\n        require(\r\n            _pools[_hash].celebrity == msg.sender,\r\n            \"You are not the owner of NFT\"\r\n        );\r\n        require(_pools[_hash].open != 0, \"Request is not opened yet\");\r\n        require(_pools[_hash].close == 0, \"Request is already closed\");\r\n        require(_pools[_hash].cancel == 0, \"Request is already canceled\");\r\n        require(_pools[_hash].reject == 0, \"Request is already rejected\");\r\n        closePool(_hash, tokenURI);\r\n    }\r\n\r\n\r\n    function rejectNFT(string memory tokenURI) public onlyCelebrity {\r\n        require(tx.origin == msg.sender, \"tx.origin is not msg.sender\");\r\n\r\n        address _hash = address(\r\n            uint160(uint256(keccak256(abi.encode(tokenURI))))\r\n        );\r\n        require(\r\n            _pools[_hash].celebrity == msg.sender,\r\n            \"You are not the owner of NFT\"\r\n        );\r\n        require(_pools[_hash].open != 0, \"Request is not opened yet\");\r\n        require(_pools[_hash].close == 0, \"Request is already closed\");\r\n        require(_pools[_hash].cancel == 0, \"Request is already canceled\");\r\n        require(_pools[_hash].reject == 0, \"Request is already rejected\");\r\n        rejectPool(_hash);\r\n    }\r\n\r\n\r\n    function cancelNFT(string memory tokenURI) public {\r\n        require(tx.origin == msg.sender, \"tx.origin is not msg.sender\");\r\n\r\n        address _hash = address(\r\n            uint160(uint256(keccak256(abi.encode(tokenURI))))\r\n        );\r\n        require(\r\n            _pools[_hash].creator == msg.sender,\r\n            \"You are not the owner of NFT\"\r\n        );\r\n        require(_pools[_hash].open != 0, \"Request is not opened yet\");\r\n        require(_pools[_hash].close == 0, \"Request is already closed\");\r\n        require(_pools[_hash].cancel == 0, \"Request is already canceled\");\r\n        require(_pools[_hash].reject == 0, \"Request is already rejected\");\r\n        cancelPool(_hash);\r\n    }\r\n\r\n\r\n    function withdraw() public onlyOwner {\r\n        address _owner = owner();\r\n        Address.sendValue(payable(_owner), _withdrawableValue);\r\n        _withdrawableValue = 0;\r\n    }\r\n\r\n    function poolHistory() public view returns (Pool[] memory) {\r\n        address[] memory hashes = _hashes.values();\r\n        uint256 counter = 0;\r\n        uint256 count = 0;\r\n        for (uint256 i = 0; i < hashes.length; i++) {\r\n            if (\r\n                _pools[hashes[i]].creator == msg.sender ||\r\n                _pools[hashes[i]].celebrity == msg.sender\r\n            ) {\r\n                count++;\r\n            }\r\n        }\r\n        Pool[] memory pools = new Pool[](count);\r\n        for (uint256 i = 0; i < hashes.length; i++) {\r\n            if (\r\n                _pools[hashes[i]].creator == msg.sender ||\r\n                _pools[hashes[i]].celebrity == msg.sender\r\n            ) {\r\n                pools[counter] = _pools[hashes[i]];\r\n                counter++;\r\n            }\r\n        }\r\n        return pools;\r\n    }\r\n\r\n    function getAllNFTs() public view returns (TokenInfo[][] memory) {\r\n        address[] memory celebrities = _celebrities.values();\r\n        TokenInfo[][] memory tokenInfos = new TokenInfo[][](celebrities.length);\r\n        for (uint256 i = 0; i < celebrities.length; i++) {\r\n            NFT NFT_ = NFT(\r\n                _NFTInfos[celebrities[i]].contractAddress\r\n            );\r\n            TokenInfo[] memory temp = new TokenInfo[](\r\n                _NFTInfos[celebrities[i]].supplied\r\n            );\r\n            for (uint256 j = 0; j < _NFTInfos[celebrities[i]].supplied; j++) {\r\n                uint256 tokenId = j + 1;\r\n                temp[j].tokenId = tokenId;\r\n                temp[j].owner = NFT_.ownerOf(tokenId);\r\n                temp[j].creator = NFT_.creatorOf(tokenId);\r\n                temp[j].tokenContractAddress = address(NFT_);\r\n                temp[j].contractOwner = NFT_.owner();\r\n                temp[j].tokenURI = NFT_.tokenURI(tokenId);\r\n                address _hash = address(\r\n                    uint160(uint256(keccak256(abi.encode(temp[j].tokenURI))))\r\n                );\r\n                temp[j].time = _pools[_hash].close;\r\n            }\r\n            tokenInfos[i] = temp;\r\n        }\r\n        return tokenInfos;\r\n    }\r\n\r\n    function getOwnedNFTs() public view returns (TokenInfo[][] memory) {\r\n        address[] memory celebrities = _celebrities.values();\r\n        TokenInfo[][] memory tokenInfos = new TokenInfo[][](celebrities.length);\r\n        for (uint256 i = 0; i < celebrities.length; i++) {\r\n            NFT NFT_ = NFT(\r\n                _NFTInfos[celebrities[i]].contractAddress\r\n            );\r\n            uint256 count = 0;\r\n            for (uint256 j = 0; j < _NFTInfos[celebrities[i]].supplied; j++) {\r\n                if (NFT_.ownerOf(j + 1) == msg.sender) {\r\n                    count++;\r\n                }\r\n            }\r\n            if (count == 0) {\r\n                continue;\r\n            }\r\n            uint256 idx = 0;\r\n            TokenInfo[] memory temp = new TokenInfo[](count);\r\n            for (uint256 j = 0; j < _NFTInfos[celebrities[i]].supplied; j++) {\r\n                if (NFT_.ownerOf(j + 1) != msg.sender) {\r\n                    continue;\r\n                }\r\n                temp[idx].tokenId = idx + 1;\r\n                temp[idx].owner = NFT_.ownerOf(idx + 1);\r\n                temp[idx].creator = NFT_.creatorOf(idx + 1);\r\n                temp[idx].tokenContractAddress = address(NFT_);\r\n                temp[idx].contractOwner = NFT_.owner();\r\n                temp[idx].tokenURI = NFT_.tokenURI(idx + 1);\r\n                idx++;\r\n                address _hash = address(\r\n                    uint160(uint256(keccak256(abi.encode(temp[j].tokenURI))))\r\n                );\r\n                temp[j].time = _pools[_hash].close;\r\n            }\r\n            tokenInfos[i] = temp;\r\n        }\r\n        return tokenInfos;\r\n    }\r\n\r\n    function getNFTByContractAddress(address contractAddress) public view returns (TokenInfo[] memory) {\r\n        address[] memory celebrities = _celebrities.values();\r\n        address celebrity;\r\n        uint256 tokenCount;\r\n        for (uint256 i = 0; i < celebrities.length; i++) {\r\n            if (_NFTInfos[celebrities[i]].contractAddress == contractAddress) {\r\n                celebrity = celebrities[i];\r\n                tokenCount = _NFTInfos[celebrities[i]].supplied;\r\n                break;\r\n            }\r\n        }\r\n        TokenInfo[] memory tokenInfos = new TokenInfo[](tokenCount);\r\n        for (uint256 i = 1; i <= tokenCount; i++) {\r\n            NFT NFT_ = NFT(contractAddress);\r\n            TokenInfo memory tokenInfo;\r\n            tokenInfo.contractOwner = celebrity;\r\n            tokenInfo.creator = NFT_.creatorOf(i);\r\n            tokenInfo.tokenContractAddress = contractAddress;\r\n            tokenInfo.tokenId = i;\r\n            tokenInfo.tokenURI = NFT_.tokenURI(i);\r\n            tokenInfo.owner = NFT_.ownerOf(i);\r\n            tokenInfos[i - 1] = tokenInfo;\r\n        }\r\n        return tokenInfos;\r\n    }\r\n\r\n    function createPool(address celebrity, string memory tokenURI) internal {\r\n        address _hash = address(\r\n            uint160(uint256(keccak256(abi.encode(tokenURI))))\r\n        );\r\n        require(\r\n            _pools[_hash].celebrity == address(0),\r\n            \"TokenURI is duplicated\"\r\n        );\r\n        Pool memory pool;\r\n        pool.celebrity = celebrity;\r\n        pool.creator = msg.sender;\r\n        pool.tokenURI = tokenURI;\r\n        pool._hash = _hash;\r\n        pool.open = block.timestamp;\r\n        pool.depositedValue = msg.value;\r\n        _pools[_hash] = pool;\r\n        _hashes.add(_hash);\r\n    }\r\n\r\n    function closePool(address _hash, string memory tokenURI) internal {\r\n        Pool memory pool = _pools[_hash];\r\n\r\n        address contractAddress = _NFTInfos[pool.celebrity].contractAddress;\r\n        address creator = _pools[_hash].creator;\r\n\r\n        NFT NFT_ = NFT(contractAddress);\r\n        NFT_.mintNFT(tokenURI, creator);\r\n\r\n        _pools[_hash].close = block.timestamp;\r\n        _NFTInfos[pool.celebrity].creators.add(creator);\r\n        _NFTInfos[pool.celebrity].supplied = NFT_.totalSupply();\r\n        _withdrawableValue += msg.value;\r\n        _withdrawableValue += _pools[_hash].depositedValue;\r\n        _pools[_hash].depositedValue = 0;\r\n        emit Mint(pool.celebrity, pool.creator, tokenURI, contractAddress, NFT_.totalSupply(), block.timestamp);\r\n    }\r\n\r\n    function rejectPool(address _hash) internal {\r\n        address creator = _pools[_hash].creator;\r\n        _pools[_hash].reject = block.timestamp;\r\n        Address.sendValue(payable(creator), _pools[_hash].depositedValue);\r\n\r\n        _pools[_hash].depositedValue = 0;\r\n    }\r\n\r\n    function cancelPool(address _hash) internal {\r\n        address creator = _pools[_hash].creator;\r\n        _pools[_hash].cancel = block.timestamp;\r\n        Address.sendValue(payable(creator), _pools[_hash].depositedValue);\r\n        _pools[_hash].depositedValue = 0;\r\n    }\r\n}\r\n",
  "sourcePath": "C:\\Users\\dlscj\\VSCode\\FrontEnd\\contracts\\Connection.sol",
  "compiler": {
    "name": "solc",
    "version": "0.8.14+commit.80d49f37.Emscripten.clang"
  },
  "schemaVersion": "3.4.7",
  "updatedAt": "2022-05-21T09:34:02.600Z",
  "networkType": "ethereum",
  "devdoc": {
    "kind": "dev",
    "methods": {
      "owner()": {
        "details": "Returns the address of the current owner."
      },
      "renounceOwnership()": {
        "details": "Leaves the contract without owner. It will not be possible to call `onlyOwner` functions anymore. Can only be called by the current owner. NOTE: Renouncing ownership will leave the contract without an owner, thereby removing any functionality that is only available to the owner."
      },
      "transferOwnership(address)": {
        "details": "Transfers ownership of the contract to a new account (`newOwner`). Can only be called by the current owner."
      }
    },
    "version": 1
  },
  "userdoc": {
    "kind": "user",
    "methods": {},
    "version": 1
  }
}