{
  "contractName": "DeployedNFT",
  "abi": [
    {
      "inputs": [
        {
          "internalType": "string",
          "name": "_tokenURI",
          "type": "string"
        },
        {
          "internalType": "address",
          "name": "creator",
          "type": "address"
        }
      ],
      "name": "mintNFT",
      "outputs": [],
      "stateMutability": "nonpayable",
      "type": "function"
    },
    {
      "inputs": [],
      "name": "ownerList",
      "outputs": [
        {
          "components": [
            {
              "internalType": "uint256",
              "name": "tokenId",
              "type": "uint256"
            },
            {
              "internalType": "address",
              "name": "owner",
              "type": "address"
            },
            {
              "internalType": "address",
              "name": "creator",
              "type": "address"
            },
            {
              "internalType": "address",
              "name": "tokenContractAddress",
              "type": "address"
            }
          ],
          "internalType": "struct DeployedNFT.TokenInfo[]",
          "name": "",
          "type": "tuple[]"
        }
      ],
      "stateMutability": "view",
      "type": "function"
    }
  ],
  "bytecode": "0x608060405234801561001057600080fd5b50610416806100206000396000f3fe608060405234801561001057600080fd5b50600436106100365760003560e01c806304f322791461003b57806307c094c514610057575b600080fd5b61005560048036038101906100509190610236565b610075565b005b61005f610079565b60405161006c91906103be565b60405180910390f35b5050565b606090565b6000604051905090565b600080fd5b600080fd5b600080fd5b600080fd5b6000601f19601f8301169050919050565b7f4e487b7100000000000000000000000000000000000000000000000000000000600052604160045260246000fd5b6100e58261009c565b810181811067ffffffffffffffff82111715610104576101036100ad565b5b80604052505050565b600061011761007e565b905061012382826100dc565b919050565b600067ffffffffffffffff821115610143576101426100ad565b5b61014c8261009c565b9050602081019050919050565b82818337600083830152505050565b600061017b61017684610128565b61010d565b90508281526020810184848401111561019757610196610097565b5b6101a2848285610159565b509392505050565b600082601f8301126101bf576101be610092565b5b81356101cf848260208601610168565b91505092915050565b600073ffffffffffffffffffffffffffffffffffffffff82169050919050565b6000610203826101d8565b9050919050565b610213816101f8565b811461021e57600080fd5b50565b6000813590506102308161020a565b92915050565b6000806040838503121561024d5761024c610088565b5b600083013567ffffffffffffffff81111561026b5761026a61008d565b5b610277858286016101aa565b925050602061028885828601610221565b9150509250929050565b600081519050919050565b600082825260208201905092915050565b6000819050602082019050919050565b6000819050919050565b6102d1816102be565b82525050565b6102e0816101f8565b82525050565b6080820160008201516102fc60008501826102c8565b50602082015161030f60208501826102d7565b50604082015161032260408501826102d7565b50606082015161033560608501826102d7565b50505050565b600061034783836102e6565b60808301905092915050565b6000602082019050919050565b600061036b82610292565b610375818561029d565b9350610380836102ae565b8060005b838110156103b1578151610398888261033b565b97506103a383610353565b925050600181019050610384565b5085935050505092915050565b600060208201905081810360008301526103d88184610360565b90509291505056fea264697066735822122045fbfc36603e1558781404b2fcffda156670b7c9a65d1e2cfd44f8d0799549c664736f6c634300080d0033",
  "immutableReferences": {},
  "source": "//SPDX-License-Identifier: MIT\r\n\r\npragma solidity ^0.8.0;\r\n\r\nimport \"@openzeppelin/contracts/utils/structs/EnumerableSet.sol\";\r\nimport \"@openzeppelin/contracts/access/Ownable.sol\";\r\nimport \"@openzeppelin/contracts/utils/Create2.sol\";\r\nimport \"@openzeppelin/contracts/utils/Address.sol\";\r\nimport \"@openzeppelin/contracts/proxy/utils/Initializable.sol\";\r\n\r\ncontract DeployedNFT {\r\n    struct TokenInfo {\r\n        uint256 tokenId;\r\n        address owner;\r\n        address creator;\r\n        address tokenContractAddress;\r\n    }\r\n\r\n    function mintNFT(string memory _tokenURI, address creator) public {}\r\n\r\n    function ownerList() public view returns (TokenInfo[] memory) {}\r\n}\r\n\r\ncontract Connection is Ownable {\r\n    using EnumerableSet for EnumerableSet.AddressSet;\r\n    using EnumerableSet for EnumerableSet.Bytes32Set;\r\n    using Address for address;\r\n\r\n    struct TokenInfo {\r\n        uint256 tokenId;\r\n        address owner;\r\n        address creator;\r\n        address tokenContractAddress;\r\n    }\r\n\r\n    struct NFT {\r\n        address celebrity;\r\n        address token;\r\n        EnumerableSet.AddressSet creators;\r\n        uint256 supplied;\r\n    }\r\n\r\n    struct Pool {\r\n        address celebrity;\r\n        address creator;\r\n        string tokenURI;\r\n        address _hash;\r\n        uint256 open;\r\n        uint256 close;\r\n        uint256 cancel;\r\n    }\r\n\r\n    // Declare a set state variable\r\n    EnumerableSet.AddressSet private _celebrities;\r\n    EnumerableSet.AddressSet private _creators;\r\n    EnumerableSet.AddressSet private _hashes;\r\n\r\n    mapping(address => NFT) private _NFTInfo;\r\n    mapping(address => Pool) private _pools;\r\n\r\n    constructor() Ownable() {}\r\n\r\n    function register(address celebrity, address token) public onlyOwner {\r\n        _NFTInfo[celebrity].celebrity = celebrity;\r\n        _NFTInfo[celebrity].token = token;\r\n        _NFTInfo[celebrity].supplied = 0;\r\n        _celebrities.add(celebrity);\r\n    }\r\n\r\n    modifier onlyCelebrity() {\r\n        require(_celebrities.contains(msg.sender));\r\n        _;\r\n    }\r\n\r\n    function isCelebrity(address celebrity) public view returns (bool) {\r\n        return _NFTInfo[celebrity].celebrity == celebrity;\r\n    }\r\n\r\n    function requestNFT(string memory tokenURI, address celebrity)\r\n        public\r\n        payable\r\n    {\r\n        require(\r\n            _NFTInfo[celebrity].celebrity == celebrity,\r\n            \"Celebrity does not exsit\"\r\n        );\r\n        require(msg.value == 1 ether, \"Value is invalid\");\r\n        require(tx.origin == msg.sender, \"tx.origin is not msg.sender\");\r\n        createPool(celebrity, tokenURI);\r\n    }\r\n\r\n    function createPool(address celebrity, string memory tokenURI) internal {\r\n        address _hash = address(\r\n            uint160(uint256(keccak256(abi.encode(tokenURI))))\r\n        );\r\n        Pool memory pool;\r\n        pool.celebrity = celebrity;\r\n        pool.creator = msg.sender;\r\n        pool.tokenURI = tokenURI;\r\n        pool._hash = _hash;\r\n        pool.open = block.timestamp;\r\n        _pools[_hash] = pool;\r\n        _hashes.add(_hash);\r\n    }\r\n\r\n    function approveNFT(string memory tokenURI) public payable onlyCelebrity {\r\n        require(msg.value == 1 ether, \"Value is invalid\");\r\n        require(tx.origin == msg.sender, \"tx.origin is not msg.sender\");\r\n\r\n        address _hash = address(\r\n            uint160(uint256(keccak256(abi.encode(tokenURI))))\r\n        );\r\n        require(\r\n            _pools[_hash].celebrity == msg.sender,\r\n            \"You are not the owner of NFT\"\r\n        );\r\n        require(\r\n            _pools[_hash].open != 0,\r\n            \"Request is already canceled or closed\"\r\n        );\r\n        require(\r\n            _pools[_hash].close == 0,\r\n            \"Request is already canceled or closed\"\r\n        );\r\n        require(\r\n            _pools[_hash].cancel == 0,\r\n            \"Request is already canceled or closed\"\r\n        );\r\n\r\n        closePool(_hash, tokenURI);\r\n    }\r\n\r\n    function closePool(address _hash, string memory tokenURI) internal {\r\n        Pool memory pool = _pools[_hash];\r\n\r\n        address token = _NFTInfo[pool.celebrity].token;\r\n        address creator = _pools[_hash].creator;\r\n\r\n        DeployedNFT deployedNFT = DeployedNFT(token);\r\n        deployedNFT.mintNFT(tokenURI, creator);\r\n\r\n        _pools[_hash].close = block.timestamp;\r\n        _NFTInfo[pool.celebrity].creators.add(creator);\r\n    }\r\n\r\n    function withdraw() public onlyOwner {\r\n        address _owner = owner();\r\n        Address.sendValue(payable(_owner), address(this).balance);\r\n    }\r\n\r\n    function poolHistory() public view returns (Pool[] memory) {\r\n        address[] memory hashes = _hashes.values();\r\n        uint256 counter = 0;\r\n        uint256 count = 0;\r\n        for (uint256 i = 0; i < hashes.length; i++) {\r\n            if (\r\n                _pools[hashes[i]].creator == msg.sender ||\r\n                _pools[hashes[i]].celebrity == msg.sender\r\n            ) {\r\n                count++;\r\n            }\r\n        }\r\n        Pool[] memory pools = new Pool[](count);\r\n        for (uint256 i = 0; i < hashes.length; i++) {\r\n            if (\r\n                _pools[hashes[i]].creator == msg.sender ||\r\n                _pools[hashes[i]].celebrity == msg.sender\r\n            ) {\r\n                pools[counter] = _pools[hashes[i]];\r\n                counter++;\r\n            }\r\n        }\r\n        return pools;\r\n    }\r\n\r\n    function getAllNFTs() public view{\r\n        address[] memory celebrities = _celebrities.values();\r\n        TokenInfo[][] memory tokenInfos = new TokenInfo[][](celebrities.length);\r\n        for (uint256 i = 0; i < celebrities.length; i++) {\r\n            DeployedNFT deployedNFT = DeployedNFT(_NFTInfo[celebrities[i]].token);\r\n        }\r\n    }\r\n\r\n    fallback() external {}\r\n\r\n    receive() external payable {}\r\n}\r\n",
  "sourcePath": "C:\\Users\\dlscj\\VSCode\\klaytn-vue\\contracts\\Connection.sol",
  "compiler": {
    "name": "solc",
    "version": "0.8.13+commit.abaa5c0e.Emscripten.clang"
  },
  "schemaVersion": "3.4.7",
  "updatedAt": "2022-05-04T06:59:53.636Z",
  "devdoc": {
    "kind": "dev",
    "methods": {},
    "version": 1
  },
  "userdoc": {
    "kind": "user",
    "methods": {},
    "version": 1
  }
}