{
  "contractName": "ex",
  "abi": [
    {
      "anonymous": false,
      "inputs": [
        {
          "indexed": false,
          "internalType": "string",
          "name": "",
          "type": "string"
        }
      ],
      "name": "t",
      "type": "event"
    },
    {
      "inputs": [
        {
          "internalType": "string",
          "name": "x",
          "type": "string"
        }
      ],
      "name": "test",
      "outputs": [],
      "stateMutability": "nonpayable",
      "type": "function"
    }
  ],
  "bytecode": "0x608060405234801561001057600080fd5b50610309806100206000396000f3fe608060405234801561001057600080fd5b506004361061002b5760003560e01c8063f9fbd55414610030575b600080fd5b61004a600480360381019061004591906101e0565b61004c565b005b7f8195dced4554cc453db90a6547d9271fc73ab5ca529c946f1781198f81b025918160405161007b91906102b1565b60405180910390a150565b6000604051905090565b600080fd5b600080fd5b600080fd5b600080fd5b6000601f19601f8301169050919050565b7f4e487b7100000000000000000000000000000000000000000000000000000000600052604160045260246000fd5b6100ed826100a4565b810181811067ffffffffffffffff8211171561010c5761010b6100b5565b5b80604052505050565b600061011f610086565b905061012b82826100e4565b919050565b600067ffffffffffffffff82111561014b5761014a6100b5565b5b610154826100a4565b9050602081019050919050565b82818337600083830152505050565b600061018361017e84610130565b610115565b90508281526020810184848401111561019f5761019e61009f565b5b6101aa848285610161565b509392505050565b600082601f8301126101c7576101c661009a565b5b81356101d7848260208601610170565b91505092915050565b6000602082840312156101f6576101f5610090565b5b600082013567ffffffffffffffff81111561021457610213610095565b5b610220848285016101b2565b91505092915050565b600081519050919050565b600082825260208201905092915050565b60005b83811015610263578082015181840152602081019050610248565b83811115610272576000848401525b50505050565b600061028382610229565b61028d8185610234565b935061029d818560208601610245565b6102a6816100a4565b840191505092915050565b600060208201905081810360008301526102cb8184610278565b90509291505056fea264697066735822122005774df4c68e060ed2adbc2a112178b36fe7a9fa94bd113a8313feaaab438adb64736f6c634300080e0033",
  "immutableReferences": {},
  "source": "//SPDX-License-Identifier: MIT\r\n\r\nimport \"@openzeppelin/contracts/utils/Create2.sol\";\r\n\r\npragma solidity ^0.8.0;\r\n\r\ncontract ex{\r\n    event t(string);\r\n\r\n    function test(string memory x) public{\r\n        emit t(x);\r\n    }\r\n}",
  "sourcePath": "C:\\Users\\dlscj\\VSCode\\FrontEnd\\contracts\\ex.sol",
  "compiler": {
    "name": "solc",
    "version": "0.8.14+commit.80d49f37.Emscripten.clang"
  },
  "schemaVersion": "3.4.7",
  "updatedAt": "2022-05-21T09:31:36.015Z",
  "devdoc": {
    "kind": "dev",
    "methods": {},
    "version": 1
  },
  "userdoc": {
    "kind": "user",
    "methods": {},
    "version": 1
  }
}