{
  "contractName": "ex",
  "abi": [
    {
      "anonymous": false,
      "inputs": [
        {
          "indexed": false,
          "internalType": "uint8",
          "name": "version",
          "type": "uint8"
        }
      ],
      "name": "Initialized",
      "type": "event"
    },
    {
      "anonymous": false,
      "inputs": [
        {
          "indexed": false,
          "internalType": "string",
          "name": "",
          "type": "string"
        }
      ],
      "name": "t",
      "type": "event"
    },
    {
      "inputs": [],
      "name": "initialize",
      "outputs": [],
      "stateMutability": "nonpayable",
      "type": "function"
    }
  ],
  "bytecode": "0x608060405234801561001057600080fd5b506103c0806100206000396000f3fe608060405234801561001057600080fd5b506004361061002b5760003560e01c80638129fc1c14610030575b600080fd5b61003861003a565b005b600061004660016100fb565b9050801561006a576001600060016101000a81548160ff0219169083151502179055505b7f8195dced4554cc453db90a6547d9271fc73ab5ca529c946f1781198f81b025916040516100979061026b565b60405180910390a180156100f85760008060016101000a81548160ff0219169083151502179055507f7f26b83ff96e1f2b6a682f133852f6798a09c465da95921460cefb384740249860016040516100ef91906102dd565b60405180910390a15b50565b60008060019054906101000a900460ff16156101725760018260ff1614801561012a5750610128306101eb565b155b610169576040517f08c379a00000000000000000000000000000000000000000000000000000000081526004016101609061036a565b60405180910390fd5b600090506101e6565b8160ff1660008054906101000a900460ff1660ff16106101c7576040517f08c379a00000000000000000000000000000000000000000000000000000000081526004016101be9061036a565b60405180910390fd5b816000806101000a81548160ff021916908360ff160217905550600190505b919050565b6000808273ffffffffffffffffffffffffffffffffffffffff163b119050919050565b600082825260208201905092915050565b7f6100000000000000000000000000000000000000000000000000000000000000600082015250565b600061025560018361020e565b91506102608261021f565b602082019050919050565b6000602082019050818103600083015261028481610248565b9050919050565b6000819050919050565b600060ff82169050919050565b6000819050919050565b60006102c76102c26102bd8461028b565b6102a2565b610295565b9050919050565b6102d7816102ac565b82525050565b60006020820190506102f260008301846102ce565b92915050565b7f496e697469616c697a61626c653a20636f6e747261637420697320616c72656160008201527f647920696e697469616c697a6564000000000000000000000000000000000000602082015250565b6000610354602e8361020e565b915061035f826102f8565b604082019050919050565b6000602082019050818103600083015261038381610347565b905091905056fea264697066735822122056b1202c76b7ff7e7c0baa137f8a1ea633ecaca3885daa383b7d1f8f813340b264736f6c634300080e0033",
  "immutableReferences": {},
  "source": "//SPDX-License-Identifier: MIT\r\n\r\nimport \"@openzeppelin/contracts-upgradeable/proxy/utils/Initializable.sol\";\r\n\r\npragma solidity ^0.8.0;\r\n\r\ncontract ex is Initializable{\r\n    event t(string);\r\n\r\n    function initialize() public initializer{\r\n        emit t(\"a\");\r\n    }\r\n}",
  "sourcePath": "C:\\Users\\dlscj\\VSCode\\FrontEnd\\contracts\\ex.sol",
  "compiler": {
    "name": "solc",
    "version": "0.8.14+commit.80d49f37.Emscripten.clang"
  },
  "schemaVersion": "3.4.7",
  "updatedAt": "2022-05-27T11:23:08.669Z",
  "devdoc": {
    "kind": "dev",
    "methods": {},
    "version": 1
  },
  "userdoc": {
    "kind": "user",
    "methods": {},
    "version": 1
  }
}