{
  "contractName": "NFT",
  "abi": [
    {
      "inputs": [
        {
          "internalType": "string",
          "name": "name",
          "type": "string"
        },
        {
          "internalType": "string",
          "name": "symbol",
          "type": "string"
        },
        {
          "internalType": "address",
          "name": "celebrity",
          "type": "address"
        },
        {
          "internalType": "address",
          "name": "contractAddress",
          "type": "address"
        },
        {
          "internalType": "string",
          "name": "__contractURI",
          "type": "string"
        }
      ],
      "stateMutability": "nonpayable",
      "type": "constructor"
    },
    {
      "anonymous": false,
      "inputs": [
        {
          "indexed": true,
          "internalType": "address",
          "name": "owner",
          "type": "address"
        },
        {
          "indexed": true,
          "internalType": "address",
          "name": "approved",
          "type": "address"
        },
        {
          "indexed": true,
          "internalType": "uint256",
          "name": "tokenId",
          "type": "uint256"
        }
      ],
      "name": "Approval",
      "type": "event"
    },
    {
      "anonymous": false,
      "inputs": [
        {
          "indexed": true,
          "internalType": "address",
          "name": "owner",
          "type": "address"
        },
        {
          "indexed": true,
          "internalType": "address",
          "name": "operator",
          "type": "address"
        },
        {
          "indexed": false,
          "internalType": "bool",
          "name": "approved",
          "type": "bool"
        }
      ],
      "name": "ApprovalForAll",
      "type": "event"
    },
    {
      "anonymous": false,
      "inputs": [
        {
          "indexed": true,
          "internalType": "address",
          "name": "previousOwner",
          "type": "address"
        },
        {
          "indexed": true,
          "internalType": "address",
          "name": "newOwner",
          "type": "address"
        }
      ],
      "name": "OwnershipTransferred",
      "type": "event"
    },
    {
      "anonymous": false,
      "inputs": [
        {
          "indexed": true,
          "internalType": "address",
          "name": "from",
          "type": "address"
        },
        {
          "indexed": true,
          "internalType": "address",
          "name": "to",
          "type": "address"
        },
        {
          "indexed": true,
          "internalType": "uint256",
          "name": "tokenId",
          "type": "uint256"
        }
      ],
      "name": "Transfer",
      "type": "event"
    },
    {
      "inputs": [
        {
          "internalType": "address",
          "name": "to",
          "type": "address"
        },
        {
          "internalType": "uint256",
          "name": "tokenId",
          "type": "uint256"
        }
      ],
      "name": "approve",
      "outputs": [],
      "stateMutability": "nonpayable",
      "type": "function"
    },
    {
      "inputs": [
        {
          "internalType": "address",
          "name": "owner",
          "type": "address"
        }
      ],
      "name": "balanceOf",
      "outputs": [
        {
          "internalType": "uint256",
          "name": "",
          "type": "uint256"
        }
      ],
      "stateMutability": "view",
      "type": "function"
    },
    {
      "inputs": [
        {
          "internalType": "uint256",
          "name": "tokenId",
          "type": "uint256"
        }
      ],
      "name": "getApproved",
      "outputs": [
        {
          "internalType": "address",
          "name": "",
          "type": "address"
        }
      ],
      "stateMutability": "view",
      "type": "function"
    },
    {
      "inputs": [
        {
          "internalType": "address",
          "name": "owner",
          "type": "address"
        },
        {
          "internalType": "address",
          "name": "operator",
          "type": "address"
        }
      ],
      "name": "isApprovedForAll",
      "outputs": [
        {
          "internalType": "bool",
          "name": "",
          "type": "bool"
        }
      ],
      "stateMutability": "view",
      "type": "function"
    },
    {
      "inputs": [],
      "name": "name",
      "outputs": [
        {
          "internalType": "string",
          "name": "",
          "type": "string"
        }
      ],
      "stateMutability": "view",
      "type": "function"
    },
    {
      "inputs": [],
      "name": "owner",
      "outputs": [
        {
          "internalType": "address",
          "name": "",
          "type": "address"
        }
      ],
      "stateMutability": "view",
      "type": "function"
    },
    {
      "inputs": [
        {
          "internalType": "uint256",
          "name": "tokenId",
          "type": "uint256"
        }
      ],
      "name": "ownerOf",
      "outputs": [
        {
          "internalType": "address",
          "name": "",
          "type": "address"
        }
      ],
      "stateMutability": "view",
      "type": "function"
    },
    {
      "inputs": [],
      "name": "renounceOwnership",
      "outputs": [],
      "stateMutability": "nonpayable",
      "type": "function"
    },
    {
      "inputs": [
        {
          "internalType": "address",
          "name": "from",
          "type": "address"
        },
        {
          "internalType": "address",
          "name": "to",
          "type": "address"
        },
        {
          "internalType": "uint256",
          "name": "tokenId",
          "type": "uint256"
        }
      ],
      "name": "safeTransferFrom",
      "outputs": [],
      "stateMutability": "nonpayable",
      "type": "function"
    },
    {
      "inputs": [
        {
          "internalType": "address",
          "name": "from",
          "type": "address"
        },
        {
          "internalType": "address",
          "name": "to",
          "type": "address"
        },
        {
          "internalType": "uint256",
          "name": "tokenId",
          "type": "uint256"
        },
        {
          "internalType": "bytes",
          "name": "_data",
          "type": "bytes"
        }
      ],
      "name": "safeTransferFrom",
      "outputs": [],
      "stateMutability": "nonpayable",
      "type": "function"
    },
    {
      "inputs": [
        {
          "internalType": "address",
          "name": "operator",
          "type": "address"
        },
        {
          "internalType": "bool",
          "name": "approved",
          "type": "bool"
        }
      ],
      "name": "setApprovalForAll",
      "outputs": [],
      "stateMutability": "nonpayable",
      "type": "function"
    },
    {
      "inputs": [
        {
          "internalType": "bytes4",
          "name": "interfaceId",
          "type": "bytes4"
        }
      ],
      "name": "supportsInterface",
      "outputs": [
        {
          "internalType": "bool",
          "name": "",
          "type": "bool"
        }
      ],
      "stateMutability": "view",
      "type": "function"
    },
    {
      "inputs": [],
      "name": "symbol",
      "outputs": [
        {
          "internalType": "string",
          "name": "",
          "type": "string"
        }
      ],
      "stateMutability": "view",
      "type": "function"
    },
    {
      "inputs": [
        {
          "internalType": "uint256",
          "name": "tokenId",
          "type": "uint256"
        }
      ],
      "name": "tokenURI",
      "outputs": [
        {
          "internalType": "string",
          "name": "",
          "type": "string"
        }
      ],
      "stateMutability": "view",
      "type": "function"
    },
    {
      "inputs": [
        {
          "internalType": "address",
          "name": "from",
          "type": "address"
        },
        {
          "internalType": "address",
          "name": "to",
          "type": "address"
        },
        {
          "internalType": "uint256",
          "name": "tokenId",
          "type": "uint256"
        }
      ],
      "name": "transferFrom",
      "outputs": [],
      "stateMutability": "nonpayable",
      "type": "function"
    },
    {
      "inputs": [
        {
          "internalType": "address",
          "name": "newOwner",
          "type": "address"
        }
      ],
      "name": "transferOwnership",
      "outputs": [],
      "stateMutability": "nonpayable",
      "type": "function"
    },
    {
      "inputs": [],
      "name": "contractURI",
      "outputs": [
        {
          "internalType": "string",
          "name": "",
          "type": "string"
        }
      ],
      "stateMutability": "view",
      "type": "function"
    },
    {
      "inputs": [
        {
          "internalType": "uint256",
          "name": "tokenId",
          "type": "uint256"
        }
      ],
      "name": "creatorOf",
      "outputs": [
        {
          "internalType": "address",
          "name": "",
          "type": "address"
        }
      ],
      "stateMutability": "view",
      "type": "function"
    },
    {
      "inputs": [
        {
          "internalType": "string",
          "name": "_tokenURI",
          "type": "string"
        },
        {
          "internalType": "address",
          "name": "creator",
          "type": "address"
        }
      ],
      "name": "mintNFT",
      "outputs": [
        {
          "internalType": "uint256",
          "name": "",
          "type": "uint256"
        }
      ],
      "stateMutability": "nonpayable",
      "type": "function"
    },
    {
      "inputs": [],
      "name": "ownerList",
      "outputs": [
        {
          "components": [
            {
              "internalType": "uint256",
              "name": "tokenId",
              "type": "uint256"
            },
            {
              "internalType": "address",
              "name": "owner",
              "type": "address"
            },
            {
              "internalType": "address",
              "name": "creator",
              "type": "address"
            },
            {
              "internalType": "address",
              "name": "tokenContractAddress",
              "type": "address"
            }
          ],
          "internalType": "struct NFT.TokenInfo[]",
          "name": "",
          "type": "tuple[]"
        }
      ],
      "stateMutability": "view",
      "type": "function"
    }
  ],
  "bytecode": "0x60806040523480156200001157600080fd5b5060405162003e1038038062003e108339818101604052810190620000379190620005c2565b848481600090805190602001906200005192919062000310565b5080600190805190602001906200006a92919062000310565b5050506200008d620000816200010360201b60201c565b6200010b60201b60201c565b81600a60006101000a81548173ffffffffffffffffffffffffffffffffffffffff021916908373ffffffffffffffffffffffffffffffffffffffff16021790555080600b9080519060200190620000e692919062000310565b50620000f883620001d160201b60201c565b505050505062000826565b600033905090565b6000600760009054906101000a900473ffffffffffffffffffffffffffffffffffffffff16905081600760006101000a81548173ffffffffffffffffffffffffffffffffffffffff021916908373ffffffffffffffffffffffffffffffffffffffff1602179055508173ffffffffffffffffffffffffffffffffffffffff168173ffffffffffffffffffffffffffffffffffffffff167f8be0079c531659141344cd1fd0a4f28419497f9722a3daafe3b4186f6b6457e060405160405180910390a35050565b620001e16200010360201b60201c565b73ffffffffffffffffffffffffffffffffffffffff1662000207620002e660201b60201c565b73ffffffffffffffffffffffffffffffffffffffff161462000260576040517f08c379a0000000000000000000000000000000000000000000000000000000008152600401620002579062000708565b60405180910390fd5b600073ffffffffffffffffffffffffffffffffffffffff168173ffffffffffffffffffffffffffffffffffffffff1603620002d2576040517f08c379a0000000000000000000000000000000000000000000000000000000008152600401620002c990620007a0565b60405180910390fd5b620002e3816200010b60201b60201c565b50565b6000600760009054906101000a900473ffffffffffffffffffffffffffffffffffffffff16905090565b8280546200031e90620007f1565b90600052602060002090601f0160209004810192826200034257600085556200038e565b82601f106200035d57805160ff19168380011785556200038e565b828001600101855582156200038e579182015b828111156200038d57825182559160200191906001019062000370565b5b5090506200039d9190620003a1565b5090565b5b80821115620003bc576000816000905550600101620003a2565b5090565b6000604051905090565b600080fd5b600080fd5b600080fd5b600080fd5b6000601f19601f8301169050919050565b7f4e487b7100000000000000000000000000000000000000000000000000000000600052604160045260246000fd5b6200042982620003de565b810181811067ffffffffffffffff821117156200044b576200044a620003ef565b5b80604052505050565b600062000460620003c0565b90506200046e82826200041e565b919050565b600067ffffffffffffffff821115620004915762000490620003ef565b5b6200049c82620003de565b9050602081019050919050565b60005b83811015620004c9578082015181840152602081019050620004ac565b83811115620004d9576000848401525b50505050565b6000620004f6620004f08462000473565b62000454565b905082815260208101848484011115620005155762000514620003d9565b5b62000522848285620004a9565b509392505050565b600082601f830112620005425762000541620003d4565b5b815162000554848260208601620004df565b91505092915050565b600073ffffffffffffffffffffffffffffffffffffffff82169050919050565b60006200058a826200055d565b9050919050565b6200059c816200057d565b8114620005a857600080fd5b50565b600081519050620005bc8162000591565b92915050565b600080600080600060a08688031215620005e157620005e0620003ca565b5b600086015167ffffffffffffffff811115620006025762000601620003cf565b5b62000610888289016200052a565b955050602086015167ffffffffffffffff811115620006345762000633620003cf565b5b62000642888289016200052a565b94505060406200065588828901620005ab565b93505060606200066888828901620005ab565b925050608086015167ffffffffffffffff8111156200068c576200068b620003cf565b5b6200069a888289016200052a565b9150509295509295909350565b600082825260208201905092915050565b7f4f776e61626c653a2063616c6c6572206973206e6f7420746865206f776e6572600082015250565b6000620006f0602083620006a7565b9150620006fd82620006b8565b602082019050919050565b600060208201905081810360008301526200072381620006e1565b9050919050565b7f4f776e61626c653a206e6577206f776e657220697320746865207a65726f206160008201527f6464726573730000000000000000000000000000000000000000000000000000602082015250565b600062000788602683620006a7565b915062000795826200072a565b604082019050919050565b60006020820190508181036000830152620007bb8162000779565b9050919050565b7f4e487b7100000000000000000000000000000000000000000000000000000000600052602260045260246000fd5b600060028204905060018216806200080a57607f821691505b60208210810362000820576200081f620007c2565b5b50919050565b6135da80620008366000396000f3fe608060405234801561001057600080fd5b506004361061012c5760003560e01c806370a08231116100ad578063b88d4fde11610071578063b88d4fde14610343578063c87b56dd1461035f578063e8a3d4851461038f578063e985e9c5146103ad578063f2fde38b146103dd5761012c565b806370a08231146102b1578063715018a6146102e15780638da5cb5b146102eb57806395d89b4114610309578063a22cb465146103275761012c565b8063095ea7b3116100f4578063095ea7b3146101fd57806323b872dd1461021957806342842e0e14610235578063589a1743146102515780636352211e146102815761012c565b806301ffc9a71461013157806304f322791461016157806306fdde031461019157806307c094c5146101af578063081812fc146101cd575b600080fd5b61014b600480360381019061014691906120fc565b6103f9565b6040516101589190612144565b60405180910390f35b61017b60048036038101906101769190612303565b6104db565b6040516101889190612378565b60405180910390f35b6101996105ad565b6040516101a6919061241b565b60405180910390f35b6101b761063f565b6040516101c4919061255f565b60405180910390f35b6101e760048036038101906101e291906125ad565b610896565b6040516101f491906125e9565b60405180910390f35b61021760048036038101906102129190612604565b61091b565b005b610233600480360381019061022e9190612644565b610a32565b005b61024f600480360381019061024a9190612644565b610a92565b005b61026b600480360381019061026691906125ad565b610ab2565b60405161027891906125e9565b60405180910390f35b61029b600480360381019061029691906125ad565b610aef565b6040516102a891906125e9565b60405180910390f35b6102cb60048036038101906102c69190612697565b610ba0565b6040516102d89190612378565b60405180910390f35b6102e9610c57565b005b6102f3610cdf565b60405161030091906125e9565b60405180910390f35b610311610d09565b60405161031e919061241b565b60405180910390f35b610341600480360381019061033c91906126f0565b610d9b565b005b61035d600480360381019061035891906127d1565b610db1565b005b610379600480360381019061037491906125ad565b610e13565b604051610386919061241b565b60405180910390f35b610397610f64565b6040516103a4919061241b565b60405180910390f35b6103c760048036038101906103c29190612854565b610ff6565b6040516103d49190612144565b60405180910390f35b6103f760048036038101906103f29190612697565b61108a565b005b60007f80ac58cd000000000000000000000000000000000000000000000000000000007bffffffffffffffffffffffffffffffffffffffffffffffffffffffff1916827bffffffffffffffffffffffffffffffffffffffffffffffffffffffff191614806104c457507f5b5e139f000000000000000000000000000000000000000000000000000000007bffffffffffffffffffffffffffffffffffffffffffffffffffffffff1916827bffffffffffffffffffffffffffffffffffffffffffffffffffffffff1916145b806104d457506104d382611181565b5b9050919050565b6000600a60009054906101000a900473ffffffffffffffffffffffffffffffffffffffff1673ffffffffffffffffffffffffffffffffffffffff163373ffffffffffffffffffffffffffffffffffffffff161461056d576040517f08c379a0000000000000000000000000000000000000000000000000000000008152600401610564906128e0565b60405180910390fd5b61057760086111eb565b60006105836008611201565b905061058f838261120f565b61059981856113e8565b6105a3818461145c565b8091505092915050565b6060600080546105bc9061292f565b80601f01602080910402602001604051908101604052809291908181526020018280546105e89061292f565b80156106355780601f1061060a57610100808354040283529160200191610635565b820191906000526020600020905b81548152906001019060200180831161061857829003601f168201915b5050505050905090565b6060600061064d6008611201565b67ffffffffffffffff8111156106665761066561217a565b5b60405190808252806020026020018201604052801561069f57816020015b61068c611f83565b8152602001906001900390816106845790505b50905060005b6106af6008611201565b81101561088e576001816106c3919061298f565b8282815181106106d6576106d56129e5565b5b602002602001015160000181815250506106ee610cdf565b828281518110610701576107006129e5565b5b60200260200101516020019073ffffffffffffffffffffffffffffffffffffffff16908173ffffffffffffffffffffffffffffffffffffffff168152505060096000600183610750919061298f565b815260200190815260200160002060009054906101000a900473ffffffffffffffffffffffffffffffffffffffff16828281518110610792576107916129e5565b5b60200260200101516040019073ffffffffffffffffffffffffffffffffffffffff16908173ffffffffffffffffffffffffffffffffffffffff16815250506107d8610cdf565b8282815181106107eb576107ea6129e5565b5b60200260200101516020019073ffffffffffffffffffffffffffffffffffffffff16908173ffffffffffffffffffffffffffffffffffffffff16815250503082828151811061083d5761083c6129e5565b5b60200260200101516060019073ffffffffffffffffffffffffffffffffffffffff16908173ffffffffffffffffffffffffffffffffffffffff1681525050808061088690612a14565b9150506106a5565b508091505090565b60006108a1826114b2565b6108e0576040517f08c379a00000000000000000000000000000000000000000000000000000000081526004016108d790612ace565b60405180910390fd5b6004600083815260200190815260200160002060009054906101000a900473ffffffffffffffffffffffffffffffffffffffff169050919050565b600061092682610aef565b90508073ffffffffffffffffffffffffffffffffffffffff168373ffffffffffffffffffffffffffffffffffffffff1603610996576040517f08c379a000000000000000000000000000000000000000000000000000000000815260040161098d90612b60565b60405180910390fd5b8073ffffffffffffffffffffffffffffffffffffffff166109b561151e565b73ffffffffffffffffffffffffffffffffffffffff1614806109e457506109e3816109de61151e565b610ff6565b5b610a23576040517f08c379a0000000000000000000000000000000000000000000000000000000008152600401610a1a90612bf2565b60405180910390fd5b610a2d8383611526565b505050565b610a43610a3d61151e565b826115df565b610a82576040517f08c379a0000000000000000000000000000000000000000000000000000000008152600401610a7990612c84565b60405180910390fd5b610a8d8383836116bd565b505050565b610aad83838360405180602001604052806000815250610db1565b505050565b60006009600083815260200190815260200160002060009054906101000a900473ffffffffffffffffffffffffffffffffffffffff169050919050565b6000806002600084815260200190815260200160002060009054906101000a900473ffffffffffffffffffffffffffffffffffffffff169050600073ffffffffffffffffffffffffffffffffffffffff168173ffffffffffffffffffffffffffffffffffffffff1603610b97576040517f08c379a0000000000000000000000000000000000000000000000000000000008152600401610b8e90612d16565b60405180910390fd5b80915050919050565b60008073ffffffffffffffffffffffffffffffffffffffff168273ffffffffffffffffffffffffffffffffffffffff1603610c10576040517f08c379a0000000000000000000000000000000000000000000000000000000008152600401610c0790612da8565b60405180910390fd5b600360008373ffffffffffffffffffffffffffffffffffffffff1673ffffffffffffffffffffffffffffffffffffffff168152602001908152602001600020549050919050565b610c5f61151e565b73ffffffffffffffffffffffffffffffffffffffff16610c7d610cdf565b73ffffffffffffffffffffffffffffffffffffffff1614610cd3576040517f08c379a0000000000000000000000000000000000000000000000000000000008152600401610cca906128e0565b60405180910390fd5b610cdd6000611923565b565b6000600760009054906101000a900473ffffffffffffffffffffffffffffffffffffffff16905090565b606060018054610d189061292f565b80601f0160208091040260200160405190810160405280929190818152602001828054610d449061292f565b8015610d915780601f10610d6657610100808354040283529160200191610d91565b820191906000526020600020905b815481529060010190602001808311610d7457829003601f168201915b5050505050905090565b610dad610da661151e565b83836119e9565b5050565b610dc2610dbc61151e565b836115df565b610e01576040517f08c379a0000000000000000000000000000000000000000000000000000000008152600401610df890612c84565b60405180910390fd5b610e0d84848484611b55565b50505050565b6060610e1e826114b2565b610e5d576040517f08c379a0000000000000000000000000000000000000000000000000000000008152600401610e5490612e3a565b60405180910390fd5b6000600660008481526020019081526020016000208054610e7d9061292f565b80601f0160208091040260200160405190810160405280929190818152602001828054610ea99061292f565b8015610ef65780601f10610ecb57610100808354040283529160200191610ef6565b820191906000526020600020905b815481529060010190602001808311610ed957829003601f168201915b505050505090506000610f07611bb1565b90506000815103610f1c578192505050610f5f565b600082511115610f51578082604051602001610f39929190612e96565b60405160208183030381529060405292505050610f5f565b610f5a84611bc8565b925050505b919050565b6060600b8054610f739061292f565b80601f0160208091040260200160405190810160405280929190818152602001828054610f9f9061292f565b8015610fec5780601f10610fc157610100808354040283529160200191610fec565b820191906000526020600020905b815481529060010190602001808311610fcf57829003601f168201915b5050505050905090565b6000600560008473ffffffffffffffffffffffffffffffffffffffff1673ffffffffffffffffffffffffffffffffffffffff16815260200190815260200160002060008373ffffffffffffffffffffffffffffffffffffffff1673ffffffffffffffffffffffffffffffffffffffff16815260200190815260200160002060009054906101000a900460ff16905092915050565b61109261151e565b73ffffffffffffffffffffffffffffffffffffffff166110b0610cdf565b73ffffffffffffffffffffffffffffffffffffffff1614611106576040517f08c379a00000000000000000000000000000000000000000000000000000000081526004016110fd906128e0565b60405180910390fd5b600073ffffffffffffffffffffffffffffffffffffffff168173ffffffffffffffffffffffffffffffffffffffff1603611175576040517f08c379a000000000000000000000000000000000000000000000000000000000815260040161116c90612f2c565b60405180910390fd5b61117e81611923565b50565b60007f01ffc9a7000000000000000000000000000000000000000000000000000000007bffffffffffffffffffffffffffffffffffffffffffffffffffffffff1916827bffffffffffffffffffffffffffffffffffffffffffffffffffffffff1916149050919050565b6001816000016000828254019250508190555050565b600081600001549050919050565b600073ffffffffffffffffffffffffffffffffffffffff168273ffffffffffffffffffffffffffffffffffffffff160361127e576040517f08c379a000000000000000000000000000000000000000000000000000000000815260040161127590612f98565b60405180910390fd5b611287816114b2565b156112c7576040517f08c379a00000000000000000000000000000000000000000000000000000000081526004016112be90613004565b60405180910390fd5b6112d360008383611c6f565b6001600360008473ffffffffffffffffffffffffffffffffffffffff1673ffffffffffffffffffffffffffffffffffffffff1681526020019081526020016000206000828254611323919061298f565b92505081905550816002600083815260200190815260200160002060006101000a81548173ffffffffffffffffffffffffffffffffffffffff021916908373ffffffffffffffffffffffffffffffffffffffff160217905550808273ffffffffffffffffffffffffffffffffffffffff16600073ffffffffffffffffffffffffffffffffffffffff167fddf252ad1be2c89b69c2b068fc378daa952ba7f163c4a11628f55a4df523b3ef60405160405180910390a46113e460008383611c74565b5050565b6113f1826114b2565b611430576040517f08c379a000000000000000000000000000000000000000000000000000000000815260040161142790613096565b60405180910390fd5b80600660008481526020019081526020016000209080519060200190611457929190611fed565b505050565b806009600084815260200190815260200160002060006101000a81548173ffffffffffffffffffffffffffffffffffffffff021916908373ffffffffffffffffffffffffffffffffffffffff1602179055505050565b60008073ffffffffffffffffffffffffffffffffffffffff166002600084815260200190815260200160002060009054906101000a900473ffffffffffffffffffffffffffffffffffffffff1673ffffffffffffffffffffffffffffffffffffffff1614159050919050565b600033905090565b816004600083815260200190815260200160002060006101000a81548173ffffffffffffffffffffffffffffffffffffffff021916908373ffffffffffffffffffffffffffffffffffffffff160217905550808273ffffffffffffffffffffffffffffffffffffffff1661159983610aef565b73ffffffffffffffffffffffffffffffffffffffff167f8c5be1e5ebec7d5bd14f71427d1e84f3dd0314c0f7b2291e5b200ac8c7c3b92560405160405180910390a45050565b60006115ea826114b2565b611629576040517f08c379a000000000000000000000000000000000000000000000000000000000815260040161162090613128565b60405180910390fd5b600061163483610aef565b90508073ffffffffffffffffffffffffffffffffffffffff168473ffffffffffffffffffffffffffffffffffffffff1614806116a357508373ffffffffffffffffffffffffffffffffffffffff1661168b84610896565b73ffffffffffffffffffffffffffffffffffffffff16145b806116b457506116b38185610ff6565b5b91505092915050565b8273ffffffffffffffffffffffffffffffffffffffff166116dd82610aef565b73ffffffffffffffffffffffffffffffffffffffff1614611733576040517f08c379a000000000000000000000000000000000000000000000000000000000815260040161172a906131ba565b60405180910390fd5b600073ffffffffffffffffffffffffffffffffffffffff168273ffffffffffffffffffffffffffffffffffffffff16036117a2576040517f08c379a00000000000000000000000000000000000000000000000000000000081526004016117999061324c565b60405180910390fd5b6117ad838383611c6f565b6117b8600082611526565b6001600360008573ffffffffffffffffffffffffffffffffffffffff1673ffffffffffffffffffffffffffffffffffffffff1681526020019081526020016000206000828254611808919061326c565b925050819055506001600360008473ffffffffffffffffffffffffffffffffffffffff1673ffffffffffffffffffffffffffffffffffffffff168152602001908152602001600020600082825461185f919061298f565b92505081905550816002600083815260200190815260200160002060006101000a81548173ffffffffffffffffffffffffffffffffffffffff021916908373ffffffffffffffffffffffffffffffffffffffff160217905550808273ffffffffffffffffffffffffffffffffffffffff168473ffffffffffffffffffffffffffffffffffffffff167fddf252ad1be2c89b69c2b068fc378daa952ba7f163c4a11628f55a4df523b3ef60405160405180910390a461191e838383611c74565b505050565b6000600760009054906101000a900473ffffffffffffffffffffffffffffffffffffffff16905081600760006101000a81548173ffffffffffffffffffffffffffffffffffffffff021916908373ffffffffffffffffffffffffffffffffffffffff1602179055508173ffffffffffffffffffffffffffffffffffffffff168173ffffffffffffffffffffffffffffffffffffffff167f8be0079c531659141344cd1fd0a4f28419497f9722a3daafe3b4186f6b6457e060405160405180910390a35050565b8173ffffffffffffffffffffffffffffffffffffffff168373ffffffffffffffffffffffffffffffffffffffff1603611a57576040517f08c379a0000000000000000000000000000000000000000000000000000000008152600401611a4e906132ec565b60405180910390fd5b80600560008573ffffffffffffffffffffffffffffffffffffffff1673ffffffffffffffffffffffffffffffffffffffff16815260200190815260200160002060008473ffffffffffffffffffffffffffffffffffffffff1673ffffffffffffffffffffffffffffffffffffffff16815260200190815260200160002060006101000a81548160ff0219169083151502179055508173ffffffffffffffffffffffffffffffffffffffff168373ffffffffffffffffffffffffffffffffffffffff167f17307eab39ab6107e8899845ad3d59bd9653f200f220920489ca2b5937696c3183604051611b489190612144565b60405180910390a3505050565b611b608484846116bd565b611b6c84848484611c79565b611bab576040517f08c379a0000000000000000000000000000000000000000000000000000000008152600401611ba29061337e565b60405180910390fd5b50505050565b606060405180602001604052806000815250905090565b6060611bd3826114b2565b611c12576040517f08c379a0000000000000000000000000000000000000000000000000000000008152600401611c0990613410565b60405180910390fd5b6000611c1c611bb1565b90506000815111611c3c5760405180602001604052806000815250611c67565b80611c4684611e00565b604051602001611c57929190612e96565b6040516020818303038152906040525b915050919050565b505050565b505050565b6000611c9a8473ffffffffffffffffffffffffffffffffffffffff16611f60565b15611df3578373ffffffffffffffffffffffffffffffffffffffff1663150b7a02611cc361151e565b8786866040518563ffffffff1660e01b8152600401611ce59493929190613485565b6020604051808303816000875af1925050508015611d2157506040513d601f19601f82011682018060405250810190611d1e91906134e6565b60015b611da3573d8060008114611d51576040519150601f19603f3d011682016040523d82523d6000602084013e611d56565b606091505b506000815103611d9b576040517f08c379a0000000000000000000000000000000000000000000000000000000008152600401611d929061337e565b60405180910390fd5b805181602001fd5b63150b7a0260e01b7bffffffffffffffffffffffffffffffffffffffffffffffffffffffff1916817bffffffffffffffffffffffffffffffffffffffffffffffffffffffff191614915050611df8565b600190505b949350505050565b606060008203611e47576040518060400160405280600181526020017f30000000000000000000000000000000000000000000000000000000000000008152509050611f5b565b600082905060005b60008214611e79578080611e6290612a14565b915050600a82611e729190613542565b9150611e4f565b60008167ffffffffffffffff811115611e9557611e9461217a565b5b6040519080825280601f01601f191660200182016040528015611ec75781602001600182028036833780820191505090505b5090505b60008514611f5457600182611ee0919061326c565b9150600a85611eef9190613573565b6030611efb919061298f565b60f81b818381518110611f1157611f106129e5565b5b60200101907effffffffffffffffffffffffffffffffffffffffffffffffffffffffffffff1916908160001a905350600a85611f4d9190613542565b9450611ecb565b8093505050505b919050565b6000808273ffffffffffffffffffffffffffffffffffffffff163b119050919050565b604051806080016040528060008152602001600073ffffffffffffffffffffffffffffffffffffffff168152602001600073ffffffffffffffffffffffffffffffffffffffff168152602001600073ffffffffffffffffffffffffffffffffffffffff1681525090565b828054611ff99061292f565b90600052602060002090601f01602090048101928261201b5760008555612062565b82601f1061203457805160ff1916838001178555612062565b82800160010185558215612062579182015b82811115612061578251825591602001919060010190612046565b5b50905061206f9190612073565b5090565b5b8082111561208c576000816000905550600101612074565b5090565b6000604051905090565b600080fd5b600080fd5b60007fffffffff0000000000000000000000000000000000000000000000000000000082169050919050565b6120d9816120a4565b81146120e457600080fd5b50565b6000813590506120f6816120d0565b92915050565b6000602082840312156121125761211161209a565b5b6000612120848285016120e7565b91505092915050565b60008115159050919050565b61213e81612129565b82525050565b60006020820190506121596000830184612135565b92915050565b600080fd5b600080fd5b6000601f19601f8301169050919050565b7f4e487b7100000000000000000000000000000000000000000000000000000000600052604160045260246000fd5b6121b282612169565b810181811067ffffffffffffffff821117156121d1576121d061217a565b5b80604052505050565b60006121e4612090565b90506121f082826121a9565b919050565b600067ffffffffffffffff8211156122105761220f61217a565b5b61221982612169565b9050602081019050919050565b82818337600083830152505050565b6000612248612243846121f5565b6121da565b90508281526020810184848401111561226457612263612164565b5b61226f848285612226565b509392505050565b600082601f83011261228c5761228b61215f565b5b813561229c848260208601612235565b91505092915050565b600073ffffffffffffffffffffffffffffffffffffffff82169050919050565b60006122d0826122a5565b9050919050565b6122e0816122c5565b81146122eb57600080fd5b50565b6000813590506122fd816122d7565b92915050565b6000806040838503121561231a5761231961209a565b5b600083013567ffffffffffffffff8111156123385761233761209f565b5b61234485828601612277565b9250506020612355858286016122ee565b9150509250929050565b6000819050919050565b6123728161235f565b82525050565b600060208201905061238d6000830184612369565b92915050565b600081519050919050565b600082825260208201905092915050565b60005b838110156123cd5780820151818401526020810190506123b2565b838111156123dc576000848401525b50505050565b60006123ed82612393565b6123f7818561239e565b93506124078185602086016123af565b61241081612169565b840191505092915050565b6000602082019050818103600083015261243581846123e2565b905092915050565b600081519050919050565b600082825260208201905092915050565b6000819050602082019050919050565b6124728161235f565b82525050565b612481816122c5565b82525050565b60808201600082015161249d6000850182612469565b5060208201516124b06020850182612478565b5060408201516124c36040850182612478565b5060608201516124d66060850182612478565b50505050565b60006124e88383612487565b60808301905092915050565b6000602082019050919050565b600061250c8261243d565b6125168185612448565b935061252183612459565b8060005b8381101561255257815161253988826124dc565b9750612544836124f4565b925050600181019050612525565b5085935050505092915050565b600060208201905081810360008301526125798184612501565b905092915050565b61258a8161235f565b811461259557600080fd5b50565b6000813590506125a781612581565b92915050565b6000602082840312156125c3576125c261209a565b5b60006125d184828501612598565b91505092915050565b6125e3816122c5565b82525050565b60006020820190506125fe60008301846125da565b92915050565b6000806040838503121561261b5761261a61209a565b5b6000612629858286016122ee565b925050602061263a85828601612598565b9150509250929050565b60008060006060848603121561265d5761265c61209a565b5b600061266b868287016122ee565b935050602061267c868287016122ee565b925050604061268d86828701612598565b9150509250925092565b6000602082840312156126ad576126ac61209a565b5b60006126bb848285016122ee565b91505092915050565b6126cd81612129565b81146126d857600080fd5b50565b6000813590506126ea816126c4565b92915050565b600080604083850312156127075761270661209a565b5b6000612715858286016122ee565b9250506020612726858286016126db565b9150509250929050565b600067ffffffffffffffff82111561274b5761274a61217a565b5b61275482612169565b9050602081019050919050565b600061277461276f84612730565b6121da565b9050828152602081018484840111156127905761278f612164565b5b61279b848285612226565b509392505050565b600082601f8301126127b8576127b761215f565b5b81356127c8848260208601612761565b91505092915050565b600080600080608085870312156127eb576127ea61209a565b5b60006127f9878288016122ee565b945050602061280a878288016122ee565b935050604061281b87828801612598565b925050606085013567ffffffffffffffff81111561283c5761283b61209f565b5b612848878288016127a3565b91505092959194509250565b6000806040838503121561286b5761286a61209a565b5b6000612879858286016122ee565b925050602061288a858286016122ee565b9150509250929050565b7f4f776e61626c653a2063616c6c6572206973206e6f7420746865206f776e6572600082015250565b60006128ca60208361239e565b91506128d582612894565b602082019050919050565b600060208201905081810360008301526128f9816128bd565b9050919050565b7f4e487b7100000000000000000000000000000000000000000000000000000000600052602260045260246000fd5b6000600282049050600182168061294757607f821691505b60208210810361295a57612959612900565b5b50919050565b7f4e487b7100000000000000000000000000000000000000000000000000000000600052601160045260246000fd5b600061299a8261235f565b91506129a58361235f565b9250827fffffffffffffffffffffffffffffffffffffffffffffffffffffffffffffffff038211156129da576129d9612960565b5b828201905092915050565b7f4e487b7100000000000000000000000000000000000000000000000000000000600052603260045260246000fd5b6000612a1f8261235f565b91507fffffffffffffffffffffffffffffffffffffffffffffffffffffffffffffffff8203612a5157612a50612960565b5b600182019050919050565b7f4552433732313a20617070726f76656420717565727920666f72206e6f6e657860008201527f697374656e7420746f6b656e0000000000000000000000000000000000000000602082015250565b6000612ab8602c8361239e565b9150612ac382612a5c565b604082019050919050565b60006020820190508181036000830152612ae781612aab565b9050919050565b7f4552433732313a20617070726f76616c20746f2063757272656e74206f776e6560008201527f7200000000000000000000000000000000000000000000000000000000000000602082015250565b6000612b4a60218361239e565b9150612b5582612aee565b604082019050919050565b60006020820190508181036000830152612b7981612b3d565b9050919050565b7f4552433732313a20617070726f76652063616c6c6572206973206e6f74206f7760008201527f6e6572206e6f7220617070726f76656420666f7220616c6c0000000000000000602082015250565b6000612bdc60388361239e565b9150612be782612b80565b604082019050919050565b60006020820190508181036000830152612c0b81612bcf565b9050919050565b7f4552433732313a207472616e736665722063616c6c6572206973206e6f74206f60008201527f776e6572206e6f7220617070726f766564000000000000000000000000000000602082015250565b6000612c6e60318361239e565b9150612c7982612c12565b604082019050919050565b60006020820190508181036000830152612c9d81612c61565b9050919050565b7f4552433732313a206f776e657220717565727920666f72206e6f6e657869737460008201527f656e7420746f6b656e0000000000000000000000000000000000000000000000602082015250565b6000612d0060298361239e565b9150612d0b82612ca4565b604082019050919050565b60006020820190508181036000830152612d2f81612cf3565b9050919050565b7f4552433732313a2062616c616e636520717565727920666f7220746865207a6560008201527f726f206164647265737300000000000000000000000000000000000000000000602082015250565b6000612d92602a8361239e565b9150612d9d82612d36565b604082019050919050565b60006020820190508181036000830152612dc181612d85565b9050919050565b7f45524337323155524953746f726167653a2055524920717565727920666f722060008201527f6e6f6e6578697374656e7420746f6b656e000000000000000000000000000000602082015250565b6000612e2460318361239e565b9150612e2f82612dc8565b604082019050919050565b60006020820190508181036000830152612e5381612e17565b9050919050565b600081905092915050565b6000612e7082612393565b612e7a8185612e5a565b9350612e8a8185602086016123af565b80840191505092915050565b6000612ea28285612e65565b9150612eae8284612e65565b91508190509392505050565b7f4f776e61626c653a206e6577206f776e657220697320746865207a65726f206160008201527f6464726573730000000000000000000000000000000000000000000000000000602082015250565b6000612f1660268361239e565b9150612f2182612eba565b604082019050919050565b60006020820190508181036000830152612f4581612f09565b9050919050565b7f4552433732313a206d696e7420746f20746865207a65726f2061646472657373600082015250565b6000612f8260208361239e565b9150612f8d82612f4c565b602082019050919050565b60006020820190508181036000830152612fb181612f75565b9050919050565b7f4552433732313a20746f6b656e20616c7265616479206d696e74656400000000600082015250565b6000612fee601c8361239e565b9150612ff982612fb8565b602082019050919050565b6000602082019050818103600083015261301d81612fe1565b9050919050565b7f45524337323155524953746f726167653a2055524920736574206f66206e6f6e60008201527f6578697374656e7420746f6b656e000000000000000000000000000000000000602082015250565b6000613080602e8361239e565b915061308b82613024565b604082019050919050565b600060208201905081810360008301526130af81613073565b9050919050565b7f4552433732313a206f70657261746f7220717565727920666f72206e6f6e657860008201527f697374656e7420746f6b656e0000000000000000000000000000000000000000602082015250565b6000613112602c8361239e565b915061311d826130b6565b604082019050919050565b6000602082019050818103600083015261314181613105565b9050919050565b7f4552433732313a207472616e736665722066726f6d20696e636f72726563742060008201527f6f776e6572000000000000000000000000000000000000000000000000000000602082015250565b60006131a460258361239e565b91506131af82613148565b604082019050919050565b600060208201905081810360008301526131d381613197565b9050919050565b7f4552433732313a207472616e7366657220746f20746865207a65726f2061646460008201527f7265737300000000000000000000000000000000000000000000000000000000602082015250565b600061323660248361239e565b9150613241826131da565b604082019050919050565b6000602082019050818103600083015261326581613229565b9050919050565b60006132778261235f565b91506132828361235f565b92508282101561329557613294612960565b5b828203905092915050565b7f4552433732313a20617070726f766520746f2063616c6c657200000000000000600082015250565b60006132d660198361239e565b91506132e1826132a0565b602082019050919050565b60006020820190508181036000830152613305816132c9565b9050919050565b7f4552433732313a207472616e7366657220746f206e6f6e20455243373231526560008201527f63656976657220696d706c656d656e7465720000000000000000000000000000602082015250565b600061336860328361239e565b91506133738261330c565b604082019050919050565b600060208201905081810360008301526133978161335b565b9050919050565b7f4552433732314d657461646174613a2055524920717565727920666f72206e6f60008201527f6e6578697374656e7420746f6b656e0000000000000000000000000000000000602082015250565b60006133fa602f8361239e565b91506134058261339e565b604082019050919050565b60006020820190508181036000830152613429816133ed565b9050919050565b600081519050919050565b600082825260208201905092915050565b600061345782613430565b613461818561343b565b93506134718185602086016123af565b61347a81612169565b840191505092915050565b600060808201905061349a60008301876125da565b6134a760208301866125da565b6134b46040830185612369565b81810360608301526134c6818461344c565b905095945050505050565b6000815190506134e0816120d0565b92915050565b6000602082840312156134fc576134fb61209a565b5b600061350a848285016134d1565b91505092915050565b7f4e487b7100000000000000000000000000000000000000000000000000000000600052601260045260246000fd5b600061354d8261235f565b91506135588361235f565b92508261356857613567613513565b5b828204905092915050565b600061357e8261235f565b91506135898361235f565b92508261359957613598613513565b5b82820690509291505056fea26469706673582212200f83ac2c0786791fa195fdfadb0082d997918b8ee6c1c1a460842e607d104f6f64736f6c634300080d0033",
  "immutableReferences": {},
  "source": "//SPDX-License-Identifier: MIT\r\n\r\npragma solidity ^0.8.0;\r\n\r\nimport \"@openzeppelin/contracts/token/ERC721/extensions/ERC721URIStorage.sol\";\r\nimport \"@openzeppelin/contracts/utils/Counters.sol\";\r\nimport \"@openzeppelin/contracts/access/Ownable.sol\";\r\n\r\ncontract NFT is ERC721URIStorage, Ownable {\r\n    using Counters for Counters.Counter;\r\n    Counters.Counter private _tokenIds;\r\n\r\n    struct TokenInfo {\r\n        uint256 tokenId;\r\n        address owner;\r\n        address creator;\r\n        address tokenContractAddress;\r\n    }\r\n\r\n    mapping(uint256 => address) private _tokenCreator;\r\n    address private _contractAddress;\r\n    string private _contractURI;\r\n\r\n    constructor(\r\n        string memory name,\r\n        string memory symbol,\r\n        address celebrity,\r\n        address contractAddress,\r\n        string memory __contractURI\r\n    ) Ownable() ERC721(name, symbol) {\r\n        _contractAddress = contractAddress;\r\n        _contractURI = __contractURI;\r\n        transferOwnership(celebrity);\r\n    }\r\n\r\n    function contractURI() public view returns (string memory) {\r\n        return _contractURI;\r\n    }\r\n\r\n    function _setCreator(uint256 newItemId, address creator) private {\r\n        _tokenCreator[newItemId] = creator;\r\n    }\r\n\r\n    function creatorOf(uint256 tokenId) public view returns (address) {\r\n        return _tokenCreator[tokenId];\r\n    }\r\n\r\n    function mintNFT(string memory _tokenURI, address creator)\r\n        public\r\n        onlyContract\r\n        returns (uint256)\r\n    {\r\n        _tokenIds.increment();\r\n\r\n        uint256 newItemId = _tokenIds.current();\r\n        _mint(creator, newItemId);\r\n        _setTokenURI(newItemId, _tokenURI);\r\n        _setCreator(newItemId, creator);\r\n        return newItemId;\r\n    }\r\n\r\n    function ownerList() public view returns (TokenInfo[] memory) {\r\n        TokenInfo[] memory tokenInfos = new TokenInfo[](_tokenIds.current());\r\n        for (uint256 i = 0; i < _tokenIds.current(); i++) {\r\n            tokenInfos[i].tokenId = i + 1;\r\n            tokenInfos[i].owner = owner();\r\n            tokenInfos[i].creator = _tokenCreator[i + 1];\r\n            tokenInfos[i].owner = owner();\r\n            tokenInfos[i].tokenContractAddress = address(this);\r\n        }\r\n        return tokenInfos;\r\n    }\r\n\r\n    modifier onlyContract() {\r\n        require(\r\n            msg.sender == _contractAddress,\r\n            \"Ownable: caller is not the owner\"\r\n        );\r\n        _;\r\n    }\r\n}\r\n",
  "sourcePath": "C:\\Users\\dlscj\\VSCode\\klaytn-vue\\contracts\\NFT.sol",
  "compiler": {
    "name": "solc",
    "version": "0.8.13+commit.abaa5c0e.Emscripten.clang"
  },
  "schemaVersion": "3.4.7",
  "updatedAt": "2022-05-04T06:59:53.683Z",
  "devdoc": {
    "kind": "dev",
    "methods": {
      "approve(address,uint256)": {
        "details": "See {IERC721-approve}."
      },
      "balanceOf(address)": {
        "details": "See {IERC721-balanceOf}."
      },
      "getApproved(uint256)": {
        "details": "See {IERC721-getApproved}."
      },
      "isApprovedForAll(address,address)": {
        "details": "See {IERC721-isApprovedForAll}."
      },
      "name()": {
        "details": "See {IERC721Metadata-name}."
      },
      "owner()": {
        "details": "Returns the address of the current owner."
      },
      "ownerOf(uint256)": {
        "details": "See {IERC721-ownerOf}."
      },
      "renounceOwnership()": {
        "details": "Leaves the contract without owner. It will not be possible to call `onlyOwner` functions anymore. Can only be called by the current owner. NOTE: Renouncing ownership will leave the contract without an owner, thereby removing any functionality that is only available to the owner."
      },
      "safeTransferFrom(address,address,uint256)": {
        "details": "See {IERC721-safeTransferFrom}."
      },
      "safeTransferFrom(address,address,uint256,bytes)": {
        "details": "See {IERC721-safeTransferFrom}."
      },
      "setApprovalForAll(address,bool)": {
        "details": "See {IERC721-setApprovalForAll}."
      },
      "supportsInterface(bytes4)": {
        "details": "See {IERC165-supportsInterface}."
      },
      "symbol()": {
        "details": "See {IERC721Metadata-symbol}."
      },
      "tokenURI(uint256)": {
        "details": "See {IERC721Metadata-tokenURI}."
      },
      "transferFrom(address,address,uint256)": {
        "details": "See {IERC721-transferFrom}."
      },
      "transferOwnership(address)": {
        "details": "Transfers ownership of the contract to a new account (`newOwner`). Can only be called by the current owner."
      }
    },
    "version": 1
  },
  "userdoc": {
    "kind": "user",
    "methods": {},
    "version": 1
  }
}