{
  "contractName": "NFT",
  "abi": [
    {
      "inputs": [
        {
          "internalType": "string",
          "name": "name",
          "type": "string"
        },
        {
          "internalType": "string",
          "name": "symbol",
          "type": "string"
        },
        {
          "internalType": "address",
          "name": "celebrity",
          "type": "address"
        },
        {
          "internalType": "address",
          "name": "contractAddress",
          "type": "address"
        },
        {
          "internalType": "string",
          "name": "__contractURI",
          "type": "string"
        }
      ],
      "stateMutability": "nonpayable",
      "type": "constructor"
    },
    {
      "anonymous": false,
      "inputs": [
        {
          "indexed": true,
          "internalType": "address",
          "name": "owner",
          "type": "address"
        },
        {
          "indexed": true,
          "internalType": "address",
          "name": "approved",
          "type": "address"
        },
        {
          "indexed": true,
          "internalType": "uint256",
          "name": "tokenId",
          "type": "uint256"
        }
      ],
      "name": "Approval",
      "type": "event"
    },
    {
      "anonymous": false,
      "inputs": [
        {
          "indexed": true,
          "internalType": "address",
          "name": "owner",
          "type": "address"
        },
        {
          "indexed": true,
          "internalType": "address",
          "name": "operator",
          "type": "address"
        },
        {
          "indexed": false,
          "internalType": "bool",
          "name": "approved",
          "type": "bool"
        }
      ],
      "name": "ApprovalForAll",
      "type": "event"
    },
    {
      "anonymous": false,
      "inputs": [
        {
          "indexed": true,
          "internalType": "address",
          "name": "previousOwner",
          "type": "address"
        },
        {
          "indexed": true,
          "internalType": "address",
          "name": "newOwner",
          "type": "address"
        }
      ],
      "name": "OwnershipTransferred",
      "type": "event"
    },
    {
      "anonymous": false,
      "inputs": [
        {
          "indexed": true,
          "internalType": "address",
          "name": "from",
          "type": "address"
        },
        {
          "indexed": true,
          "internalType": "address",
          "name": "to",
          "type": "address"
        },
        {
          "indexed": true,
          "internalType": "uint256",
          "name": "tokenId",
          "type": "uint256"
        }
      ],
      "name": "Transfer",
      "type": "event"
    },
    {
      "inputs": [
        {
          "internalType": "address",
          "name": "to",
          "type": "address"
        },
        {
          "internalType": "uint256",
          "name": "tokenId",
          "type": "uint256"
        }
      ],
      "name": "approve",
      "outputs": [],
      "stateMutability": "nonpayable",
      "type": "function"
    },
    {
      "inputs": [
        {
          "internalType": "address",
          "name": "owner",
          "type": "address"
        }
      ],
      "name": "balanceOf",
      "outputs": [
        {
          "internalType": "uint256",
          "name": "",
          "type": "uint256"
        }
      ],
      "stateMutability": "view",
      "type": "function",
      "constant": true
    },
    {
      "inputs": [
        {
          "internalType": "uint256",
          "name": "tokenId",
          "type": "uint256"
        }
      ],
      "name": "getApproved",
      "outputs": [
        {
          "internalType": "address",
          "name": "",
          "type": "address"
        }
      ],
      "stateMutability": "view",
      "type": "function",
      "constant": true
    },
    {
      "inputs": [
        {
          "internalType": "address",
          "name": "owner",
          "type": "address"
        },
        {
          "internalType": "address",
          "name": "operator",
          "type": "address"
        }
      ],
      "name": "isApprovedForAll",
      "outputs": [
        {
          "internalType": "bool",
          "name": "",
          "type": "bool"
        }
      ],
      "stateMutability": "view",
      "type": "function",
      "constant": true
    },
    {
      "inputs": [],
      "name": "name",
      "outputs": [
        {
          "internalType": "string",
          "name": "",
          "type": "string"
        }
      ],
      "stateMutability": "view",
      "type": "function",
      "constant": true
    },
    {
      "inputs": [],
      "name": "owner",
      "outputs": [
        {
          "internalType": "address",
          "name": "",
          "type": "address"
        }
      ],
      "stateMutability": "view",
      "type": "function",
      "constant": true
    },
    {
      "inputs": [
        {
          "internalType": "uint256",
          "name": "tokenId",
          "type": "uint256"
        }
      ],
      "name": "ownerOf",
      "outputs": [
        {
          "internalType": "address",
          "name": "",
          "type": "address"
        }
      ],
      "stateMutability": "view",
      "type": "function",
      "constant": true
    },
    {
      "inputs": [],
      "name": "renounceOwnership",
      "outputs": [],
      "stateMutability": "nonpayable",
      "type": "function"
    },
    {
      "inputs": [
        {
          "internalType": "address",
          "name": "from",
          "type": "address"
        },
        {
          "internalType": "address",
          "name": "to",
          "type": "address"
        },
        {
          "internalType": "uint256",
          "name": "tokenId",
          "type": "uint256"
        }
      ],
      "name": "safeTransferFrom",
      "outputs": [],
      "stateMutability": "nonpayable",
      "type": "function"
    },
    {
      "inputs": [
        {
          "internalType": "address",
          "name": "from",
          "type": "address"
        },
        {
          "internalType": "address",
          "name": "to",
          "type": "address"
        },
        {
          "internalType": "uint256",
          "name": "tokenId",
          "type": "uint256"
        },
        {
          "internalType": "bytes",
          "name": "_data",
          "type": "bytes"
        }
      ],
      "name": "safeTransferFrom",
      "outputs": [],
      "stateMutability": "nonpayable",
      "type": "function"
    },
    {
      "inputs": [
        {
          "internalType": "address",
          "name": "operator",
          "type": "address"
        },
        {
          "internalType": "bool",
          "name": "approved",
          "type": "bool"
        }
      ],
      "name": "setApprovalForAll",
      "outputs": [],
      "stateMutability": "nonpayable",
      "type": "function"
    },
    {
      "inputs": [
        {
          "internalType": "bytes4",
          "name": "interfaceId",
          "type": "bytes4"
        }
      ],
      "name": "supportsInterface",
      "outputs": [
        {
          "internalType": "bool",
          "name": "",
          "type": "bool"
        }
      ],
      "stateMutability": "view",
      "type": "function",
      "constant": true
    },
    {
      "inputs": [],
      "name": "symbol",
      "outputs": [
        {
          "internalType": "string",
          "name": "",
          "type": "string"
        }
      ],
      "stateMutability": "view",
      "type": "function",
      "constant": true
    },
    {
      "inputs": [
        {
          "internalType": "uint256",
          "name": "tokenId",
          "type": "uint256"
        }
      ],
      "name": "tokenURI",
      "outputs": [
        {
          "internalType": "string",
          "name": "",
          "type": "string"
        }
      ],
      "stateMutability": "view",
      "type": "function",
      "constant": true
    },
    {
      "inputs": [
        {
          "internalType": "address",
          "name": "from",
          "type": "address"
        },
        {
          "internalType": "address",
          "name": "to",
          "type": "address"
        },
        {
          "internalType": "uint256",
          "name": "tokenId",
          "type": "uint256"
        }
      ],
      "name": "transferFrom",
      "outputs": [],
      "stateMutability": "nonpayable",
      "type": "function"
    },
    {
      "inputs": [
        {
          "internalType": "address",
          "name": "newOwner",
          "type": "address"
        }
      ],
      "name": "transferOwnership",
      "outputs": [],
      "stateMutability": "nonpayable",
      "type": "function"
    },
    {
      "inputs": [],
      "name": "contractURI",
      "outputs": [
        {
          "internalType": "string",
          "name": "",
          "type": "string"
        }
      ],
      "stateMutability": "view",
      "type": "function",
      "constant": true
    },
    {
      "inputs": [
        {
          "internalType": "uint256",
          "name": "tokenId",
          "type": "uint256"
        }
      ],
      "name": "creatorOf",
      "outputs": [
        {
          "internalType": "address",
          "name": "",
          "type": "address"
        }
      ],
      "stateMutability": "view",
      "type": "function",
      "constant": true
    },
    {
      "inputs": [
        {
          "internalType": "string",
          "name": "_tokenURI",
          "type": "string"
        },
        {
          "internalType": "address",
          "name": "creator",
          "type": "address"
        }
      ],
      "name": "mintNFT",
      "outputs": [
        {
          "internalType": "uint256",
          "name": "",
          "type": "uint256"
        }
      ],
      "stateMutability": "nonpayable",
      "type": "function"
    },
    {
      "inputs": [],
      "name": "totalSupply",
      "outputs": [
        {
          "internalType": "uint256",
          "name": "",
          "type": "uint256"
        }
      ],
      "stateMutability": "view",
      "type": "function",
      "constant": true
    }
  ],
  "bytecode": "0x60806040523480156200001157600080fd5b5060405162003a1c38038062003a1c8339818101604052810190620000379190620005c2565b848481600090805190602001906200005192919062000310565b5080600190805190602001906200006a92919062000310565b5050506200008d620000816200010360201b60201c565b6200010b60201b60201c565b81600a60006101000a81548173ffffffffffffffffffffffffffffffffffffffff021916908373ffffffffffffffffffffffffffffffffffffffff16021790555080600b9080519060200190620000e692919062000310565b50620000f883620001d160201b60201c565b505050505062000826565b600033905090565b6000600760009054906101000a900473ffffffffffffffffffffffffffffffffffffffff16905081600760006101000a81548173ffffffffffffffffffffffffffffffffffffffff021916908373ffffffffffffffffffffffffffffffffffffffff1602179055508173ffffffffffffffffffffffffffffffffffffffff168173ffffffffffffffffffffffffffffffffffffffff167f8be0079c531659141344cd1fd0a4f28419497f9722a3daafe3b4186f6b6457e060405160405180910390a35050565b620001e16200010360201b60201c565b73ffffffffffffffffffffffffffffffffffffffff1662000207620002e660201b60201c565b73ffffffffffffffffffffffffffffffffffffffff161462000260576040517f08c379a0000000000000000000000000000000000000000000000000000000008152600401620002579062000708565b60405180910390fd5b600073ffffffffffffffffffffffffffffffffffffffff168173ffffffffffffffffffffffffffffffffffffffff1603620002d2576040517f08c379a0000000000000000000000000000000000000000000000000000000008152600401620002c990620007a0565b60405180910390fd5b620002e3816200010b60201b60201c565b50565b6000600760009054906101000a900473ffffffffffffffffffffffffffffffffffffffff16905090565b8280546200031e90620007f1565b90600052602060002090601f0160209004810192826200034257600085556200038e565b82601f106200035d57805160ff19168380011785556200038e565b828001600101855582156200038e579182015b828111156200038d57825182559160200191906001019062000370565b5b5090506200039d9190620003a1565b5090565b5b80821115620003bc576000816000905550600101620003a2565b5090565b6000604051905090565b600080fd5b600080fd5b600080fd5b600080fd5b6000601f19601f8301169050919050565b7f4e487b7100000000000000000000000000000000000000000000000000000000600052604160045260246000fd5b6200042982620003de565b810181811067ffffffffffffffff821117156200044b576200044a620003ef565b5b80604052505050565b600062000460620003c0565b90506200046e82826200041e565b919050565b600067ffffffffffffffff821115620004915762000490620003ef565b5b6200049c82620003de565b9050602081019050919050565b60005b83811015620004c9578082015181840152602081019050620004ac565b83811115620004d9576000848401525b50505050565b6000620004f6620004f08462000473565b62000454565b905082815260208101848484011115620005155762000514620003d9565b5b62000522848285620004a9565b509392505050565b600082601f830112620005425762000541620003d4565b5b815162000554848260208601620004df565b91505092915050565b600073ffffffffffffffffffffffffffffffffffffffff82169050919050565b60006200058a826200055d565b9050919050565b6200059c816200057d565b8114620005a857600080fd5b50565b600081519050620005bc8162000591565b92915050565b600080600080600060a08688031215620005e157620005e0620003ca565b5b600086015167ffffffffffffffff811115620006025762000601620003cf565b5b62000610888289016200052a565b955050602086015167ffffffffffffffff811115620006345762000633620003cf565b5b62000642888289016200052a565b94505060406200065588828901620005ab565b93505060606200066888828901620005ab565b925050608086015167ffffffffffffffff8111156200068c576200068b620003cf565b5b6200069a888289016200052a565b9150509295509295909350565b600082825260208201905092915050565b7f4f776e61626c653a2063616c6c6572206973206e6f7420746865206f776e6572600082015250565b6000620006f0602083620006a7565b9150620006fd82620006b8565b602082019050919050565b600060208201905081810360008301526200072381620006e1565b9050919050565b7f4f776e61626c653a206e6577206f776e657220697320746865207a65726f206160008201527f6464726573730000000000000000000000000000000000000000000000000000602082015250565b600062000788602683620006a7565b915062000795826200072a565b604082019050919050565b60006020820190508181036000830152620007bb8162000779565b9050919050565b7f4e487b7100000000000000000000000000000000000000000000000000000000600052602260045260246000fd5b600060028204905060018216806200080a57607f821691505b60208210810362000820576200081f620007c2565b5b50919050565b6131e680620008366000396000f3fe608060405234801561001057600080fd5b506004361061012c5760003560e01c806370a08231116100ad578063b88d4fde11610071578063b88d4fde14610343578063c87b56dd1461035f578063e8a3d4851461038f578063e985e9c5146103ad578063f2fde38b146103dd5761012c565b806370a08231146102b1578063715018a6146102e15780638da5cb5b146102eb57806395d89b4114610309578063a22cb465146103275761012c565b806318160ddd116100f457806318160ddd146101fb57806323b872dd1461021957806342842e0e14610235578063589a1743146102515780636352211e146102815761012c565b806301ffc9a71461013157806304f322791461016157806306fdde0314610191578063081812fc146101af578063095ea7b3146101df575b600080fd5b61014b60048036038101906101469190611e4c565b6103f9565b6040516101589190611e94565b60405180910390f35b61017b60048036038101906101769190612053565b6104db565b60405161018891906120c8565b60405180910390f35b6101996105ad565b6040516101a6919061216b565b60405180910390f35b6101c960048036038101906101c491906121b9565b61063f565b6040516101d691906121f5565b60405180910390f35b6101f960048036038101906101f49190612210565b6106c4565b005b6102036107db565b60405161021091906120c8565b60405180910390f35b610233600480360381019061022e9190612250565b6107ec565b005b61024f600480360381019061024a9190612250565b61084c565b005b61026b600480360381019061026691906121b9565b61086c565b60405161027891906121f5565b60405180910390f35b61029b600480360381019061029691906121b9565b6108a9565b6040516102a891906121f5565b60405180910390f35b6102cb60048036038101906102c691906122a3565b61095a565b6040516102d891906120c8565b60405180910390f35b6102e9610a11565b005b6102f3610a99565b60405161030091906121f5565b60405180910390f35b610311610ac3565b60405161031e919061216b565b60405180910390f35b610341600480360381019061033c91906122fc565b610b55565b005b61035d600480360381019061035891906123dd565b610b6b565b005b610379600480360381019061037491906121b9565b610bcd565b604051610386919061216b565b60405180910390f35b610397610d1e565b6040516103a4919061216b565b60405180910390f35b6103c760048036038101906103c29190612460565b610db0565b6040516103d49190611e94565b60405180910390f35b6103f760048036038101906103f291906122a3565b610e44565b005b60007f80ac58cd000000000000000000000000000000000000000000000000000000007bffffffffffffffffffffffffffffffffffffffffffffffffffffffff1916827bffffffffffffffffffffffffffffffffffffffffffffffffffffffff191614806104c457507f5b5e139f000000000000000000000000000000000000000000000000000000007bffffffffffffffffffffffffffffffffffffffffffffffffffffffff1916827bffffffffffffffffffffffffffffffffffffffffffffffffffffffff1916145b806104d457506104d382610f3b565b5b9050919050565b6000600a60009054906101000a900473ffffffffffffffffffffffffffffffffffffffff1673ffffffffffffffffffffffffffffffffffffffff163373ffffffffffffffffffffffffffffffffffffffff161461056d576040517f08c379a0000000000000000000000000000000000000000000000000000000008152600401610564906124ec565b60405180910390fd5b6105776008610fa5565b60006105836008610fbb565b905061058f8382610fc9565b61059981856111a2565b6105a38184611216565b8091505092915050565b6060600080546105bc9061253b565b80601f01602080910402602001604051908101604052809291908181526020018280546105e89061253b565b80156106355780601f1061060a57610100808354040283529160200191610635565b820191906000526020600020905b81548152906001019060200180831161061857829003601f168201915b5050505050905090565b600061064a8261126c565b610689576040517f08c379a0000000000000000000000000000000000000000000000000000000008152600401610680906125de565b60405180910390fd5b6004600083815260200190815260200160002060009054906101000a900473ffffffffffffffffffffffffffffffffffffffff169050919050565b60006106cf826108a9565b90508073ffffffffffffffffffffffffffffffffffffffff168373ffffffffffffffffffffffffffffffffffffffff160361073f576040517f08c379a000000000000000000000000000000000000000000000000000000000815260040161073690612670565b60405180910390fd5b8073ffffffffffffffffffffffffffffffffffffffff1661075e6112d8565b73ffffffffffffffffffffffffffffffffffffffff16148061078d575061078c816107876112d8565b610db0565b5b6107cc576040517f08c379a00000000000000000000000000000000000000000000000000000000081526004016107c390612702565b60405180910390fd5b6107d683836112e0565b505050565b60006107e76008610fbb565b905090565b6107fd6107f76112d8565b82611399565b61083c576040517f08c379a000000000000000000000000000000000000000000000000000000000815260040161083390612794565b60405180910390fd5b610847838383611477565b505050565b61086783838360405180602001604052806000815250610b6b565b505050565b60006009600083815260200190815260200160002060009054906101000a900473ffffffffffffffffffffffffffffffffffffffff169050919050565b6000806002600084815260200190815260200160002060009054906101000a900473ffffffffffffffffffffffffffffffffffffffff169050600073ffffffffffffffffffffffffffffffffffffffff168173ffffffffffffffffffffffffffffffffffffffff1603610951576040517f08c379a000000000000000000000000000000000000000000000000000000000815260040161094890612826565b60405180910390fd5b80915050919050565b60008073ffffffffffffffffffffffffffffffffffffffff168273ffffffffffffffffffffffffffffffffffffffff16036109ca576040517f08c379a00000000000000000000000000000000000000000000000000000000081526004016109c1906128b8565b60405180910390fd5b600360008373ffffffffffffffffffffffffffffffffffffffff1673ffffffffffffffffffffffffffffffffffffffff168152602001908152602001600020549050919050565b610a196112d8565b73ffffffffffffffffffffffffffffffffffffffff16610a37610a99565b73ffffffffffffffffffffffffffffffffffffffff1614610a8d576040517f08c379a0000000000000000000000000000000000000000000000000000000008152600401610a84906124ec565b60405180910390fd5b610a9760006116dd565b565b6000600760009054906101000a900473ffffffffffffffffffffffffffffffffffffffff16905090565b606060018054610ad29061253b565b80601f0160208091040260200160405190810160405280929190818152602001828054610afe9061253b565b8015610b4b5780601f10610b2057610100808354040283529160200191610b4b565b820191906000526020600020905b815481529060010190602001808311610b2e57829003601f168201915b5050505050905090565b610b67610b606112d8565b83836117a3565b5050565b610b7c610b766112d8565b83611399565b610bbb576040517f08c379a0000000000000000000000000000000000000000000000000000000008152600401610bb290612794565b60405180910390fd5b610bc78484848461190f565b50505050565b6060610bd88261126c565b610c17576040517f08c379a0000000000000000000000000000000000000000000000000000000008152600401610c0e9061294a565b60405180910390fd5b6000600660008481526020019081526020016000208054610c379061253b565b80601f0160208091040260200160405190810160405280929190818152602001828054610c639061253b565b8015610cb05780601f10610c8557610100808354040283529160200191610cb0565b820191906000526020600020905b815481529060010190602001808311610c9357829003601f168201915b505050505090506000610cc161196b565b90506000815103610cd6578192505050610d19565b600082511115610d0b578082604051602001610cf39291906129a6565b60405160208183030381529060405292505050610d19565b610d1484611982565b925050505b919050565b6060600b8054610d2d9061253b565b80601f0160208091040260200160405190810160405280929190818152602001828054610d599061253b565b8015610da65780601f10610d7b57610100808354040283529160200191610da6565b820191906000526020600020905b815481529060010190602001808311610d8957829003601f168201915b5050505050905090565b6000600560008473ffffffffffffffffffffffffffffffffffffffff1673ffffffffffffffffffffffffffffffffffffffff16815260200190815260200160002060008373ffffffffffffffffffffffffffffffffffffffff1673ffffffffffffffffffffffffffffffffffffffff16815260200190815260200160002060009054906101000a900460ff16905092915050565b610e4c6112d8565b73ffffffffffffffffffffffffffffffffffffffff16610e6a610a99565b73ffffffffffffffffffffffffffffffffffffffff1614610ec0576040517f08c379a0000000000000000000000000000000000000000000000000000000008152600401610eb7906124ec565b60405180910390fd5b600073ffffffffffffffffffffffffffffffffffffffff168173ffffffffffffffffffffffffffffffffffffffff1603610f2f576040517f08c379a0000000000000000000000000000000000000000000000000000000008152600401610f2690612a3c565b60405180910390fd5b610f38816116dd565b50565b60007f01ffc9a7000000000000000000000000000000000000000000000000000000007bffffffffffffffffffffffffffffffffffffffffffffffffffffffff1916827bffffffffffffffffffffffffffffffffffffffffffffffffffffffff1916149050919050565b6001816000016000828254019250508190555050565b600081600001549050919050565b600073ffffffffffffffffffffffffffffffffffffffff168273ffffffffffffffffffffffffffffffffffffffff1603611038576040517f08c379a000000000000000000000000000000000000000000000000000000000815260040161102f90612aa8565b60405180910390fd5b6110418161126c565b15611081576040517f08c379a000000000000000000000000000000000000000000000000000000000815260040161107890612b14565b60405180910390fd5b61108d60008383611a29565b6001600360008473ffffffffffffffffffffffffffffffffffffffff1673ffffffffffffffffffffffffffffffffffffffff16815260200190815260200160002060008282546110dd9190612b63565b92505081905550816002600083815260200190815260200160002060006101000a81548173ffffffffffffffffffffffffffffffffffffffff021916908373ffffffffffffffffffffffffffffffffffffffff160217905550808273ffffffffffffffffffffffffffffffffffffffff16600073ffffffffffffffffffffffffffffffffffffffff167fddf252ad1be2c89b69c2b068fc378daa952ba7f163c4a11628f55a4df523b3ef60405160405180910390a461119e60008383611a2e565b5050565b6111ab8261126c565b6111ea576040517f08c379a00000000000000000000000000000000000000000000000000000000081526004016111e190612c2b565b60405180910390fd5b80600660008481526020019081526020016000209080519060200190611211929190611d3d565b505050565b806009600084815260200190815260200160002060006101000a81548173ffffffffffffffffffffffffffffffffffffffff021916908373ffffffffffffffffffffffffffffffffffffffff1602179055505050565b60008073ffffffffffffffffffffffffffffffffffffffff166002600084815260200190815260200160002060009054906101000a900473ffffffffffffffffffffffffffffffffffffffff1673ffffffffffffffffffffffffffffffffffffffff1614159050919050565b600033905090565b816004600083815260200190815260200160002060006101000a81548173ffffffffffffffffffffffffffffffffffffffff021916908373ffffffffffffffffffffffffffffffffffffffff160217905550808273ffffffffffffffffffffffffffffffffffffffff16611353836108a9565b73ffffffffffffffffffffffffffffffffffffffff167f8c5be1e5ebec7d5bd14f71427d1e84f3dd0314c0f7b2291e5b200ac8c7c3b92560405160405180910390a45050565b60006113a48261126c565b6113e3576040517f08c379a00000000000000000000000000000000000000000000000000000000081526004016113da90612cbd565b60405180910390fd5b60006113ee836108a9565b90508073ffffffffffffffffffffffffffffffffffffffff168473ffffffffffffffffffffffffffffffffffffffff161480611430575061142f8185610db0565b5b8061146e57508373ffffffffffffffffffffffffffffffffffffffff166114568461063f565b73ffffffffffffffffffffffffffffffffffffffff16145b91505092915050565b8273ffffffffffffffffffffffffffffffffffffffff16611497826108a9565b73ffffffffffffffffffffffffffffffffffffffff16146114ed576040517f08c379a00000000000000000000000000000000000000000000000000000000081526004016114e490612d4f565b60405180910390fd5b600073ffffffffffffffffffffffffffffffffffffffff168273ffffffffffffffffffffffffffffffffffffffff160361155c576040517f08c379a000000000000000000000000000000000000000000000000000000000815260040161155390612de1565b60405180910390fd5b611567838383611a29565b6115726000826112e0565b6001600360008573ffffffffffffffffffffffffffffffffffffffff1673ffffffffffffffffffffffffffffffffffffffff16815260200190815260200160002060008282546115c29190612e01565b925050819055506001600360008473ffffffffffffffffffffffffffffffffffffffff1673ffffffffffffffffffffffffffffffffffffffff16815260200190815260200160002060008282546116199190612b63565b92505081905550816002600083815260200190815260200160002060006101000a81548173ffffffffffffffffffffffffffffffffffffffff021916908373ffffffffffffffffffffffffffffffffffffffff160217905550808273ffffffffffffffffffffffffffffffffffffffff168473ffffffffffffffffffffffffffffffffffffffff167fddf252ad1be2c89b69c2b068fc378daa952ba7f163c4a11628f55a4df523b3ef60405160405180910390a46116d8838383611a2e565b505050565b6000600760009054906101000a900473ffffffffffffffffffffffffffffffffffffffff16905081600760006101000a81548173ffffffffffffffffffffffffffffffffffffffff021916908373ffffffffffffffffffffffffffffffffffffffff1602179055508173ffffffffffffffffffffffffffffffffffffffff168173ffffffffffffffffffffffffffffffffffffffff167f8be0079c531659141344cd1fd0a4f28419497f9722a3daafe3b4186f6b6457e060405160405180910390a35050565b8173ffffffffffffffffffffffffffffffffffffffff168373ffffffffffffffffffffffffffffffffffffffff1603611811576040517f08c379a000000000000000000000000000000000000000000000000000000000815260040161180890612e81565b60405180910390fd5b80600560008573ffffffffffffffffffffffffffffffffffffffff1673ffffffffffffffffffffffffffffffffffffffff16815260200190815260200160002060008473ffffffffffffffffffffffffffffffffffffffff1673ffffffffffffffffffffffffffffffffffffffff16815260200190815260200160002060006101000a81548160ff0219169083151502179055508173ffffffffffffffffffffffffffffffffffffffff168373ffffffffffffffffffffffffffffffffffffffff167f17307eab39ab6107e8899845ad3d59bd9653f200f220920489ca2b5937696c31836040516119029190611e94565b60405180910390a3505050565b61191a848484611477565b61192684848484611a33565b611965576040517f08c379a000000000000000000000000000000000000000000000000000000000815260040161195c90612f13565b60405180910390fd5b50505050565b606060405180602001604052806000815250905090565b606061198d8261126c565b6119cc576040517f08c379a00000000000000000000000000000000000000000000000000000000081526004016119c390612fa5565b60405180910390fd5b60006119d661196b565b905060008151116119f65760405180602001604052806000815250611a21565b80611a0084611bba565b604051602001611a119291906129a6565b6040516020818303038152906040525b915050919050565b505050565b505050565b6000611a548473ffffffffffffffffffffffffffffffffffffffff16611d1a565b15611bad578373ffffffffffffffffffffffffffffffffffffffff1663150b7a02611a7d6112d8565b8786866040518563ffffffff1660e01b8152600401611a9f949392919061301a565b6020604051808303816000875af1925050508015611adb57506040513d601f19601f82011682018060405250810190611ad8919061307b565b60015b611b5d573d8060008114611b0b576040519150601f19603f3d011682016040523d82523d6000602084013e611b10565b606091505b506000815103611b55576040517f08c379a0000000000000000000000000000000000000000000000000000000008152600401611b4c90612f13565b60405180910390fd5b805181602001fd5b63150b7a0260e01b7bffffffffffffffffffffffffffffffffffffffffffffffffffffffff1916817bffffffffffffffffffffffffffffffffffffffffffffffffffffffff191614915050611bb2565b600190505b949350505050565b606060008203611c01576040518060400160405280600181526020017f30000000000000000000000000000000000000000000000000000000000000008152509050611d15565b600082905060005b60008214611c33578080611c1c906130a8565b915050600a82611c2c919061311f565b9150611c09565b60008167ffffffffffffffff811115611c4f57611c4e611eca565b5b6040519080825280601f01601f191660200182016040528015611c815781602001600182028036833780820191505090505b5090505b60008514611d0e57600182611c9a9190612e01565b9150600a85611ca99190613150565b6030611cb59190612b63565b60f81b818381518110611ccb57611cca613181565b5b60200101907effffffffffffffffffffffffffffffffffffffffffffffffffffffffffffff1916908160001a905350600a85611d07919061311f565b9450611c85565b8093505050505b919050565b6000808273ffffffffffffffffffffffffffffffffffffffff163b119050919050565b828054611d499061253b565b90600052602060002090601f016020900481019282611d6b5760008555611db2565b82601f10611d8457805160ff1916838001178555611db2565b82800160010185558215611db2579182015b82811115611db1578251825591602001919060010190611d96565b5b509050611dbf9190611dc3565b5090565b5b80821115611ddc576000816000905550600101611dc4565b5090565b6000604051905090565b600080fd5b600080fd5b60007fffffffff0000000000000000000000000000000000000000000000000000000082169050919050565b611e2981611df4565b8114611e3457600080fd5b50565b600081359050611e4681611e20565b92915050565b600060208284031215611e6257611e61611dea565b5b6000611e7084828501611e37565b91505092915050565b60008115159050919050565b611e8e81611e79565b82525050565b6000602082019050611ea96000830184611e85565b92915050565b600080fd5b600080fd5b6000601f19601f8301169050919050565b7f4e487b7100000000000000000000000000000000000000000000000000000000600052604160045260246000fd5b611f0282611eb9565b810181811067ffffffffffffffff82111715611f2157611f20611eca565b5b80604052505050565b6000611f34611de0565b9050611f408282611ef9565b919050565b600067ffffffffffffffff821115611f6057611f5f611eca565b5b611f6982611eb9565b9050602081019050919050565b82818337600083830152505050565b6000611f98611f9384611f45565b611f2a565b905082815260208101848484011115611fb457611fb3611eb4565b5b611fbf848285611f76565b509392505050565b600082601f830112611fdc57611fdb611eaf565b5b8135611fec848260208601611f85565b91505092915050565b600073ffffffffffffffffffffffffffffffffffffffff82169050919050565b600061202082611ff5565b9050919050565b61203081612015565b811461203b57600080fd5b50565b60008135905061204d81612027565b92915050565b6000806040838503121561206a57612069611dea565b5b600083013567ffffffffffffffff81111561208857612087611def565b5b61209485828601611fc7565b92505060206120a58582860161203e565b9150509250929050565b6000819050919050565b6120c2816120af565b82525050565b60006020820190506120dd60008301846120b9565b92915050565b600081519050919050565b600082825260208201905092915050565b60005b8381101561211d578082015181840152602081019050612102565b8381111561212c576000848401525b50505050565b600061213d826120e3565b61214781856120ee565b93506121578185602086016120ff565b61216081611eb9565b840191505092915050565b600060208201905081810360008301526121858184612132565b905092915050565b612196816120af565b81146121a157600080fd5b50565b6000813590506121b38161218d565b92915050565b6000602082840312156121cf576121ce611dea565b5b60006121dd848285016121a4565b91505092915050565b6121ef81612015565b82525050565b600060208201905061220a60008301846121e6565b92915050565b6000806040838503121561222757612226611dea565b5b60006122358582860161203e565b9250506020612246858286016121a4565b9150509250929050565b60008060006060848603121561226957612268611dea565b5b60006122778682870161203e565b93505060206122888682870161203e565b9250506040612299868287016121a4565b9150509250925092565b6000602082840312156122b9576122b8611dea565b5b60006122c78482850161203e565b91505092915050565b6122d981611e79565b81146122e457600080fd5b50565b6000813590506122f6816122d0565b92915050565b6000806040838503121561231357612312611dea565b5b60006123218582860161203e565b9250506020612332858286016122e7565b9150509250929050565b600067ffffffffffffffff82111561235757612356611eca565b5b61236082611eb9565b9050602081019050919050565b600061238061237b8461233c565b611f2a565b90508281526020810184848401111561239c5761239b611eb4565b5b6123a7848285611f76565b509392505050565b600082601f8301126123c4576123c3611eaf565b5b81356123d484826020860161236d565b91505092915050565b600080600080608085870312156123f7576123f6611dea565b5b60006124058782880161203e565b94505060206124168782880161203e565b9350506040612427878288016121a4565b925050606085013567ffffffffffffffff81111561244857612447611def565b5b612454878288016123af565b91505092959194509250565b6000806040838503121561247757612476611dea565b5b60006124858582860161203e565b92505060206124968582860161203e565b9150509250929050565b7f4f776e61626c653a2063616c6c6572206973206e6f7420746865206f776e6572600082015250565b60006124d66020836120ee565b91506124e1826124a0565b602082019050919050565b60006020820190508181036000830152612505816124c9565b9050919050565b7f4e487b7100000000000000000000000000000000000000000000000000000000600052602260045260246000fd5b6000600282049050600182168061255357607f821691505b6020821081036125665761256561250c565b5b50919050565b7f4552433732313a20617070726f76656420717565727920666f72206e6f6e657860008201527f697374656e7420746f6b656e0000000000000000000000000000000000000000602082015250565b60006125c8602c836120ee565b91506125d38261256c565b604082019050919050565b600060208201905081810360008301526125f7816125bb565b9050919050565b7f4552433732313a20617070726f76616c20746f2063757272656e74206f776e6560008201527f7200000000000000000000000000000000000000000000000000000000000000602082015250565b600061265a6021836120ee565b9150612665826125fe565b604082019050919050565b600060208201905081810360008301526126898161264d565b9050919050565b7f4552433732313a20617070726f76652063616c6c6572206973206e6f74206f7760008201527f6e6572206e6f7220617070726f76656420666f7220616c6c0000000000000000602082015250565b60006126ec6038836120ee565b91506126f782612690565b604082019050919050565b6000602082019050818103600083015261271b816126df565b9050919050565b7f4552433732313a207472616e736665722063616c6c6572206973206e6f74206f60008201527f776e6572206e6f7220617070726f766564000000000000000000000000000000602082015250565b600061277e6031836120ee565b915061278982612722565b604082019050919050565b600060208201905081810360008301526127ad81612771565b9050919050565b7f4552433732313a206f776e657220717565727920666f72206e6f6e657869737460008201527f656e7420746f6b656e0000000000000000000000000000000000000000000000602082015250565b60006128106029836120ee565b915061281b826127b4565b604082019050919050565b6000602082019050818103600083015261283f81612803565b9050919050565b7f4552433732313a2062616c616e636520717565727920666f7220746865207a6560008201527f726f206164647265737300000000000000000000000000000000000000000000602082015250565b60006128a2602a836120ee565b91506128ad82612846565b604082019050919050565b600060208201905081810360008301526128d181612895565b9050919050565b7f45524337323155524953746f726167653a2055524920717565727920666f722060008201527f6e6f6e6578697374656e7420746f6b656e000000000000000000000000000000602082015250565b60006129346031836120ee565b915061293f826128d8565b604082019050919050565b6000602082019050818103600083015261296381612927565b9050919050565b600081905092915050565b6000612980826120e3565b61298a818561296a565b935061299a8185602086016120ff565b80840191505092915050565b60006129b28285612975565b91506129be8284612975565b91508190509392505050565b7f4f776e61626c653a206e6577206f776e657220697320746865207a65726f206160008201527f6464726573730000000000000000000000000000000000000000000000000000602082015250565b6000612a266026836120ee565b9150612a31826129ca565b604082019050919050565b60006020820190508181036000830152612a5581612a19565b9050919050565b7f4552433732313a206d696e7420746f20746865207a65726f2061646472657373600082015250565b6000612a926020836120ee565b9150612a9d82612a5c565b602082019050919050565b60006020820190508181036000830152612ac181612a85565b9050919050565b7f4552433732313a20746f6b656e20616c7265616479206d696e74656400000000600082015250565b6000612afe601c836120ee565b9150612b0982612ac8565b602082019050919050565b60006020820190508181036000830152612b2d81612af1565b9050919050565b7f4e487b7100000000000000000000000000000000000000000000000000000000600052601160045260246000fd5b6000612b6e826120af565b9150612b79836120af565b9250827fffffffffffffffffffffffffffffffffffffffffffffffffffffffffffffffff03821115612bae57612bad612b34565b5b828201905092915050565b7f45524337323155524953746f726167653a2055524920736574206f66206e6f6e60008201527f6578697374656e7420746f6b656e000000000000000000000000000000000000602082015250565b6000612c15602e836120ee565b9150612c2082612bb9565b604082019050919050565b60006020820190508181036000830152612c4481612c08565b9050919050565b7f4552433732313a206f70657261746f7220717565727920666f72206e6f6e657860008201527f697374656e7420746f6b656e0000000000000000000000000000000000000000602082015250565b6000612ca7602c836120ee565b9150612cb282612c4b565b604082019050919050565b60006020820190508181036000830152612cd681612c9a565b9050919050565b7f4552433732313a207472616e736665722066726f6d20696e636f72726563742060008201527f6f776e6572000000000000000000000000000000000000000000000000000000602082015250565b6000612d396025836120ee565b9150612d4482612cdd565b604082019050919050565b60006020820190508181036000830152612d6881612d2c565b9050919050565b7f4552433732313a207472616e7366657220746f20746865207a65726f2061646460008201527f7265737300000000000000000000000000000000000000000000000000000000602082015250565b6000612dcb6024836120ee565b9150612dd682612d6f565b604082019050919050565b60006020820190508181036000830152612dfa81612dbe565b9050919050565b6000612e0c826120af565b9150612e17836120af565b925082821015612e2a57612e29612b34565b5b828203905092915050565b7f4552433732313a20617070726f766520746f2063616c6c657200000000000000600082015250565b6000612e6b6019836120ee565b9150612e7682612e35565b602082019050919050565b60006020820190508181036000830152612e9a81612e5e565b9050919050565b7f4552433732313a207472616e7366657220746f206e6f6e20455243373231526560008201527f63656976657220696d706c656d656e7465720000000000000000000000000000602082015250565b6000612efd6032836120ee565b9150612f0882612ea1565b604082019050919050565b60006020820190508181036000830152612f2c81612ef0565b9050919050565b7f4552433732314d657461646174613a2055524920717565727920666f72206e6f60008201527f6e6578697374656e7420746f6b656e0000000000000000000000000000000000602082015250565b6000612f8f602f836120ee565b9150612f9a82612f33565b604082019050919050565b60006020820190508181036000830152612fbe81612f82565b9050919050565b600081519050919050565b600082825260208201905092915050565b6000612fec82612fc5565b612ff68185612fd0565b93506130068185602086016120ff565b61300f81611eb9565b840191505092915050565b600060808201905061302f60008301876121e6565b61303c60208301866121e6565b61304960408301856120b9565b818103606083015261305b8184612fe1565b905095945050505050565b60008151905061307581611e20565b92915050565b60006020828403121561309157613090611dea565b5b600061309f84828501613066565b91505092915050565b60006130b3826120af565b91507fffffffffffffffffffffffffffffffffffffffffffffffffffffffffffffffff82036130e5576130e4612b34565b5b600182019050919050565b7f4e487b7100000000000000000000000000000000000000000000000000000000600052601260045260246000fd5b600061312a826120af565b9150613135836120af565b925082613145576131446130f0565b5b828204905092915050565b600061315b826120af565b9150613166836120af565b925082613176576131756130f0565b5b828206905092915050565b7f4e487b7100000000000000000000000000000000000000000000000000000000600052603260045260246000fdfea2646970667358221220b4337c30500c5be007e28365591ea0810eaa5be240656b44247fb0eaa11fa80064736f6c634300080e0033",
  "immutableReferences": {},
  "source": "//SPDX-License-Identifier: MIT\r\n\r\npragma solidity ^0.8.0;\r\n\r\nimport \"@openzeppelin/contracts/token/ERC721/extensions/ERC721URIStorage.sol\";\r\nimport \"@openzeppelin/contracts/utils/Counters.sol\";\r\nimport \"@openzeppelin/contracts/access/Ownable.sol\";\r\n\r\ncontract NFT is ERC721URIStorage, Ownable {\r\n    using Counters for Counters.Counter;\r\n    Counters.Counter private _tokenIds;\r\n\r\n    mapping(uint256 => address) private _tokenCreator;\r\n    address private _contractAddress;\r\n    string private _contractURI;\r\n\r\n    constructor(string memory name, string memory symbol, address celebrity, address contractAddress, string memory __contractURI) Ownable() ERC721(name, symbol) {\r\n        _contractAddress = contractAddress;\r\n        _contractURI = __contractURI;\r\n        transferOwnership(celebrity);\r\n    }\r\n\r\n    function contractURI() public view returns (string memory) {\r\n        return _contractURI;\r\n    }\r\n\r\n    function _setCreator(uint256 newItemId, address creator) private {\r\n        _tokenCreator[newItemId] = creator;\r\n    }\r\n\r\n    function creatorOf(uint256 tokenId) public view returns (address) {\r\n        return _tokenCreator[tokenId];\r\n    }\r\n\r\n    function mintNFT(string memory _tokenURI, address creator) public onlyContract returns (uint256)    {\r\n        _tokenIds.increment();\r\n\r\n        uint256 newItemId = _tokenIds.current();\r\n        _mint(creator, newItemId);\r\n        _setTokenURI(newItemId, _tokenURI);\r\n        _setCreator(newItemId, creator);\r\n        return newItemId;\r\n    }\r\n\r\n    function totalSupply() public view returns (uint256) {\r\n        return _tokenIds.current();\r\n    }\r\n\r\n    modifier onlyContract() {\r\n        require(\r\n            msg.sender == _contractAddress,\r\n            \"Ownable: caller is not the owner\"\r\n        );\r\n        _;\r\n    }\r\n}\r\n",
  "sourcePath": "C:\\Users\\dlscj\\VSCode\\FrontEnd\\contracts\\NFT.sol",
  "compiler": {
    "name": "solc",
    "version": "0.8.14+commit.80d49f37.Emscripten.clang"
  },
  "schemaVersion": "3.4.7",
  "updatedAt": "2022-05-22T15:31:42.758Z",
  "networkType": "ethereum",
  "devdoc": {
    "kind": "dev",
    "methods": {
      "approve(address,uint256)": {
        "details": "See {IERC721-approve}."
      },
      "balanceOf(address)": {
        "details": "See {IERC721-balanceOf}."
      },
      "getApproved(uint256)": {
        "details": "See {IERC721-getApproved}."
      },
      "isApprovedForAll(address,address)": {
        "details": "See {IERC721-isApprovedForAll}."
      },
      "name()": {
        "details": "See {IERC721Metadata-name}."
      },
      "owner()": {
        "details": "Returns the address of the current owner."
      },
      "ownerOf(uint256)": {
        "details": "See {IERC721-ownerOf}."
      },
      "renounceOwnership()": {
        "details": "Leaves the contract without owner. It will not be possible to call `onlyOwner` functions anymore. Can only be called by the current owner. NOTE: Renouncing ownership will leave the contract without an owner, thereby removing any functionality that is only available to the owner."
      },
      "safeTransferFrom(address,address,uint256)": {
        "details": "See {IERC721-safeTransferFrom}."
      },
      "safeTransferFrom(address,address,uint256,bytes)": {
        "details": "See {IERC721-safeTransferFrom}."
      },
      "setApprovalForAll(address,bool)": {
        "details": "See {IERC721-setApprovalForAll}."
      },
      "supportsInterface(bytes4)": {
        "details": "See {IERC165-supportsInterface}."
      },
      "symbol()": {
        "details": "See {IERC721Metadata-symbol}."
      },
      "tokenURI(uint256)": {
        "details": "See {IERC721Metadata-tokenURI}."
      },
      "transferFrom(address,address,uint256)": {
        "details": "See {IERC721-transferFrom}."
      },
      "transferOwnership(address)": {
        "details": "Transfers ownership of the contract to a new account (`newOwner`). Can only be called by the current owner."
      }
    },
    "version": 1
  },
  "userdoc": {
    "kind": "user",
    "methods": {},
    "version": 1
  }
}